{
	"contracts/duara.sol": {
		"DuaraVoting": {
			"abi": [
				{
					"inputs": [
						{
							"internalType": "uint256",
							"name": "",
							"type": "uint256"
						}
					],
					"name": "candidates",
					"outputs": [
						{
							"internalType": "string",
							"name": "",
							"type": "string"
						}
					],
					"stateMutability": "view",
					"type": "function"
				},
				{
					"inputs": [],
					"name": "closeVoting",
					"outputs": [],
					"stateMutability": "nonpayable",
					"type": "function"
				},
				{
					"inputs": [
						{
							"internalType": "string",
							"name": "_name",
							"type": "string"
						},
						{
							"internalType": "uint256",
							"name": "_idNumber",
							"type": "uint256"
						},
						{
							"internalType": "uint256",
							"name": "_voterNumber",
							"type": "uint256"
						}
					],
					"name": "createProfile",
					"outputs": [],
					"stateMutability": "nonpayable",
					"type": "function"
				},
				{
					"inputs": [
						{
							"internalType": "string",
							"name": "_candidate",
							"type": "string"
						}
					],
					"name": "getVotes",
					"outputs": [
						{
							"internalType": "uint256",
							"name": "",
							"type": "uint256"
						}
					],
					"stateMutability": "view",
					"type": "function"
				},
				{
					"inputs": [],
					"name": "getWinner",
					"outputs": [
						{
							"internalType": "string",
							"name": "",
							"type": "string"
						}
					],
					"stateMutability": "view",
					"type": "function"
				},
				{
					"inputs": [
						{
							"internalType": "address",
							"name": "",
							"type": "address"
						}
					],
					"name": "hasVoted",
					"outputs": [
						{
							"internalType": "bool",
							"name": "",
							"type": "bool"
						}
					],
					"stateMutability": "view",
					"type": "function"
				},
				{
					"inputs": [
						{
							"internalType": "uint256",
							"name": "_idNumber",
							"type": "uint256"
						},
						{
							"internalType": "uint256",
							"name": "_voterNumber",
							"type": "uint256"
						}
					],
					"name": "login",
					"outputs": [
						{
							"internalType": "bool",
							"name": "",
							"type": "bool"
						}
					],
					"stateMutability": "view",
					"type": "function"
				},
				{
					"inputs": [
						{
							"internalType": "address",
							"name": "",
							"type": "address"
						}
					],
					"name": "profiles",
					"outputs": [
						{
							"internalType": "string",
							"name": "name",
							"type": "string"
						},
						{
							"internalType": "uint256",
							"name": "idNumber",
							"type": "uint256"
						},
						{
							"internalType": "uint256",
							"name": "voterNumber",
							"type": "uint256"
						}
					],
					"stateMutability": "view",
					"type": "function"
				},
				{
					"inputs": [
						{
							"internalType": "string",
							"name": "_candidate",
							"type": "string"
						}
					],
					"name": "vote",
					"outputs": [],
					"stateMutability": "nonpayable",
					"type": "function"
				},
				{
					"inputs": [
						{
							"internalType": "string",
							"name": "",
							"type": "string"
						}
					],
					"name": "votes",
					"outputs": [
						{
							"internalType": "uint256",
							"name": "",
							"type": "uint256"
						}
					],
					"stateMutability": "view",
					"type": "function"
				},
				{
					"inputs": [],
					"name": "votingClosed",
					"outputs": [
						{
							"internalType": "bool",
							"name": "",
							"type": "bool"
						}
					],
					"stateMutability": "view",
					"type": "function"
				}
			],
			"devdoc": {
				"kind": "dev",
				"methods": {},
				"version": 1
			},
			"evm": {
				"assembly": "    /* \"contracts/duara.sol\":67:3672  contract DuaraVoting {... */\n  mstore(0x40, 0x80)\n    /* \"contracts/duara.sol\":604:658  string[] public candidates = [\"Mary\", \"Jane\", \"Joyce\"] */\n  mload(0x40)\n  dup1\n  0x60\n  add\n  0x40\n  mstore\n  dup1\n  mload(0x40)\n  dup1\n  0x40\n  add\n  0x40\n  mstore\n  dup1\n  0x04\n  dup2\n  mstore\n  0x20\n  add\n  0x4d61727900000000000000000000000000000000000000000000000000000000\n  dup2\n  mstore\n  pop\n  dup2\n  mstore\n  0x20\n  add\n  mload(0x40)\n  dup1\n  0x40\n  add\n  0x40\n  mstore\n  dup1\n  0x04\n  dup2\n  mstore\n  0x20\n  add\n  0x4a616e6500000000000000000000000000000000000000000000000000000000\n  dup2\n  mstore\n  pop\n  dup2\n  mstore\n  0x20\n  add\n  mload(0x40)\n  dup1\n  0x40\n  add\n  0x40\n  mstore\n  dup1\n  0x05\n  dup2\n  mstore\n  0x20\n  add\n  0x4a6f796365000000000000000000000000000000000000000000000000000000\n  dup2\n  mstore\n  pop\n  dup2\n  mstore\n  pop\n  0x02\n  swap1\n  0x03\n  tag_1\n  swap3\n  swap2\n  swap1\n  tag_2\n  jump\t// in\ntag_1:\n  pop\n    /* \"contracts/duara.sol\":857:862  false */\n  0x00\n    /* \"contracts/duara.sol\":830:862  bool public votingClosed = false */\n  0x04\n  exp(0x0100, 0x00)\n  dup2\n  sload\n  dup2\n  0xff\n  mul\n  not\n  and\n  swap1\n  dup4\n  iszero\n  iszero\n  mul\n  or\n  swap1\n  sstore\n  pop\n    /* \"contracts/duara.sol\":67:3672  contract DuaraVoting {... */\n  callvalue\n  dup1\n  iszero\n  tag_3\n  jumpi\n  0x00\n  dup1\n  revert\ntag_3:\n  pop\n  jump(tag_4)\ntag_2:\n  dup3\n  dup1\n  sload\n  dup3\n  dup3\n  sstore\n  swap1\n  0x00\n  mstore\n  keccak256(0x00, 0x20)\n  swap1\n  dup2\n  add\n  swap3\n  dup3\n  iszero\n  tag_5\n  jumpi\n  swap2\n  0x20\n  mul\n  dup3\n  add\ntag_6:\n  dup3\n  dup2\n  gt\n  iszero\n  tag_7\n  jumpi\n  dup3\n  mload\n  dup3\n  swap1\n  dup2\n  tag_8\n  swap2\n  swap1\n  tag_9\n  jump\t// in\ntag_8:\n  pop\n  swap2\n  0x20\n  add\n  swap2\n  swap1\n  0x01\n  add\n  swap1\n  jump(tag_6)\ntag_7:\ntag_5:\n  pop\n  swap1\n  pop\n  tag_10\n  swap2\n  swap1\n  tag_11\n  jump\t// in\ntag_10:\n  pop\n  swap1\n  jump\t// out\ntag_11:\ntag_12:\n  dup1\n  dup3\n  gt\n  iszero\n  tag_13\n  jumpi\n  0x00\n  dup2\n  dup2\n  tag_14\n  swap2\n  swap1\n  tag_15\n  jump\t// in\ntag_14:\n  pop\n  0x01\n  add\n  jump(tag_12)\ntag_13:\n  pop\n  swap1\n  jump\t// out\ntag_15:\n  pop\n  dup1\n  sload\n  tag_16\n  swap1\n  tag_17\n  jump\t// in\ntag_16:\n  0x00\n  dup3\n  sstore\n  dup1\n  0x1f\n  lt\n  tag_19\n  jumpi\n  pop\n  jump(tag_18)\ntag_19:\n  0x1f\n  add\n  0x20\n  swap1\n  div\n  swap1\n  0x00\n  mstore\n  keccak256(0x00, 0x20)\n  swap1\n  dup2\n  add\n  swap1\n  tag_20\n  swap2\n  swap1\n  tag_21\n  jump\t// in\ntag_20:\ntag_18:\n  pop\n  jump\t// out\ntag_21:\ntag_22:\n  dup1\n  dup3\n  gt\n  iszero\n  tag_23\n  jumpi\n  0x00\n  dup2\n  0x00\n  swap1\n  sstore\n  pop\n  0x01\n  add\n  jump(tag_22)\ntag_23:\n  pop\n  swap1\n  jump\t// out\n    /* \"#utility.yul\":7:106   */\ntag_24:\n    /* \"#utility.yul\":59:65   */\n  0x00\n    /* \"#utility.yul\":93:98   */\n  dup2\n    /* \"#utility.yul\":87:99   */\n  mload\n    /* \"#utility.yul\":77:99   */\n  swap1\n  pop\n    /* \"#utility.yul\":7:106   */\n  swap2\n  swap1\n  pop\n  jump\t// out\n    /* \"#utility.yul\":112:292   */\ntag_25:\n    /* \"#utility.yul\":160:237   */\n  0x4e487b7100000000000000000000000000000000000000000000000000000000\n    /* \"#utility.yul\":157:158   */\n  0x00\n    /* \"#utility.yul\":150:238   */\n  mstore\n    /* \"#utility.yul\":257:261   */\n  0x41\n    /* \"#utility.yul\":254:255   */\n  0x04\n    /* \"#utility.yul\":247:262   */\n  mstore\n    /* \"#utility.yul\":281:285   */\n  0x24\n    /* \"#utility.yul\":278:279   */\n  0x00\n    /* \"#utility.yul\":271:286   */\n  revert\n    /* \"#utility.yul\":298:478   */\ntag_26:\n    /* \"#utility.yul\":346:423   */\n  0x4e487b7100000000000000000000000000000000000000000000000000000000\n    /* \"#utility.yul\":343:344   */\n  0x00\n    /* \"#utility.yul\":336:424   */\n  mstore\n    /* \"#utility.yul\":443:447   */\n  0x22\n    /* \"#utility.yul\":440:441   */\n  0x04\n    /* \"#utility.yul\":433:448   */\n  mstore\n    /* \"#utility.yul\":467:471   */\n  0x24\n    /* \"#utility.yul\":464:465   */\n  0x00\n    /* \"#utility.yul\":457:472   */\n  revert\n    /* \"#utility.yul\":484:804   */\ntag_17:\n    /* \"#utility.yul\":528:534   */\n  0x00\n    /* \"#utility.yul\":565:566   */\n  0x02\n    /* \"#utility.yul\":559:563   */\n  dup3\n    /* \"#utility.yul\":555:567   */\n  div\n    /* \"#utility.yul\":545:567   */\n  swap1\n  pop\n    /* \"#utility.yul\":612:613   */\n  0x01\n    /* \"#utility.yul\":606:610   */\n  dup3\n    /* \"#utility.yul\":602:614   */\n  and\n    /* \"#utility.yul\":633:651   */\n  dup1\n    /* \"#utility.yul\":623:704   */\n  tag_48\n  jumpi\n    /* \"#utility.yul\":689:693   */\n  0x7f\n    /* \"#utility.yul\":681:687   */\n  dup3\n    /* \"#utility.yul\":677:694   */\n  and\n    /* \"#utility.yul\":667:694   */\n  swap2\n  pop\n    /* \"#utility.yul\":623:704   */\ntag_48:\n    /* \"#utility.yul\":751:753   */\n  0x20\n    /* \"#utility.yul\":743:749   */\n  dup3\n    /* \"#utility.yul\":740:754   */\n  lt\n    /* \"#utility.yul\":720:738   */\n  dup2\n    /* \"#utility.yul\":717:755   */\n  sub\n    /* \"#utility.yul\":714:798   */\n  tag_49\n  jumpi\n    /* \"#utility.yul\":770:788   */\n  tag_50\n  tag_26\n  jump\t// in\ntag_50:\n    /* \"#utility.yul\":714:798   */\ntag_49:\n    /* \"#utility.yul\":535:804   */\n  pop\n    /* \"#utility.yul\":484:804   */\n  swap2\n  swap1\n  pop\n  jump\t// out\n    /* \"#utility.yul\":810:951   */\ntag_27:\n    /* \"#utility.yul\":859:863   */\n  0x00\n    /* \"#utility.yul\":882:885   */\n  dup2\n    /* \"#utility.yul\":874:885   */\n  swap1\n  pop\n    /* \"#utility.yul\":905:908   */\n  dup2\n    /* \"#utility.yul\":902:903   */\n  0x00\n    /* \"#utility.yul\":895:909   */\n  mstore\n    /* \"#utility.yul\":939:943   */\n  0x20\n    /* \"#utility.yul\":936:937   */\n  0x00\n    /* \"#utility.yul\":926:944   */\n  keccak256\n    /* \"#utility.yul\":918:944   */\n  swap1\n  pop\n    /* \"#utility.yul\":810:951   */\n  swap2\n  swap1\n  pop\n  jump\t// out\n    /* \"#utility.yul\":957:1050   */\ntag_28:\n    /* \"#utility.yul\":994:1000   */\n  0x00\n    /* \"#utility.yul\":1041:1043   */\n  0x20\n    /* \"#utility.yul\":1036:1038   */\n  0x1f\n    /* \"#utility.yul\":1029:1034   */\n  dup4\n    /* \"#utility.yul\":1025:1039   */\n  add\n    /* \"#utility.yul\":1021:1044   */\n  div\n    /* \"#utility.yul\":1011:1044   */\n  swap1\n  pop\n    /* \"#utility.yul\":957:1050   */\n  swap2\n  swap1\n  pop\n  jump\t// out\n    /* \"#utility.yul\":1056:1163   */\ntag_29:\n    /* \"#utility.yul\":1100:1108   */\n  0x00\n    /* \"#utility.yul\":1150:1155   */\n  dup3\n    /* \"#utility.yul\":1144:1148   */\n  dup3\n    /* \"#utility.yul\":1140:1156   */\n  shl\n    /* \"#utility.yul\":1119:1156   */\n  swap1\n  pop\n    /* \"#utility.yul\":1056:1163   */\n  swap3\n  swap2\n  pop\n  pop\n  jump\t// out\n    /* \"#utility.yul\":1169:1562   */\ntag_30:\n    /* \"#utility.yul\":1238:1244   */\n  0x00\n    /* \"#utility.yul\":1288:1289   */\n  0x08\n    /* \"#utility.yul\":1276:1286   */\n  dup4\n    /* \"#utility.yul\":1272:1290   */\n  mul\n    /* \"#utility.yul\":1311:1408   */\n  tag_55\n    /* \"#utility.yul\":1341:1407   */\n  0xffffffffffffffffffffffffffffffffffffffffffffffffffffffffffffffff\n    /* \"#utility.yul\":1330:1339   */\n  dup3\n    /* \"#utility.yul\":1311:1408   */\n  tag_29\n  jump\t// in\ntag_55:\n    /* \"#utility.yul\":1429:1468   */\n  tag_56\n    /* \"#utility.yul\":1459:1467   */\n  dup7\n    /* \"#utility.yul\":1448:1457   */\n  dup4\n    /* \"#utility.yul\":1429:1468   */\n  tag_29\n  jump\t// in\ntag_56:\n    /* \"#utility.yul\":1417:1468   */\n  swap6\n  pop\n    /* \"#utility.yul\":1501:1505   */\n  dup1\n    /* \"#utility.yul\":1497:1506   */\n  not\n    /* \"#utility.yul\":1490:1495   */\n  dup5\n    /* \"#utility.yul\":1486:1507   */\n  and\n    /* \"#utility.yul\":1477:1507   */\n  swap4\n  pop\n    /* \"#utility.yul\":1550:1554   */\n  dup1\n    /* \"#utility.yul\":1540:1548   */\n  dup7\n    /* \"#utility.yul\":1536:1555   */\n  and\n    /* \"#utility.yul\":1529:1534   */\n  dup5\n    /* \"#utility.yul\":1526:1556   */\n  or\n    /* \"#utility.yul\":1516:1556   */\n  swap3\n  pop\n    /* \"#utility.yul\":1245:1562   */\n  pop\n  pop\n    /* \"#utility.yul\":1169:1562   */\n  swap4\n  swap3\n  pop\n  pop\n  pop\n  jump\t// out\n    /* \"#utility.yul\":1568:1645   */\ntag_31:\n    /* \"#utility.yul\":1605:1612   */\n  0x00\n    /* \"#utility.yul\":1634:1639   */\n  dup2\n    /* \"#utility.yul\":1623:1639   */\n  swap1\n  pop\n    /* \"#utility.yul\":1568:1645   */\n  swap2\n  swap1\n  pop\n  jump\t// out\n    /* \"#utility.yul\":1651:1711   */\ntag_32:\n    /* \"#utility.yul\":1679:1682   */\n  0x00\n    /* \"#utility.yul\":1700:1705   */\n  dup2\n    /* \"#utility.yul\":1693:1705   */\n  swap1\n  pop\n    /* \"#utility.yul\":1651:1711   */\n  swap2\n  swap1\n  pop\n  jump\t// out\n    /* \"#utility.yul\":1717:1859   */\ntag_33:\n    /* \"#utility.yul\":1767:1776   */\n  0x00\n    /* \"#utility.yul\":1800:1853   */\n  tag_60\n    /* \"#utility.yul\":1818:1852   */\n  tag_61\n    /* \"#utility.yul\":1827:1851   */\n  tag_62\n    /* \"#utility.yul\":1845:1850   */\n  dup5\n    /* \"#utility.yul\":1827:1851   */\n  tag_31\n  jump\t// in\ntag_62:\n    /* \"#utility.yul\":1818:1852   */\n  tag_32\n  jump\t// in\ntag_61:\n    /* \"#utility.yul\":1800:1853   */\n  tag_31\n  jump\t// in\ntag_60:\n    /* \"#utility.yul\":1787:1853   */\n  swap1\n  pop\n    /* \"#utility.yul\":1717:1859   */\n  swap2\n  swap1\n  pop\n  jump\t// out\n    /* \"#utility.yul\":1865:1940   */\ntag_34:\n    /* \"#utility.yul\":1908:1911   */\n  0x00\n    /* \"#utility.yul\":1929:1934   */\n  dup2\n    /* \"#utility.yul\":1922:1934   */\n  swap1\n  pop\n    /* \"#utility.yul\":1865:1940   */\n  swap2\n  swap1\n  pop\n  jump\t// out\n    /* \"#utility.yul\":1946:2215   */\ntag_35:\n    /* \"#utility.yul\":2056:2095   */\n  tag_65\n    /* \"#utility.yul\":2087:2094   */\n  dup4\n    /* \"#utility.yul\":2056:2095   */\n  tag_33\n  jump\t// in\ntag_65:\n    /* \"#utility.yul\":2117:2208   */\n  tag_66\n    /* \"#utility.yul\":2166:2207   */\n  tag_67\n    /* \"#utility.yul\":2190:2206   */\n  dup3\n    /* \"#utility.yul\":2166:2207   */\n  tag_34\n  jump\t// in\ntag_67:\n    /* \"#utility.yul\":2158:2164   */\n  dup5\n    /* \"#utility.yul\":2151:2155   */\n  dup5\n    /* \"#utility.yul\":2145:2156   */\n  sload\n    /* \"#utility.yul\":2117:2208   */\n  tag_30\n  jump\t// in\ntag_66:\n    /* \"#utility.yul\":2111:2115   */\n  dup3\n    /* \"#utility.yul\":2104:2209   */\n  sstore\n    /* \"#utility.yul\":2022:2215   */\n  pop\n    /* \"#utility.yul\":1946:2215   */\n  pop\n  pop\n  pop\n  jump\t// out\n    /* \"#utility.yul\":2221:2294   */\ntag_36:\n    /* \"#utility.yul\":2266:2269   */\n  0x00\n    /* \"#utility.yul\":2221:2294   */\n  swap1\n  jump\t// out\n    /* \"#utility.yul\":2300:2489   */\ntag_37:\n    /* \"#utility.yul\":2377:2409   */\n  tag_70\n  tag_36\n  jump\t// in\ntag_70:\n    /* \"#utility.yul\":2418:2483   */\n  tag_71\n    /* \"#utility.yul\":2476:2482   */\n  dup2\n    /* \"#utility.yul\":2468:2474   */\n  dup5\n    /* \"#utility.yul\":2462:2466   */\n  dup5\n    /* \"#utility.yul\":2418:2483   */\n  tag_35\n  jump\t// in\ntag_71:\n    /* \"#utility.yul\":2353:2489   */\n  pop\n    /* \"#utility.yul\":2300:2489   */\n  pop\n  pop\n  jump\t// out\n    /* \"#utility.yul\":2495:2681   */\ntag_38:\n    /* \"#utility.yul\":2555:2675   */\ntag_73:\n    /* \"#utility.yul\":2572:2575   */\n  dup2\n    /* \"#utility.yul\":2565:2570   */\n  dup2\n    /* \"#utility.yul\":2562:2576   */\n  lt\n    /* \"#utility.yul\":2555:2675   */\n  iszero\n  tag_75\n  jumpi\n    /* \"#utility.yul\":2626:2665   */\n  tag_76\n    /* \"#utility.yul\":2663:2664   */\n  0x00\n    /* \"#utility.yul\":2656:2661   */\n  dup3\n    /* \"#utility.yul\":2626:2665   */\n  tag_37\n  jump\t// in\ntag_76:\n    /* \"#utility.yul\":2599:2600   */\n  0x01\n    /* \"#utility.yul\":2592:2597   */\n  dup2\n    /* \"#utility.yul\":2588:2601   */\n  add\n    /* \"#utility.yul\":2579:2601   */\n  swap1\n  pop\n    /* \"#utility.yul\":2555:2675   */\n  jump(tag_73)\ntag_75:\n    /* \"#utility.yul\":2495:2681   */\n  pop\n  pop\n  jump\t// out\n    /* \"#utility.yul\":2687:3230   */\ntag_39:\n    /* \"#utility.yul\":2788:2790   */\n  0x1f\n    /* \"#utility.yul\":2783:2786   */\n  dup3\n    /* \"#utility.yul\":2780:2791   */\n  gt\n    /* \"#utility.yul\":2777:3223   */\n  iszero\n  tag_78\n  jumpi\n    /* \"#utility.yul\":2822:2860   */\n  tag_79\n    /* \"#utility.yul\":2854:2859   */\n  dup2\n    /* \"#utility.yul\":2822:2860   */\n  tag_27\n  jump\t// in\ntag_79:\n    /* \"#utility.yul\":2906:2935   */\n  tag_80\n    /* \"#utility.yul\":2924:2934   */\n  dup5\n    /* \"#utility.yul\":2906:2935   */\n  tag_28\n  jump\t// in\ntag_80:\n    /* \"#utility.yul\":2896:2904   */\n  dup2\n    /* \"#utility.yul\":2892:2936   */\n  add\n    /* \"#utility.yul\":3089:3091   */\n  0x20\n    /* \"#utility.yul\":3077:3087   */\n  dup6\n    /* \"#utility.yul\":3074:3092   */\n  lt\n    /* \"#utility.yul\":3071:3120   */\n  iszero\n  tag_81\n  jumpi\n    /* \"#utility.yul\":3110:3118   */\n  dup2\n    /* \"#utility.yul\":3095:3118   */\n  swap1\n  pop\n    /* \"#utility.yul\":3071:3120   */\ntag_81:\n    /* \"#utility.yul\":3133:3213   */\n  tag_82\n    /* \"#utility.yul\":3189:3211   */\n  tag_83\n    /* \"#utility.yul\":3207:3210   */\n  dup6\n    /* \"#utility.yul\":3189:3211   */\n  tag_28\n  jump\t// in\ntag_83:\n    /* \"#utility.yul\":3179:3187   */\n  dup4\n    /* \"#utility.yul\":3175:3212   */\n  add\n    /* \"#utility.yul\":3162:3173   */\n  dup3\n    /* \"#utility.yul\":3133:3213   */\n  tag_38\n  jump\t// in\ntag_82:\n    /* \"#utility.yul\":2792:3223   */\n  pop\n  pop\n    /* \"#utility.yul\":2777:3223   */\ntag_78:\n    /* \"#utility.yul\":2687:3230   */\n  pop\n  pop\n  pop\n  jump\t// out\n    /* \"#utility.yul\":3236:3353   */\ntag_40:\n    /* \"#utility.yul\":3290:3298   */\n  0x00\n    /* \"#utility.yul\":3340:3345   */\n  dup3\n    /* \"#utility.yul\":3334:3338   */\n  dup3\n    /* \"#utility.yul\":3330:3346   */\n  shr\n    /* \"#utility.yul\":3309:3346   */\n  swap1\n  pop\n    /* \"#utility.yul\":3236:3353   */\n  swap3\n  swap2\n  pop\n  pop\n  jump\t// out\n    /* \"#utility.yul\":3359:3528   */\ntag_41:\n    /* \"#utility.yul\":3403:3409   */\n  0x00\n    /* \"#utility.yul\":3436:3487   */\n  tag_86\n    /* \"#utility.yul\":3484:3485   */\n  0x00\n    /* \"#utility.yul\":3480:3486   */\n  not\n    /* \"#utility.yul\":3472:3477   */\n  dup5\n    /* \"#utility.yul\":3469:3470   */\n  0x08\n    /* \"#utility.yul\":3465:3478   */\n  mul\n    /* \"#utility.yul\":3436:3487   */\n  tag_40\n  jump\t// in\ntag_86:\n    /* \"#utility.yul\":3432:3488   */\n  not\n    /* \"#utility.yul\":3517:3521   */\n  dup1\n    /* \"#utility.yul\":3511:3515   */\n  dup4\n    /* \"#utility.yul\":3507:3522   */\n  and\n    /* \"#utility.yul\":3497:3522   */\n  swap2\n  pop\n    /* \"#utility.yul\":3410:3528   */\n  pop\n    /* \"#utility.yul\":3359:3528   */\n  swap3\n  swap2\n  pop\n  pop\n  jump\t// out\n    /* \"#utility.yul\":3533:3828   */\ntag_42:\n    /* \"#utility.yul\":3609:3613   */\n  0x00\n    /* \"#utility.yul\":3755:3784   */\n  tag_88\n    /* \"#utility.yul\":3780:3783   */\n  dup4\n    /* \"#utility.yul\":3774:3778   */\n  dup4\n    /* \"#utility.yul\":3755:3784   */\n  tag_41\n  jump\t// in\ntag_88:\n    /* \"#utility.yul\":3747:3784   */\n  swap2\n  pop\n    /* \"#utility.yul\":3817:3820   */\n  dup3\n    /* \"#utility.yul\":3814:3815   */\n  0x02\n    /* \"#utility.yul\":3810:3821   */\n  mul\n    /* \"#utility.yul\":3804:3808   */\n  dup3\n    /* \"#utility.yul\":3801:3822   */\n  or\n    /* \"#utility.yul\":3793:3822   */\n  swap1\n  pop\n    /* \"#utility.yul\":3533:3828   */\n  swap3\n  swap2\n  pop\n  pop\n  jump\t// out\n    /* \"#utility.yul\":3833:5228   */\ntag_9:\n    /* \"#utility.yul\":3950:3987   */\n  tag_90\n    /* \"#utility.yul\":3983:3986   */\n  dup3\n    /* \"#utility.yul\":3950:3987   */\n  tag_24\n  jump\t// in\ntag_90:\n    /* \"#utility.yul\":4052:4070   */\n  0xffffffffffffffff\n    /* \"#utility.yul\":4044:4050   */\n  dup2\n    /* \"#utility.yul\":4041:4071   */\n  gt\n    /* \"#utility.yul\":4038:4094   */\n  iszero\n  tag_91\n  jumpi\n    /* \"#utility.yul\":4074:4092   */\n  tag_92\n  tag_25\n  jump\t// in\ntag_92:\n    /* \"#utility.yul\":4038:4094   */\ntag_91:\n    /* \"#utility.yul\":4118:4156   */\n  tag_93\n    /* \"#utility.yul\":4150:4154   */\n  dup3\n    /* \"#utility.yul\":4144:4155   */\n  sload\n    /* \"#utility.yul\":4118:4156   */\n  tag_17\n  jump\t// in\ntag_93:\n    /* \"#utility.yul\":4203:4270   */\n  tag_94\n    /* \"#utility.yul\":4263:4269   */\n  dup3\n    /* \"#utility.yul\":4255:4261   */\n  dup3\n    /* \"#utility.yul\":4249:4253   */\n  dup6\n    /* \"#utility.yul\":4203:4270   */\n  tag_39\n  jump\t// in\ntag_94:\n    /* \"#utility.yul\":4297:4298   */\n  0x00\n    /* \"#utility.yul\":4321:4325   */\n  0x20\n    /* \"#utility.yul\":4308:4325   */\n  swap1\n  pop\n    /* \"#utility.yul\":4353:4355   */\n  0x1f\n    /* \"#utility.yul\":4345:4351   */\n  dup4\n    /* \"#utility.yul\":4342:4356   */\n  gt\n    /* \"#utility.yul\":4370:4371   */\n  0x01\n    /* \"#utility.yul\":4365:4983   */\n  dup2\n  eq\n  tag_96\n  jumpi\n    /* \"#utility.yul\":5027:5028   */\n  0x00\n    /* \"#utility.yul\":5044:5050   */\n  dup5\n    /* \"#utility.yul\":5041:5118   */\n  iszero\n  tag_97\n  jumpi\n    /* \"#utility.yul\":5093:5102   */\n  dup3\n    /* \"#utility.yul\":5088:5091   */\n  dup8\n    /* \"#utility.yul\":5084:5103   */\n  add\n    /* \"#utility.yul\":5078:5104   */\n  mload\n    /* \"#utility.yul\":5069:5104   */\n  swap1\n  pop\n    /* \"#utility.yul\":5041:5118   */\ntag_97:\n    /* \"#utility.yul\":5144:5211   */\n  tag_98\n    /* \"#utility.yul\":5204:5210   */\n  dup6\n    /* \"#utility.yul\":5197:5202   */\n  dup3\n    /* \"#utility.yul\":5144:5211   */\n  tag_42\n  jump\t// in\ntag_98:\n    /* \"#utility.yul\":5138:5142   */\n  dup7\n    /* \"#utility.yul\":5131:5212   */\n  sstore\n    /* \"#utility.yul\":5000:5222   */\n  pop\n    /* \"#utility.yul\":4335:5222   */\n  jump(tag_95)\n    /* \"#utility.yul\":4365:4983   */\ntag_96:\n    /* \"#utility.yul\":4417:4421   */\n  0x1f\n    /* \"#utility.yul\":4413:4422   */\n  not\n    /* \"#utility.yul\":4405:4411   */\n  dup5\n    /* \"#utility.yul\":4401:4423   */\n  and\n    /* \"#utility.yul\":4451:4488   */\n  tag_99\n    /* \"#utility.yul\":4483:4487   */\n  dup7\n    /* \"#utility.yul\":4451:4488   */\n  tag_27\n  jump\t// in\ntag_99:\n    /* \"#utility.yul\":4510:4511   */\n  0x00\n    /* \"#utility.yul\":4524:4732   */\ntag_100:\n    /* \"#utility.yul\":4538:4545   */\n  dup3\n    /* \"#utility.yul\":4535:4536   */\n  dup2\n    /* \"#utility.yul\":4532:4546   */\n  lt\n    /* \"#utility.yul\":4524:4732   */\n  iszero\n  tag_102\n  jumpi\n    /* \"#utility.yul\":4617:4626   */\n  dup5\n    /* \"#utility.yul\":4612:4615   */\n  dup10\n    /* \"#utility.yul\":4608:4627   */\n  add\n    /* \"#utility.yul\":4602:4628   */\n  mload\n    /* \"#utility.yul\":4594:4600   */\n  dup3\n    /* \"#utility.yul\":4587:4629   */\n  sstore\n    /* \"#utility.yul\":4668:4669   */\n  0x01\n    /* \"#utility.yul\":4660:4666   */\n  dup3\n    /* \"#utility.yul\":4656:4670   */\n  add\n    /* \"#utility.yul\":4646:4670   */\n  swap2\n  pop\n    /* \"#utility.yul\":4715:4717   */\n  0x20\n    /* \"#utility.yul\":4704:4713   */\n  dup6\n    /* \"#utility.yul\":4700:4718   */\n  add\n    /* \"#utility.yul\":4687:4718   */\n  swap5\n  pop\n    /* \"#utility.yul\":4561:4565   */\n  0x20\n    /* \"#utility.yul\":4558:4559   */\n  dup2\n    /* \"#utility.yul\":4554:4566   */\n  add\n    /* \"#utility.yul\":4549:4566   */\n  swap1\n  pop\n    /* \"#utility.yul\":4524:4732   */\n  jump(tag_100)\ntag_102:\n    /* \"#utility.yul\":4760:4766   */\n  dup7\n    /* \"#utility.yul\":4751:4758   */\n  dup4\n    /* \"#utility.yul\":4748:4767   */\n  lt\n    /* \"#utility.yul\":4745:4924   */\n  iszero\n  tag_103\n  jumpi\n    /* \"#utility.yul\":4818:4827   */\n  dup5\n    /* \"#utility.yul\":4813:4816   */\n  dup10\n    /* \"#utility.yul\":4809:4828   */\n  add\n    /* \"#utility.yul\":4803:4829   */\n  mload\n    /* \"#utility.yul\":4861:4909   */\n  tag_104\n    /* \"#utility.yul\":4903:4907   */\n  0x1f\n    /* \"#utility.yul\":4895:4901   */\n  dup10\n    /* \"#utility.yul\":4891:4908   */\n  and\n    /* \"#utility.yul\":4880:4889   */\n  dup3\n    /* \"#utility.yul\":4861:4909   */\n  tag_41\n  jump\t// in\ntag_104:\n    /* \"#utility.yul\":4853:4859   */\n  dup4\n    /* \"#utility.yul\":4846:4910   */\n  sstore\n    /* \"#utility.yul\":4768:4924   */\n  pop\n    /* \"#utility.yul\":4745:4924   */\ntag_103:\n    /* \"#utility.yul\":4970:4971   */\n  0x01\n    /* \"#utility.yul\":4966:4967   */\n  0x02\n    /* \"#utility.yul\":4958:4964   */\n  dup9\n    /* \"#utility.yul\":4954:4968   */\n  mul\n    /* \"#utility.yul\":4950:4972   */\n  add\n    /* \"#utility.yul\":4944:4948   */\n  dup9\n    /* \"#utility.yul\":4937:4973   */\n  sstore\n    /* \"#utility.yul\":4372:4983   */\n  pop\n  pop\n  pop\n    /* \"#utility.yul\":4335:5222   */\ntag_95:\n  pop\n    /* \"#utility.yul\":3925:5228   */\n  pop\n  pop\n  pop\n    /* \"#utility.yul\":3833:5228   */\n  pop\n  pop\n  jump\t// out\n    /* \"contracts/duara.sol\":67:3672  contract DuaraVoting {... */\ntag_4:\n  dataSize(sub_0)\n  dup1\n  dataOffset(sub_0)\n  0x00\n  codecopy\n  0x00\n  return\nstop\n\nsub_0: assembly {\n        /* \"contracts/duara.sol\":67:3672  contract DuaraVoting {... */\n      mstore(0x40, 0x80)\n      callvalue\n      dup1\n      iszero\n      tag_1\n      jumpi\n      0x00\n      dup1\n      revert\n    tag_1:\n      pop\n      jumpi(tag_2, lt(calldatasize, 0x04))\n      shr(0xe0, calldataload(0x00))\n      dup1\n      0x805265e5\n      gt\n      tag_14\n      jumpi\n      dup1\n      0x805265e5\n      eq\n      tag_8\n      jumpi\n      dup1\n      0x8e7ea5b2\n      eq\n      tag_9\n      jumpi\n      dup1\n      0xb99ef1fa\n      eq\n      tag_10\n      jumpi\n      dup1\n      0xbbe15627\n      eq\n      tag_11\n      jumpi\n      dup1\n      0xc631b292\n      eq\n      tag_12\n      jumpi\n      dup1\n      0xfc36e15b\n      eq\n      tag_13\n      jumpi\n      jump(tag_2)\n    tag_14:\n      dup1\n      0x09eef43e\n      eq\n      tag_3\n      jumpi\n      dup1\n      0x2479ecb8\n      eq\n      tag_4\n      jumpi\n      dup1\n      0x3477ee2e\n      eq\n      tag_5\n      jumpi\n      dup1\n      0x441441d3\n      eq\n      tag_6\n      jumpi\n      dup1\n      0x6fbfbb9b\n      eq\n      tag_7\n      jumpi\n    tag_2:\n      0x00\n      dup1\n      revert\n        /* \"contracts/duara.sol\":513:553  mapping(address => bool) public hasVoted */\n    tag_3:\n      tag_15\n      0x04\n      dup1\n      calldatasize\n      sub\n      dup2\n      add\n      swap1\n      tag_16\n      swap2\n      swap1\n      tag_17\n      jump\t// in\n    tag_16:\n      tag_18\n      jump\t// in\n    tag_15:\n      mload(0x40)\n      tag_19\n      swap2\n      swap1\n      tag_20\n      jump\t// in\n    tag_19:\n      mload(0x40)\n      dup1\n      swap2\n      sub\n      swap1\n      return\n        /* \"contracts/duara.sol\":830:862  bool public votingClosed = false */\n    tag_4:\n      tag_21\n      tag_22\n      jump\t// in\n    tag_21:\n      mload(0x40)\n      tag_23\n      swap2\n      swap1\n      tag_20\n      jump\t// in\n    tag_23:\n      mload(0x40)\n      dup1\n      swap2\n      sub\n      swap1\n      return\n        /* \"contracts/duara.sol\":604:658  string[] public candidates = [\"Mary\", \"Jane\", \"Joyce\"] */\n    tag_5:\n      tag_24\n      0x04\n      dup1\n      calldatasize\n      sub\n      dup2\n      add\n      swap1\n      tag_25\n      swap2\n      swap1\n      tag_26\n      jump\t// in\n    tag_25:\n      tag_27\n      jump\t// in\n    tag_24:\n      mload(0x40)\n      tag_28\n      swap2\n      swap1\n      tag_29\n      jump\t// in\n    tag_28:\n      mload(0x40)\n      dup1\n      swap2\n      sub\n      swap1\n      return\n        /* \"contracts/duara.sol\":1172:1518  function login(uint256 _idNumber, uint256 _voterNumber) public view returns (bool) {... */\n    tag_6:\n      tag_30\n      0x04\n      dup1\n      calldatasize\n      sub\n      dup2\n      add\n      swap1\n      tag_31\n      swap2\n      swap1\n      tag_32\n      jump\t// in\n    tag_31:\n      tag_33\n      jump\t// in\n    tag_30:\n      mload(0x40)\n      tag_34\n      swap2\n      swap1\n      tag_20\n      jump\t// in\n    tag_34:\n      mload(0x40)\n      dup1\n      swap2\n      sub\n      swap1\n      return\n        /* \"contracts/duara.sol\":913:1086  function createProfile(string memory _name, uint256 _idNumber, uint256 _voterNumber) public {... */\n    tag_7:\n      tag_35\n      0x04\n      dup1\n      calldatasize\n      sub\n      dup2\n      add\n      swap1\n      tag_36\n      swap2\n      swap1\n      tag_37\n      jump\t// in\n    tag_36:\n      tag_38\n      jump\t// in\n    tag_35:\n      stop\n        /* \"contracts/duara.sol\":2794:2960  function getVotes(string memory _candidate) public view returns (uint256) {... */\n    tag_8:\n      tag_39\n      0x04\n      dup1\n      calldatasize\n      sub\n      dup2\n      add\n      swap1\n      tag_40\n      swap2\n      swap1\n      tag_41\n      jump\t// in\n    tag_40:\n      tag_42\n      jump\t// in\n    tag_39:\n      mload(0x40)\n      tag_43\n      swap2\n      swap1\n      tag_44\n      jump\t// in\n    tag_43:\n      mload(0x40)\n      dup1\n      swap2\n      sub\n      swap1\n      return\n        /* \"contracts/duara.sol\":3133:3669  function getWinner() public view returns (string memory) {... */\n    tag_9:\n      tag_45\n      tag_46\n      jump\t// in\n    tag_45:\n      mload(0x40)\n      tag_47\n      swap2\n      swap1\n      tag_29\n      jump\t// in\n    tag_47:\n      mload(0x40)\n      dup1\n      swap2\n      sub\n      swap1\n      return\n        /* \"contracts/duara.sol\":726:765  mapping(string => uint256) public votes */\n    tag_10:\n      tag_48\n      0x04\n      dup1\n      calldatasize\n      sub\n      dup2\n      add\n      swap1\n      tag_49\n      swap2\n      swap1\n      tag_41\n      jump\t// in\n    tag_49:\n      tag_50\n      jump\t// in\n    tag_48:\n      mload(0x40)\n      tag_51\n      swap2\n      swap1\n      tag_44\n      jump\t// in\n    tag_51:\n      mload(0x40)\n      dup1\n      swap2\n      sub\n      swap1\n      return\n        /* \"contracts/duara.sol\":403:446  mapping(address => Profile) public profiles */\n    tag_11:\n      tag_52\n      0x04\n      dup1\n      calldatasize\n      sub\n      dup2\n      add\n      swap1\n      tag_53\n      swap2\n      swap1\n      tag_17\n      jump\t// in\n    tag_53:\n      tag_54\n      jump\t// in\n    tag_52:\n      mload(0x40)\n      tag_55\n      swap4\n      swap3\n      swap2\n      swap1\n      tag_56\n      jump\t// in\n    tag_55:\n      mload(0x40)\n      dup1\n      swap2\n      sub\n      swap1\n      return\n        /* \"contracts/duara.sol\":3005:3073  function closeVoting() public {... */\n    tag_12:\n      tag_57\n      tag_58\n      jump\t// in\n    tag_57:\n      stop\n        /* \"contracts/duara.sol\":1583:2246  function vote(string memory _candidate) public {... */\n    tag_13:\n      tag_59\n      0x04\n      dup1\n      calldatasize\n      sub\n      dup2\n      add\n      swap1\n      tag_60\n      swap2\n      swap1\n      tag_41\n      jump\t// in\n    tag_60:\n      tag_61\n      jump\t// in\n    tag_59:\n      stop\n        /* \"contracts/duara.sol\":513:553  mapping(address => bool) public hasVoted */\n    tag_18:\n      mstore(0x20, 0x01)\n      dup1\n      0x00\n      mstore\n      keccak256(0x00, 0x40)\n      0x00\n      swap2\n      pop\n      sload\n      swap1\n      0x0100\n      exp\n      swap1\n      div\n      0xff\n      and\n      dup2\n      jump\t// out\n        /* \"contracts/duara.sol\":830:862  bool public votingClosed = false */\n    tag_22:\n      0x04\n      0x00\n      swap1\n      sload\n      swap1\n      0x0100\n      exp\n      swap1\n      div\n      0xff\n      and\n      dup2\n      jump\t// out\n        /* \"contracts/duara.sol\":604:658  string[] public candidates = [\"Mary\", \"Jane\", \"Joyce\"] */\n    tag_27:\n      0x02\n      dup2\n      dup2\n      sload\n      dup2\n      lt\n      tag_62\n      jumpi\n      0x00\n      dup1\n      revert\n    tag_62:\n      swap1\n      0x00\n      mstore\n      keccak256(0x00, 0x20)\n      add\n      0x00\n      swap2\n      pop\n      swap1\n      pop\n      dup1\n      sload\n      tag_64\n      swap1\n      tag_65\n      jump\t// in\n    tag_64:\n      dup1\n      0x1f\n      add\n      0x20\n      dup1\n      swap2\n      div\n      mul\n      0x20\n      add\n      mload(0x40)\n      swap1\n      dup2\n      add\n      0x40\n      mstore\n      dup1\n      swap3\n      swap2\n      swap1\n      dup2\n      dup2\n      mstore\n      0x20\n      add\n      dup3\n      dup1\n      sload\n      tag_66\n      swap1\n      tag_65\n      jump\t// in\n    tag_66:\n      dup1\n      iszero\n      tag_67\n      jumpi\n      dup1\n      0x1f\n      lt\n      tag_68\n      jumpi\n      0x0100\n      dup1\n      dup4\n      sload\n      div\n      mul\n      dup4\n      mstore\n      swap2\n      0x20\n      add\n      swap2\n      jump(tag_67)\n    tag_68:\n      dup3\n      add\n      swap2\n      swap1\n      0x00\n      mstore\n      keccak256(0x00, 0x20)\n      swap1\n    tag_69:\n      dup2\n      sload\n      dup2\n      mstore\n      swap1\n      0x01\n      add\n      swap1\n      0x20\n      add\n      dup1\n      dup4\n      gt\n      tag_69\n      jumpi\n      dup3\n      swap1\n      sub\n      0x1f\n      and\n      dup3\n      add\n      swap2\n    tag_67:\n      pop\n      pop\n      pop\n      pop\n      pop\n      dup2\n      jump\t// out\n        /* \"contracts/duara.sol\":1172:1518  function login(uint256 _idNumber, uint256 _voterNumber) public view returns (bool) {... */\n    tag_33:\n        /* \"contracts/duara.sol\":1249:1253  bool */\n      0x00\n        /* \"contracts/duara.sol\":1266:1288  Profile memory profile */\n      dup1\n        /* \"contracts/duara.sol\":1291:1299  profiles */\n      0x00\n        /* \"contracts/duara.sol\":1291:1311  profiles[msg.sender] */\n      dup1\n        /* \"contracts/duara.sol\":1300:1310  msg.sender */\n      caller\n        /* \"contracts/duara.sol\":1291:1311  profiles[msg.sender] */\n      0xffffffffffffffffffffffffffffffffffffffff\n      and\n      0xffffffffffffffffffffffffffffffffffffffff\n      and\n      dup2\n      mstore\n      0x20\n      add\n      swap1\n      dup2\n      mstore\n      0x20\n      add\n      0x00\n      keccak256\n        /* \"contracts/duara.sol\":1266:1311  Profile memory profile = profiles[msg.sender] */\n      mload(0x40)\n      dup1\n      0x60\n      add\n      0x40\n      mstore\n      swap1\n      dup2\n      0x00\n      dup3\n      add\n      dup1\n      sload\n      tag_71\n      swap1\n      tag_65\n      jump\t// in\n    tag_71:\n      dup1\n      0x1f\n      add\n      0x20\n      dup1\n      swap2\n      div\n      mul\n      0x20\n      add\n      mload(0x40)\n      swap1\n      dup2\n      add\n      0x40\n      mstore\n      dup1\n      swap3\n      swap2\n      swap1\n      dup2\n      dup2\n      mstore\n      0x20\n      add\n      dup3\n      dup1\n      sload\n      tag_72\n      swap1\n      tag_65\n      jump\t// in\n    tag_72:\n      dup1\n      iszero\n      tag_73\n      jumpi\n      dup1\n      0x1f\n      lt\n      tag_74\n      jumpi\n      0x0100\n      dup1\n      dup4\n      sload\n      div\n      mul\n      dup4\n      mstore\n      swap2\n      0x20\n      add\n      swap2\n      jump(tag_73)\n    tag_74:\n      dup3\n      add\n      swap2\n      swap1\n      0x00\n      mstore\n      keccak256(0x00, 0x20)\n      swap1\n    tag_75:\n      dup2\n      sload\n      dup2\n      mstore\n      swap1\n      0x01\n      add\n      swap1\n      0x20\n      add\n      dup1\n      dup4\n      gt\n      tag_75\n      jumpi\n      dup3\n      swap1\n      sub\n      0x1f\n      and\n      dup3\n      add\n      swap2\n    tag_73:\n      pop\n      pop\n      pop\n      pop\n      pop\n      dup2\n      mstore\n      0x20\n      add\n      0x01\n      dup3\n      add\n      sload\n      dup2\n      mstore\n      0x20\n      add\n      0x02\n      dup3\n      add\n      sload\n      dup2\n      mstore\n      pop\n      pop\n      swap1\n      pop\n        /* \"contracts/duara.sol\":1461:1470  _idNumber */\n      dup4\n        /* \"contracts/duara.sol\":1441:1448  profile */\n      dup2\n        /* \"contracts/duara.sol\":1441:1457  profile.idNumber */\n      0x20\n      add\n      mload\n        /* \"contracts/duara.sol\":1441:1470  profile.idNumber == _idNumber */\n      eq\n        /* \"contracts/duara.sol\":1441:1509  profile.idNumber == _idNumber && profile.voterNumber == _voterNumber */\n      dup1\n      iszero\n      tag_76\n      jumpi\n      pop\n        /* \"contracts/duara.sol\":1497:1509  _voterNumber */\n      dup3\n        /* \"contracts/duara.sol\":1474:1481  profile */\n      dup2\n        /* \"contracts/duara.sol\":1474:1493  profile.voterNumber */\n      0x40\n      add\n      mload\n        /* \"contracts/duara.sol\":1474:1509  profile.voterNumber == _voterNumber */\n      eq\n        /* \"contracts/duara.sol\":1441:1509  profile.idNumber == _idNumber && profile.voterNumber == _voterNumber */\n    tag_76:\n        /* \"contracts/duara.sol\":1433:1510  return (profile.idNumber == _idNumber && profile.voterNumber == _voterNumber) */\n      swap2\n      pop\n      pop\n        /* \"contracts/duara.sol\":1172:1518  function login(uint256 _idNumber, uint256 _voterNumber) public view returns (bool) {... */\n      swap3\n      swap2\n      pop\n      pop\n      jump\t// out\n        /* \"contracts/duara.sol\":913:1086  function createProfile(string memory _name, uint256 _idNumber, uint256 _voterNumber) public {... */\n    tag_38:\n        /* \"contracts/duara.sol\":1039:1078  Profile(_name, _idNumber, _voterNumber) */\n      mload(0x40)\n      dup1\n      0x60\n      add\n      0x40\n      mstore\n      dup1\n        /* \"contracts/duara.sol\":1047:1052  _name */\n      dup5\n        /* \"contracts/duara.sol\":1039:1078  Profile(_name, _idNumber, _voterNumber) */\n      dup2\n      mstore\n      0x20\n      add\n        /* \"contracts/duara.sol\":1054:1063  _idNumber */\n      dup4\n        /* \"contracts/duara.sol\":1039:1078  Profile(_name, _idNumber, _voterNumber) */\n      dup2\n      mstore\n      0x20\n      add\n        /* \"contracts/duara.sol\":1065:1077  _voterNumber */\n      dup3\n        /* \"contracts/duara.sol\":1039:1078  Profile(_name, _idNumber, _voterNumber) */\n      dup2\n      mstore\n      pop\n        /* \"contracts/duara.sol\":1016:1024  profiles */\n      0x00\n        /* \"contracts/duara.sol\":1016:1036  profiles[msg.sender] */\n      dup1\n        /* \"contracts/duara.sol\":1025:1035  msg.sender */\n      caller\n        /* \"contracts/duara.sol\":1016:1036  profiles[msg.sender] */\n      0xffffffffffffffffffffffffffffffffffffffff\n      and\n      0xffffffffffffffffffffffffffffffffffffffff\n      and\n      dup2\n      mstore\n      0x20\n      add\n      swap1\n      dup2\n      mstore\n      0x20\n      add\n      0x00\n      keccak256\n        /* \"contracts/duara.sol\":1016:1078  profiles[msg.sender] = Profile(_name, _idNumber, _voterNumber) */\n      0x00\n      dup3\n      add\n      mload\n      dup2\n      0x00\n      add\n      swap1\n      dup2\n      tag_78\n      swap2\n      swap1\n      tag_79\n      jump\t// in\n    tag_78:\n      pop\n      0x20\n      dup3\n      add\n      mload\n      dup2\n      0x01\n      add\n      sstore\n      0x40\n      dup3\n      add\n      mload\n      dup2\n      0x02\n      add\n      sstore\n      swap1\n      pop\n      pop\n        /* \"contracts/duara.sol\":913:1086  function createProfile(string memory _name, uint256 _idNumber, uint256 _voterNumber) public {... */\n      pop\n      pop\n      pop\n      jump\t// out\n        /* \"contracts/duara.sol\":2794:2960  function getVotes(string memory _candidate) public view returns (uint256) {... */\n    tag_42:\n        /* \"contracts/duara.sol\":2859:2866  uint256 */\n      0x00\n        /* \"contracts/duara.sol\":2886:2891  votes */\n      0x03\n        /* \"contracts/duara.sol\":2892:2902  _candidate */\n      dup3\n        /* \"contracts/duara.sol\":2886:2903  votes[_candidate] */\n      mload(0x40)\n      tag_81\n      swap2\n      swap1\n      tag_82\n      jump\t// in\n    tag_81:\n      swap1\n      dup2\n      mstore\n      0x20\n      add\n      mload(0x40)\n      dup1\n      swap2\n      sub\n      swap1\n      keccak256\n      sload\n        /* \"contracts/duara.sol\":2879:2903  return votes[_candidate] */\n      swap1\n      pop\n        /* \"contracts/duara.sol\":2794:2960  function getVotes(string memory _candidate) public view returns (uint256) {... */\n      swap2\n      swap1\n      pop\n      jump\t// out\n        /* \"contracts/duara.sol\":3133:3669  function getWinner() public view returns (string memory) {... */\n    tag_46:\n        /* \"contracts/duara.sol\":3175:3188  string memory */\n      0x60\n        /* \"contracts/duara.sol\":3209:3221  votingClosed */\n      0x04\n      0x00\n      swap1\n      sload\n      swap1\n      0x0100\n      exp\n      swap1\n      div\n      0xff\n      and\n        /* \"contracts/duara.sol\":3201:3251  require(votingClosed, \"Voting is not closed yet.\") */\n      tag_84\n      jumpi\n      mload(0x40)\n      0x08c379a000000000000000000000000000000000000000000000000000000000\n      dup2\n      mstore\n      0x04\n      add\n      tag_85\n      swap1\n      tag_86\n      jump\t// in\n    tag_85:\n      mload(0x40)\n      dup1\n      swap2\n      sub\n      swap1\n      revert\n    tag_84:\n        /* \"contracts/duara.sol\":3295:3315  string memory winner */\n      0x60\n        /* \"contracts/duara.sol\":3326:3346  uint256 highestVotes */\n      0x00\n        /* \"contracts/duara.sol\":3368:3377  uint256 i */\n      dup1\n        /* \"contracts/duara.sol\":3363:3589  for (uint256 i = 0; i < candidates.length; i++) {... */\n    tag_87:\n        /* \"contracts/duara.sol\":3387:3397  candidates */\n      0x02\n        /* \"contracts/duara.sol\":3387:3404  candidates.length */\n      dup1\n      sload\n      swap1\n      pop\n        /* \"contracts/duara.sol\":3383:3384  i */\n      dup2\n        /* \"contracts/duara.sol\":3383:3404  i < candidates.length */\n      lt\n        /* \"contracts/duara.sol\":3363:3589  for (uint256 i = 0; i < candidates.length; i++) {... */\n      iszero\n      tag_88\n      jumpi\n        /* \"contracts/duara.sol\":3453:3465  highestVotes */\n      dup2\n        /* \"contracts/duara.sol\":3430:3435  votes */\n      0x03\n        /* \"contracts/duara.sol\":3436:3446  candidates */\n      0x02\n        /* \"contracts/duara.sol\":3447:3448  i */\n      dup4\n        /* \"contracts/duara.sol\":3436:3449  candidates[i] */\n      dup2\n      sload\n      dup2\n      lt\n      tag_90\n      jumpi\n      tag_91\n      tag_92\n      jump\t// in\n    tag_91:\n    tag_90:\n      swap1\n      0x00\n      mstore\n      keccak256(0x00, 0x20)\n      add\n        /* \"contracts/duara.sol\":3430:3450  votes[candidates[i]] */\n      mload(0x40)\n      tag_94\n      swap2\n      swap1\n      tag_95\n      jump\t// in\n    tag_94:\n      swap1\n      dup2\n      mstore\n      0x20\n      add\n      mload(0x40)\n      dup1\n      swap2\n      sub\n      swap1\n      keccak256\n      sload\n        /* \"contracts/duara.sol\":3430:3465  votes[candidates[i]] > highestVotes */\n      gt\n        /* \"contracts/duara.sol\":3426:3578  if (votes[candidates[i]] > highestVotes) {... */\n      iszero\n      tag_96\n      jumpi\n        /* \"contracts/duara.sol\":3501:3506  votes */\n      0x03\n        /* \"contracts/duara.sol\":3507:3517  candidates */\n      0x02\n        /* \"contracts/duara.sol\":3518:3519  i */\n      dup3\n        /* \"contracts/duara.sol\":3507:3520  candidates[i] */\n      dup2\n      sload\n      dup2\n      lt\n      tag_97\n      jumpi\n      tag_98\n      tag_92\n      jump\t// in\n    tag_98:\n    tag_97:\n      swap1\n      0x00\n      mstore\n      keccak256(0x00, 0x20)\n      add\n        /* \"contracts/duara.sol\":3501:3521  votes[candidates[i]] */\n      mload(0x40)\n      tag_100\n      swap2\n      swap1\n      tag_95\n      jump\t// in\n    tag_100:\n      swap1\n      dup2\n      mstore\n      0x20\n      add\n      mload(0x40)\n      dup1\n      swap2\n      sub\n      swap1\n      keccak256\n      sload\n        /* \"contracts/duara.sol\":3486:3521  highestVotes = votes[candidates[i]] */\n      swap2\n      pop\n        /* \"contracts/duara.sol\":3549:3559  candidates */\n      0x02\n        /* \"contracts/duara.sol\":3560:3561  i */\n      dup2\n        /* \"contracts/duara.sol\":3549:3562  candidates[i] */\n      dup2\n      sload\n      dup2\n      lt\n      tag_101\n      jumpi\n      tag_102\n      tag_92\n      jump\t// in\n    tag_102:\n    tag_101:\n      swap1\n      0x00\n      mstore\n      keccak256(0x00, 0x20)\n      add\n        /* \"contracts/duara.sol\":3540:3562  winner = candidates[i] */\n      dup1\n      sload\n      tag_104\n      swap1\n      tag_65\n      jump\t// in\n    tag_104:\n      dup1\n      0x1f\n      add\n      0x20\n      dup1\n      swap2\n      div\n      mul\n      0x20\n      add\n      mload(0x40)\n      swap1\n      dup2\n      add\n      0x40\n      mstore\n      dup1\n      swap3\n      swap2\n      swap1\n      dup2\n      dup2\n      mstore\n      0x20\n      add\n      dup3\n      dup1\n      sload\n      tag_105\n      swap1\n      tag_65\n      jump\t// in\n    tag_105:\n      dup1\n      iszero\n      tag_106\n      jumpi\n      dup1\n      0x1f\n      lt\n      tag_107\n      jumpi\n      0x0100\n      dup1\n      dup4\n      sload\n      div\n      mul\n      dup4\n      mstore\n      swap2\n      0x20\n      add\n      swap2\n      jump(tag_106)\n    tag_107:\n      dup3\n      add\n      swap2\n      swap1\n      0x00\n      mstore\n      keccak256(0x00, 0x20)\n      swap1\n    tag_108:\n      dup2\n      sload\n      dup2\n      mstore\n      swap1\n      0x01\n      add\n      swap1\n      0x20\n      add\n      dup1\n      dup4\n      gt\n      tag_108\n      jumpi\n      dup3\n      swap1\n      sub\n      0x1f\n      and\n      dup3\n      add\n      swap2\n    tag_106:\n      pop\n      pop\n      pop\n      pop\n      pop\n      swap3\n      pop\n        /* \"contracts/duara.sol\":3426:3578  if (votes[candidates[i]] > highestVotes) {... */\n    tag_96:\n        /* \"contracts/duara.sol\":3406:3409  i++ */\n      dup1\n      dup1\n      0x01\n      add\n      swap2\n      pop\n      pop\n        /* \"contracts/duara.sol\":3363:3589  for (uint256 i = 0; i < candidates.length; i++) {... */\n      jump(tag_87)\n    tag_88:\n      pop\n        /* \"contracts/duara.sol\":3608:3614  winner */\n      dup2\n        /* \"contracts/duara.sol\":3601:3614  return winner */\n      swap3\n      pop\n      pop\n      pop\n        /* \"contracts/duara.sol\":3133:3669  function getWinner() public view returns (string memory) {... */\n      swap1\n      jump\t// out\n        /* \"contracts/duara.sol\":726:765  mapping(string => uint256) public votes */\n    tag_50:\n      0x03\n      dup2\n      dup1\n      mload\n      0x20\n      dup2\n      add\n      dup3\n      add\n      dup1\n      mload\n      dup5\n      dup3\n      mstore\n      0x20\n      dup4\n      add\n      0x20\n      dup6\n      add\n      keccak256\n      dup2\n      dup4\n      mstore\n      dup1\n      swap6\n      pop\n      pop\n      pop\n      pop\n      pop\n      pop\n      0x00\n      swap2\n      pop\n      swap1\n      pop\n      sload\n      dup2\n      jump\t// out\n        /* \"contracts/duara.sol\":403:446  mapping(address => Profile) public profiles */\n    tag_54:\n      mstore(0x20, 0x00)\n      dup1\n      0x00\n      mstore\n      keccak256(0x00, 0x40)\n      0x00\n      swap2\n      pop\n      swap1\n      pop\n      dup1\n      0x00\n      add\n      dup1\n      sload\n      tag_109\n      swap1\n      tag_65\n      jump\t// in\n    tag_109:\n      dup1\n      0x1f\n      add\n      0x20\n      dup1\n      swap2\n      div\n      mul\n      0x20\n      add\n      mload(0x40)\n      swap1\n      dup2\n      add\n      0x40\n      mstore\n      dup1\n      swap3\n      swap2\n      swap1\n      dup2\n      dup2\n      mstore\n      0x20\n      add\n      dup3\n      dup1\n      sload\n      tag_110\n      swap1\n      tag_65\n      jump\t// in\n    tag_110:\n      dup1\n      iszero\n      tag_111\n      jumpi\n      dup1\n      0x1f\n      lt\n      tag_112\n      jumpi\n      0x0100\n      dup1\n      dup4\n      sload\n      div\n      mul\n      dup4\n      mstore\n      swap2\n      0x20\n      add\n      swap2\n      jump(tag_111)\n    tag_112:\n      dup3\n      add\n      swap2\n      swap1\n      0x00\n      mstore\n      keccak256(0x00, 0x20)\n      swap1\n    tag_113:\n      dup2\n      sload\n      dup2\n      mstore\n      swap1\n      0x01\n      add\n      swap1\n      0x20\n      add\n      dup1\n      dup4\n      gt\n      tag_113\n      jumpi\n      dup3\n      swap1\n      sub\n      0x1f\n      and\n      dup3\n      add\n      swap2\n    tag_111:\n      pop\n      pop\n      pop\n      pop\n      pop\n      swap1\n      dup1\n      0x01\n      add\n      sload\n      swap1\n      dup1\n      0x02\n      add\n      sload\n      swap1\n      pop\n      dup4\n      jump\t// out\n        /* \"contracts/duara.sol\":3005:3073  function closeVoting() public {... */\n    tag_58:\n        /* \"contracts/duara.sol\":3061:3065  true */\n      0x01\n        /* \"contracts/duara.sol\":3046:3058  votingClosed */\n      0x04\n      0x00\n        /* \"contracts/duara.sol\":3046:3065  votingClosed = true */\n      0x0100\n      exp\n      dup2\n      sload\n      dup2\n      0xff\n      mul\n      not\n      and\n      swap1\n      dup4\n      iszero\n      iszero\n      mul\n      or\n      swap1\n      sstore\n      pop\n        /* \"contracts/duara.sol\":3005:3073  function closeVoting() public {... */\n      jump\t// out\n        /* \"contracts/duara.sol\":1583:2246  function vote(string memory _candidate) public {... */\n    tag_61:\n        /* \"contracts/duara.sol\":1650:1658  hasVoted */\n      0x01\n        /* \"contracts/duara.sol\":1650:1670  hasVoted[msg.sender] */\n      0x00\n        /* \"contracts/duara.sol\":1659:1669  msg.sender */\n      caller\n        /* \"contracts/duara.sol\":1650:1670  hasVoted[msg.sender] */\n      0xffffffffffffffffffffffffffffffffffffffff\n      and\n      0xffffffffffffffffffffffffffffffffffffffff\n      and\n      dup2\n      mstore\n      0x20\n      add\n      swap1\n      dup2\n      mstore\n      0x20\n      add\n      0x00\n      keccak256\n      0x00\n      swap1\n      sload\n      swap1\n      0x0100\n      exp\n      swap1\n      div\n      0xff\n      and\n        /* \"contracts/duara.sol\":1649:1670  !hasVoted[msg.sender] */\n      iszero\n        /* \"contracts/duara.sol\":1641:1698  require(!hasVoted[msg.sender], \"You have already voted.\") */\n      tag_116\n      jumpi\n      mload(0x40)\n      0x08c379a000000000000000000000000000000000000000000000000000000000\n      dup2\n      mstore\n      0x04\n      add\n      tag_117\n      swap1\n      tag_118\n      jump\t// in\n    tag_117:\n      mload(0x40)\n      dup1\n      swap2\n      sub\n      swap1\n      revert\n    tag_116:\n        /* \"contracts/duara.sol\":1757:1827  login(profiles[msg.sender].idNumber, profiles[msg.sender].voterNumber) */\n      tag_119\n        /* \"contracts/duara.sol\":1763:1771  profiles */\n      0x00\n        /* \"contracts/duara.sol\":1763:1783  profiles[msg.sender] */\n      dup1\n        /* \"contracts/duara.sol\":1772:1782  msg.sender */\n      caller\n        /* \"contracts/duara.sol\":1763:1783  profiles[msg.sender] */\n      0xffffffffffffffffffffffffffffffffffffffff\n      and\n      0xffffffffffffffffffffffffffffffffffffffff\n      and\n      dup2\n      mstore\n      0x20\n      add\n      swap1\n      dup2\n      mstore\n      0x20\n      add\n      0x00\n      keccak256\n        /* \"contracts/duara.sol\":1763:1792  profiles[msg.sender].idNumber */\n      0x01\n      add\n      sload\n        /* \"contracts/duara.sol\":1794:1802  profiles */\n      0x00\n        /* \"contracts/duara.sol\":1794:1814  profiles[msg.sender] */\n      dup1\n        /* \"contracts/duara.sol\":1803:1813  msg.sender */\n      caller\n        /* \"contracts/duara.sol\":1794:1814  profiles[msg.sender] */\n      0xffffffffffffffffffffffffffffffffffffffff\n      and\n      0xffffffffffffffffffffffffffffffffffffffff\n      and\n      dup2\n      mstore\n      0x20\n      add\n      swap1\n      dup2\n      mstore\n      0x20\n      add\n      0x00\n      keccak256\n        /* \"contracts/duara.sol\":1794:1826  profiles[msg.sender].voterNumber */\n      0x02\n      add\n      sload\n        /* \"contracts/duara.sol\":1757:1762  login */\n      tag_33\n        /* \"contracts/duara.sol\":1757:1827  login(profiles[msg.sender].idNumber, profiles[msg.sender].voterNumber) */\n      jump\t// in\n    tag_119:\n        /* \"contracts/duara.sol\":1749:1857  require(login(profiles[msg.sender].idNumber, profiles[msg.sender].voterNumber), \"You need to log in first.\") */\n      tag_120\n      jumpi\n      mload(0x40)\n      0x08c379a000000000000000000000000000000000000000000000000000000000\n      dup2\n      mstore\n      0x04\n      add\n      tag_121\n      swap1\n      tag_122\n      jump\t// in\n    tag_121:\n      mload(0x40)\n      dup1\n      swap2\n      sub\n      swap1\n      revert\n    tag_120:\n        /* \"contracts/duara.sol\":1908:1934  validCandidate(_candidate) */\n      tag_123\n        /* \"contracts/duara.sol\":1923:1933  _candidate */\n      dup2\n        /* \"contracts/duara.sol\":1908:1922  validCandidate */\n      tag_124\n        /* \"contracts/duara.sol\":1908:1934  validCandidate(_candidate) */\n      jump\t// in\n    tag_123:\n        /* \"contracts/duara.sol\":1900:1957  require(validCandidate(_candidate), \"Invalid candidate.\") */\n      tag_125\n      jumpi\n      mload(0x40)\n      0x08c379a000000000000000000000000000000000000000000000000000000000\n      dup2\n      mstore\n      0x04\n      add\n      tag_126\n      swap1\n      tag_127\n      jump\t// in\n    tag_126:\n      mload(0x40)\n      dup1\n      swap2\n      sub\n      swap1\n      revert\n    tag_125:\n        /* \"contracts/duara.sol\":2017:2029  votingClosed */\n      0x04\n      0x00\n      swap1\n      sload\n      swap1\n      0x0100\n      exp\n      swap1\n      div\n      0xff\n      and\n        /* \"contracts/duara.sol\":2016:2029  !votingClosed */\n      iszero\n        /* \"contracts/duara.sol\":2008:2051  require(!votingClosed, \"Voting is closed.\") */\n      tag_128\n      jumpi\n      mload(0x40)\n      0x08c379a000000000000000000000000000000000000000000000000000000000\n      dup2\n      mstore\n      0x04\n      add\n      tag_129\n      swap1\n      tag_130\n      jump\t// in\n    tag_129:\n      mload(0x40)\n      dup1\n      swap2\n      sub\n      swap1\n      revert\n    tag_128:\n        /* \"contracts/duara.sol\":2095:2100  votes */\n      0x03\n        /* \"contracts/duara.sol\":2101:2111  _candidate */\n      dup2\n        /* \"contracts/duara.sol\":2095:2112  votes[_candidate] */\n      mload(0x40)\n      tag_131\n      swap2\n      swap1\n      tag_82\n      jump\t// in\n    tag_131:\n      swap1\n      dup2\n      mstore\n      0x20\n      add\n      mload(0x40)\n      dup1\n      swap2\n      sub\n      swap1\n      keccak256\n      0x00\n        /* \"contracts/duara.sol\":2095:2114  votes[_candidate]++ */\n      dup2\n      sload\n      dup1\n      swap3\n      swap2\n      swap1\n      tag_132\n      swap1\n      tag_133\n      jump\t// in\n    tag_132:\n      swap2\n      swap1\n      pop\n      sstore\n      pop\n        /* \"contracts/duara.sol\":2201:2205  true */\n      0x01\n        /* \"contracts/duara.sol\":2178:2186  hasVoted */\n      dup1\n        /* \"contracts/duara.sol\":2178:2198  hasVoted[msg.sender] */\n      0x00\n        /* \"contracts/duara.sol\":2187:2197  msg.sender */\n      caller\n        /* \"contracts/duara.sol\":2178:2198  hasVoted[msg.sender] */\n      0xffffffffffffffffffffffffffffffffffffffff\n      and\n      0xffffffffffffffffffffffffffffffffffffffff\n      and\n      dup2\n      mstore\n      0x20\n      add\n      swap1\n      dup2\n      mstore\n      0x20\n      add\n      0x00\n      keccak256\n      0x00\n        /* \"contracts/duara.sol\":2178:2205  hasVoted[msg.sender] = true */\n      0x0100\n      exp\n      dup2\n      sload\n      dup2\n      0xff\n      mul\n      not\n      and\n      swap1\n      dup4\n      iszero\n      iszero\n      mul\n      or\n      swap1\n      sstore\n      pop\n        /* \"contracts/duara.sol\":1583:2246  function vote(string memory _candidate) public {... */\n      pop\n      jump\t// out\n        /* \"contracts/duara.sol\":2319:2722  function validCandidate(string memory _candidate) internal view returns (bool) {... */\n    tag_124:\n        /* \"contracts/duara.sol\":2392:2396  bool */\n      0x00\n        /* \"contracts/duara.sol\":2414:2423  uint256 i */\n      dup1\n        /* \"contracts/duara.sol\":2426:2427  0 */\n      0x00\n        /* \"contracts/duara.sol\":2414:2427  uint256 i = 0 */\n      swap1\n      pop\n        /* \"contracts/duara.sol\":2409:2692  for (uint256 i = 0; i < candidates.length; i++) {... */\n    tag_135:\n        /* \"contracts/duara.sol\":2433:2443  candidates */\n      0x02\n        /* \"contracts/duara.sol\":2433:2450  candidates.length */\n      dup1\n      sload\n      swap1\n      pop\n        /* \"contracts/duara.sol\":2429:2430  i */\n      dup2\n        /* \"contracts/duara.sol\":2429:2450  i < candidates.length */\n      lt\n        /* \"contracts/duara.sol\":2409:2692  for (uint256 i = 0; i < candidates.length; i++) {... */\n      iszero\n      tag_136\n      jumpi\n        /* \"contracts/duara.sol\":2621:2631  _candidate */\n      dup3\n        /* \"contracts/duara.sol\":2604:2632  abi.encodePacked(_candidate) */\n      add(0x20, mload(0x40))\n      tag_138\n      swap2\n      swap1\n      tag_82\n      jump\t// in\n    tag_138:\n      mload(0x40)\n      0x20\n      dup2\n      dup4\n      sub\n      sub\n      dup2\n      mstore\n      swap1\n      0x40\n      mstore\n        /* \"contracts/duara.sol\":2594:2633  keccak256(abi.encodePacked(_candidate)) */\n      dup1\n      mload\n      swap1\n      0x20\n      add\n      keccak256\n        /* \"contracts/duara.sol\":2575:2585  candidates */\n      0x02\n        /* \"contracts/duara.sol\":2586:2587  i */\n      dup3\n        /* \"contracts/duara.sol\":2575:2588  candidates[i] */\n      dup2\n      sload\n      dup2\n      lt\n      tag_139\n      jumpi\n      tag_140\n      tag_92\n      jump\t// in\n    tag_140:\n    tag_139:\n      swap1\n      0x00\n      mstore\n      keccak256(0x00, 0x20)\n      add\n        /* \"contracts/duara.sol\":2558:2589  abi.encodePacked(candidates[i]) */\n      add(0x20, mload(0x40))\n      tag_142\n      swap2\n      swap1\n      tag_95\n      jump\t// in\n    tag_142:\n      mload(0x40)\n      0x20\n      dup2\n      dup4\n      sub\n      sub\n      dup2\n      mstore\n      swap1\n      0x40\n      mstore\n        /* \"contracts/duara.sol\":2548:2590  keccak256(abi.encodePacked(candidates[i])) */\n      dup1\n      mload\n      swap1\n      0x20\n      add\n      keccak256\n        /* \"contracts/duara.sol\":2548:2633  keccak256(abi.encodePacked(candidates[i])) == keccak256(abi.encodePacked(_candidate)) */\n      sub\n        /* \"contracts/duara.sol\":2544:2681  if (keccak256(abi.encodePacked(candidates[i])) == keccak256(abi.encodePacked(_candidate))) {... */\n      tag_143\n      jumpi\n        /* \"contracts/duara.sol\":2661:2665  true */\n      0x01\n        /* \"contracts/duara.sol\":2654:2665  return true */\n      swap2\n      pop\n      pop\n      jump(tag_134)\n        /* \"contracts/duara.sol\":2544:2681  if (keccak256(abi.encodePacked(candidates[i])) == keccak256(abi.encodePacked(_candidate))) {... */\n    tag_143:\n        /* \"contracts/duara.sol\":2452:2455  i++ */\n      dup1\n      dup1\n      0x01\n      add\n      swap2\n      pop\n      pop\n        /* \"contracts/duara.sol\":2409:2692  for (uint256 i = 0; i < candidates.length; i++) {... */\n      jump(tag_135)\n    tag_136:\n      pop\n        /* \"contracts/duara.sol\":2709:2714  false */\n      0x00\n        /* \"contracts/duara.sol\":2702:2714  return false */\n      swap1\n      pop\n        /* \"contracts/duara.sol\":2319:2722  function validCandidate(string memory _candidate) internal view returns (bool) {... */\n    tag_134:\n      swap2\n      swap1\n      pop\n      jump\t// out\n        /* \"#utility.yul\":7:82   */\n    tag_144:\n        /* \"#utility.yul\":40:46   */\n      0x00\n        /* \"#utility.yul\":73:75   */\n      0x40\n        /* \"#utility.yul\":67:76   */\n      mload\n        /* \"#utility.yul\":57:76   */\n      swap1\n      pop\n        /* \"#utility.yul\":7:82   */\n      swap1\n      jump\t// out\n        /* \"#utility.yul\":88:205   */\n    tag_145:\n        /* \"#utility.yul\":197:198   */\n      0x00\n        /* \"#utility.yul\":194:195   */\n      dup1\n        /* \"#utility.yul\":187:199   */\n      revert\n        /* \"#utility.yul\":211:328   */\n    tag_146:\n        /* \"#utility.yul\":320:321   */\n      0x00\n        /* \"#utility.yul\":317:318   */\n      dup1\n        /* \"#utility.yul\":310:322   */\n      revert\n        /* \"#utility.yul\":334:460   */\n    tag_147:\n        /* \"#utility.yul\":371:378   */\n      0x00\n        /* \"#utility.yul\":411:453   */\n      0xffffffffffffffffffffffffffffffffffffffff\n        /* \"#utility.yul\":404:409   */\n      dup3\n        /* \"#utility.yul\":400:454   */\n      and\n        /* \"#utility.yul\":389:454   */\n      swap1\n      pop\n        /* \"#utility.yul\":334:460   */\n      swap2\n      swap1\n      pop\n      jump\t// out\n        /* \"#utility.yul\":466:562   */\n    tag_148:\n        /* \"#utility.yul\":503:510   */\n      0x00\n        /* \"#utility.yul\":532:556   */\n      tag_207\n        /* \"#utility.yul\":550:555   */\n      dup3\n        /* \"#utility.yul\":532:556   */\n      tag_147\n      jump\t// in\n    tag_207:\n        /* \"#utility.yul\":521:556   */\n      swap1\n      pop\n        /* \"#utility.yul\":466:562   */\n      swap2\n      swap1\n      pop\n      jump\t// out\n        /* \"#utility.yul\":568:690   */\n    tag_149:\n        /* \"#utility.yul\":641:665   */\n      tag_209\n        /* \"#utility.yul\":659:664   */\n      dup2\n        /* \"#utility.yul\":641:665   */\n      tag_148\n      jump\t// in\n    tag_209:\n        /* \"#utility.yul\":634:639   */\n      dup2\n        /* \"#utility.yul\":631:666   */\n      eq\n        /* \"#utility.yul\":621:684   */\n      tag_210\n      jumpi\n        /* \"#utility.yul\":680:681   */\n      0x00\n        /* \"#utility.yul\":677:678   */\n      dup1\n        /* \"#utility.yul\":670:682   */\n      revert\n        /* \"#utility.yul\":621:684   */\n    tag_210:\n        /* \"#utility.yul\":568:690   */\n      pop\n      jump\t// out\n        /* \"#utility.yul\":696:835   */\n    tag_150:\n        /* \"#utility.yul\":742:747   */\n      0x00\n        /* \"#utility.yul\":780:786   */\n      dup2\n        /* \"#utility.yul\":767:787   */\n      calldataload\n        /* \"#utility.yul\":758:787   */\n      swap1\n      pop\n        /* \"#utility.yul\":796:829   */\n      tag_212\n        /* \"#utility.yul\":823:828   */\n      dup2\n        /* \"#utility.yul\":796:829   */\n      tag_149\n      jump\t// in\n    tag_212:\n        /* \"#utility.yul\":696:835   */\n      swap3\n      swap2\n      pop\n      pop\n      jump\t// out\n        /* \"#utility.yul\":841:1170   */\n    tag_17:\n        /* \"#utility.yul\":900:906   */\n      0x00\n        /* \"#utility.yul\":949:951   */\n      0x20\n        /* \"#utility.yul\":937:946   */\n      dup3\n        /* \"#utility.yul\":928:935   */\n      dup5\n        /* \"#utility.yul\":924:947   */\n      sub\n        /* \"#utility.yul\":920:952   */\n      slt\n        /* \"#utility.yul\":917:1036   */\n      iszero\n      tag_214\n      jumpi\n        /* \"#utility.yul\":955:1034   */\n      tag_215\n      tag_145\n      jump\t// in\n    tag_215:\n        /* \"#utility.yul\":917:1036   */\n    tag_214:\n        /* \"#utility.yul\":1075:1076   */\n      0x00\n        /* \"#utility.yul\":1100:1153   */\n      tag_216\n        /* \"#utility.yul\":1145:1152   */\n      dup5\n        /* \"#utility.yul\":1136:1142   */\n      dup3\n        /* \"#utility.yul\":1125:1134   */\n      dup6\n        /* \"#utility.yul\":1121:1143   */\n      add\n        /* \"#utility.yul\":1100:1153   */\n      tag_150\n      jump\t// in\n    tag_216:\n        /* \"#utility.yul\":1090:1153   */\n      swap2\n      pop\n        /* \"#utility.yul\":1046:1163   */\n      pop\n        /* \"#utility.yul\":841:1170   */\n      swap3\n      swap2\n      pop\n      pop\n      jump\t// out\n        /* \"#utility.yul\":1176:1266   */\n    tag_151:\n        /* \"#utility.yul\":1210:1217   */\n      0x00\n        /* \"#utility.yul\":1253:1258   */\n      dup2\n        /* \"#utility.yul\":1246:1259   */\n      iszero\n        /* \"#utility.yul\":1239:1260   */\n      iszero\n        /* \"#utility.yul\":1228:1260   */\n      swap1\n      pop\n        /* \"#utility.yul\":1176:1266   */\n      swap2\n      swap1\n      pop\n      jump\t// out\n        /* \"#utility.yul\":1272:1381   */\n    tag_152:\n        /* \"#utility.yul\":1353:1374   */\n      tag_219\n        /* \"#utility.yul\":1368:1373   */\n      dup2\n        /* \"#utility.yul\":1353:1374   */\n      tag_151\n      jump\t// in\n    tag_219:\n        /* \"#utility.yul\":1348:1351   */\n      dup3\n        /* \"#utility.yul\":1341:1375   */\n      mstore\n        /* \"#utility.yul\":1272:1381   */\n      pop\n      pop\n      jump\t// out\n        /* \"#utility.yul\":1387:1597   */\n    tag_20:\n        /* \"#utility.yul\":1474:1478   */\n      0x00\n        /* \"#utility.yul\":1512:1514   */\n      0x20\n        /* \"#utility.yul\":1501:1510   */\n      dup3\n        /* \"#utility.yul\":1497:1515   */\n      add\n        /* \"#utility.yul\":1489:1515   */\n      swap1\n      pop\n        /* \"#utility.yul\":1525:1590   */\n      tag_221\n        /* \"#utility.yul\":1587:1588   */\n      0x00\n        /* \"#utility.yul\":1576:1585   */\n      dup4\n        /* \"#utility.yul\":1572:1589   */\n      add\n        /* \"#utility.yul\":1563:1569   */\n      dup5\n        /* \"#utility.yul\":1525:1590   */\n      tag_152\n      jump\t// in\n    tag_221:\n        /* \"#utility.yul\":1387:1597   */\n      swap3\n      swap2\n      pop\n      pop\n      jump\t// out\n        /* \"#utility.yul\":1603:1680   */\n    tag_153:\n        /* \"#utility.yul\":1640:1647   */\n      0x00\n        /* \"#utility.yul\":1669:1674   */\n      dup2\n        /* \"#utility.yul\":1658:1674   */\n      swap1\n      pop\n        /* \"#utility.yul\":1603:1680   */\n      swap2\n      swap1\n      pop\n      jump\t// out\n        /* \"#utility.yul\":1686:1808   */\n    tag_154:\n        /* \"#utility.yul\":1759:1783   */\n      tag_224\n        /* \"#utility.yul\":1777:1782   */\n      dup2\n        /* \"#utility.yul\":1759:1783   */\n      tag_153\n      jump\t// in\n    tag_224:\n        /* \"#utility.yul\":1752:1757   */\n      dup2\n        /* \"#utility.yul\":1749:1784   */\n      eq\n        /* \"#utility.yul\":1739:1802   */\n      tag_225\n      jumpi\n        /* \"#utility.yul\":1798:1799   */\n      0x00\n        /* \"#utility.yul\":1795:1796   */\n      dup1\n        /* \"#utility.yul\":1788:1800   */\n      revert\n        /* \"#utility.yul\":1739:1802   */\n    tag_225:\n        /* \"#utility.yul\":1686:1808   */\n      pop\n      jump\t// out\n        /* \"#utility.yul\":1814:1953   */\n    tag_155:\n        /* \"#utility.yul\":1860:1865   */\n      0x00\n        /* \"#utility.yul\":1898:1904   */\n      dup2\n        /* \"#utility.yul\":1885:1905   */\n      calldataload\n        /* \"#utility.yul\":1876:1905   */\n      swap1\n      pop\n        /* \"#utility.yul\":1914:1947   */\n      tag_227\n        /* \"#utility.yul\":1941:1946   */\n      dup2\n        /* \"#utility.yul\":1914:1947   */\n      tag_154\n      jump\t// in\n    tag_227:\n        /* \"#utility.yul\":1814:1953   */\n      swap3\n      swap2\n      pop\n      pop\n      jump\t// out\n        /* \"#utility.yul\":1959:2288   */\n    tag_26:\n        /* \"#utility.yul\":2018:2024   */\n      0x00\n        /* \"#utility.yul\":2067:2069   */\n      0x20\n        /* \"#utility.yul\":2055:2064   */\n      dup3\n        /* \"#utility.yul\":2046:2053   */\n      dup5\n        /* \"#utility.yul\":2042:2065   */\n      sub\n        /* \"#utility.yul\":2038:2070   */\n      slt\n        /* \"#utility.yul\":2035:2154   */\n      iszero\n      tag_229\n      jumpi\n        /* \"#utility.yul\":2073:2152   */\n      tag_230\n      tag_145\n      jump\t// in\n    tag_230:\n        /* \"#utility.yul\":2035:2154   */\n    tag_229:\n        /* \"#utility.yul\":2193:2194   */\n      0x00\n        /* \"#utility.yul\":2218:2271   */\n      tag_231\n        /* \"#utility.yul\":2263:2270   */\n      dup5\n        /* \"#utility.yul\":2254:2260   */\n      dup3\n        /* \"#utility.yul\":2243:2252   */\n      dup6\n        /* \"#utility.yul\":2239:2261   */\n      add\n        /* \"#utility.yul\":2218:2271   */\n      tag_155\n      jump\t// in\n    tag_231:\n        /* \"#utility.yul\":2208:2271   */\n      swap2\n      pop\n        /* \"#utility.yul\":2164:2281   */\n      pop\n        /* \"#utility.yul\":1959:2288   */\n      swap3\n      swap2\n      pop\n      pop\n      jump\t// out\n        /* \"#utility.yul\":2294:2393   */\n    tag_156:\n        /* \"#utility.yul\":2346:2352   */\n      0x00\n        /* \"#utility.yul\":2380:2385   */\n      dup2\n        /* \"#utility.yul\":2374:2386   */\n      mload\n        /* \"#utility.yul\":2364:2386   */\n      swap1\n      pop\n        /* \"#utility.yul\":2294:2393   */\n      swap2\n      swap1\n      pop\n      jump\t// out\n        /* \"#utility.yul\":2399:2568   */\n    tag_157:\n        /* \"#utility.yul\":2483:2494   */\n      0x00\n        /* \"#utility.yul\":2517:2523   */\n      dup3\n        /* \"#utility.yul\":2512:2515   */\n      dup3\n        /* \"#utility.yul\":2505:2524   */\n      mstore\n        /* \"#utility.yul\":2557:2561   */\n      0x20\n        /* \"#utility.yul\":2552:2555   */\n      dup3\n        /* \"#utility.yul\":2548:2562   */\n      add\n        /* \"#utility.yul\":2533:2562   */\n      swap1\n      pop\n        /* \"#utility.yul\":2399:2568   */\n      swap3\n      swap2\n      pop\n      pop\n      jump\t// out\n        /* \"#utility.yul\":2574:2820   */\n    tag_158:\n        /* \"#utility.yul\":2655:2656   */\n      0x00\n        /* \"#utility.yul\":2665:2778   */\n    tag_235:\n        /* \"#utility.yul\":2679:2685   */\n      dup4\n        /* \"#utility.yul\":2676:2677   */\n      dup2\n        /* \"#utility.yul\":2673:2686   */\n      lt\n        /* \"#utility.yul\":2665:2778   */\n      iszero\n      tag_237\n      jumpi\n        /* \"#utility.yul\":2764:2765   */\n      dup1\n        /* \"#utility.yul\":2759:2762   */\n      dup3\n        /* \"#utility.yul\":2755:2766   */\n      add\n        /* \"#utility.yul\":2749:2767   */\n      mload\n        /* \"#utility.yul\":2745:2746   */\n      dup2\n        /* \"#utility.yul\":2740:2743   */\n      dup5\n        /* \"#utility.yul\":2736:2747   */\n      add\n        /* \"#utility.yul\":2729:2768   */\n      mstore\n        /* \"#utility.yul\":2701:2703   */\n      0x20\n        /* \"#utility.yul\":2698:2699   */\n      dup2\n        /* \"#utility.yul\":2694:2704   */\n      add\n        /* \"#utility.yul\":2689:2704   */\n      swap1\n      pop\n        /* \"#utility.yul\":2665:2778   */\n      jump(tag_235)\n    tag_237:\n        /* \"#utility.yul\":2812:2813   */\n      0x00\n        /* \"#utility.yul\":2803:2809   */\n      dup5\n        /* \"#utility.yul\":2798:2801   */\n      dup5\n        /* \"#utility.yul\":2794:2810   */\n      add\n        /* \"#utility.yul\":2787:2814   */\n      mstore\n        /* \"#utility.yul\":2636:2820   */\n      pop\n        /* \"#utility.yul\":2574:2820   */\n      pop\n      pop\n      pop\n      jump\t// out\n        /* \"#utility.yul\":2826:2928   */\n    tag_159:\n        /* \"#utility.yul\":2867:2873   */\n      0x00\n        /* \"#utility.yul\":2918:2920   */\n      0x1f\n        /* \"#utility.yul\":2914:2921   */\n      not\n        /* \"#utility.yul\":2909:2911   */\n      0x1f\n        /* \"#utility.yul\":2902:2907   */\n      dup4\n        /* \"#utility.yul\":2898:2912   */\n      add\n        /* \"#utility.yul\":2894:2922   */\n      and\n        /* \"#utility.yul\":2884:2922   */\n      swap1\n      pop\n        /* \"#utility.yul\":2826:2928   */\n      swap2\n      swap1\n      pop\n      jump\t// out\n        /* \"#utility.yul\":2934:3311   */\n    tag_160:\n        /* \"#utility.yul\":3022:3025   */\n      0x00\n        /* \"#utility.yul\":3050:3089   */\n      tag_240\n        /* \"#utility.yul\":3083:3088   */\n      dup3\n        /* \"#utility.yul\":3050:3089   */\n      tag_156\n      jump\t// in\n    tag_240:\n        /* \"#utility.yul\":3105:3176   */\n      tag_241\n        /* \"#utility.yul\":3169:3175   */\n      dup2\n        /* \"#utility.yul\":3164:3167   */\n      dup6\n        /* \"#utility.yul\":3105:3176   */\n      tag_157\n      jump\t// in\n    tag_241:\n        /* \"#utility.yul\":3098:3176   */\n      swap4\n      pop\n        /* \"#utility.yul\":3185:3250   */\n      tag_242\n        /* \"#utility.yul\":3243:3249   */\n      dup2\n        /* \"#utility.yul\":3238:3241   */\n      dup6\n        /* \"#utility.yul\":3231:3235   */\n      0x20\n        /* \"#utility.yul\":3224:3229   */\n      dup7\n        /* \"#utility.yul\":3220:3236   */\n      add\n        /* \"#utility.yul\":3185:3250   */\n      tag_158\n      jump\t// in\n    tag_242:\n        /* \"#utility.yul\":3275:3304   */\n      tag_243\n        /* \"#utility.yul\":3297:3303   */\n      dup2\n        /* \"#utility.yul\":3275:3304   */\n      tag_159\n      jump\t// in\n    tag_243:\n        /* \"#utility.yul\":3270:3273   */\n      dup5\n        /* \"#utility.yul\":3266:3305   */\n      add\n        /* \"#utility.yul\":3259:3305   */\n      swap2\n      pop\n        /* \"#utility.yul\":3026:3311   */\n      pop\n        /* \"#utility.yul\":2934:3311   */\n      swap3\n      swap2\n      pop\n      pop\n      jump\t// out\n        /* \"#utility.yul\":3317:3630   */\n    tag_29:\n        /* \"#utility.yul\":3430:3434   */\n      0x00\n        /* \"#utility.yul\":3468:3470   */\n      0x20\n        /* \"#utility.yul\":3457:3466   */\n      dup3\n        /* \"#utility.yul\":3453:3471   */\n      add\n        /* \"#utility.yul\":3445:3471   */\n      swap1\n      pop\n        /* \"#utility.yul\":3517:3526   */\n      dup2\n        /* \"#utility.yul\":3511:3515   */\n      dup2\n        /* \"#utility.yul\":3507:3527   */\n      sub\n        /* \"#utility.yul\":3503:3504   */\n      0x00\n        /* \"#utility.yul\":3492:3501   */\n      dup4\n        /* \"#utility.yul\":3488:3505   */\n      add\n        /* \"#utility.yul\":3481:3528   */\n      mstore\n        /* \"#utility.yul\":3545:3623   */\n      tag_245\n        /* \"#utility.yul\":3618:3622   */\n      dup2\n        /* \"#utility.yul\":3609:3615   */\n      dup5\n        /* \"#utility.yul\":3545:3623   */\n      tag_160\n      jump\t// in\n    tag_245:\n        /* \"#utility.yul\":3537:3623   */\n      swap1\n      pop\n        /* \"#utility.yul\":3317:3630   */\n      swap3\n      swap2\n      pop\n      pop\n      jump\t// out\n        /* \"#utility.yul\":3636:4110   */\n    tag_32:\n        /* \"#utility.yul\":3704:3710   */\n      0x00\n        /* \"#utility.yul\":3712:3718   */\n      dup1\n        /* \"#utility.yul\":3761:3763   */\n      0x40\n        /* \"#utility.yul\":3749:3758   */\n      dup4\n        /* \"#utility.yul\":3740:3747   */\n      dup6\n        /* \"#utility.yul\":3736:3759   */\n      sub\n        /* \"#utility.yul\":3732:3764   */\n      slt\n        /* \"#utility.yul\":3729:3848   */\n      iszero\n      tag_247\n      jumpi\n        /* \"#utility.yul\":3767:3846   */\n      tag_248\n      tag_145\n      jump\t// in\n    tag_248:\n        /* \"#utility.yul\":3729:3848   */\n    tag_247:\n        /* \"#utility.yul\":3887:3888   */\n      0x00\n        /* \"#utility.yul\":3912:3965   */\n      tag_249\n        /* \"#utility.yul\":3957:3964   */\n      dup6\n        /* \"#utility.yul\":3948:3954   */\n      dup3\n        /* \"#utility.yul\":3937:3946   */\n      dup7\n        /* \"#utility.yul\":3933:3955   */\n      add\n        /* \"#utility.yul\":3912:3965   */\n      tag_155\n      jump\t// in\n    tag_249:\n        /* \"#utility.yul\":3902:3965   */\n      swap3\n      pop\n        /* \"#utility.yul\":3858:3975   */\n      pop\n        /* \"#utility.yul\":4014:4016   */\n      0x20\n        /* \"#utility.yul\":4040:4093   */\n      tag_250\n        /* \"#utility.yul\":4085:4092   */\n      dup6\n        /* \"#utility.yul\":4076:4082   */\n      dup3\n        /* \"#utility.yul\":4065:4074   */\n      dup7\n        /* \"#utility.yul\":4061:4083   */\n      add\n        /* \"#utility.yul\":4040:4093   */\n      tag_155\n      jump\t// in\n    tag_250:\n        /* \"#utility.yul\":4030:4093   */\n      swap2\n      pop\n        /* \"#utility.yul\":3985:4103   */\n      pop\n        /* \"#utility.yul\":3636:4110   */\n      swap3\n      pop\n      swap3\n      swap1\n      pop\n      jump\t// out\n        /* \"#utility.yul\":4116:4233   */\n    tag_161:\n        /* \"#utility.yul\":4225:4226   */\n      0x00\n        /* \"#utility.yul\":4222:4223   */\n      dup1\n        /* \"#utility.yul\":4215:4227   */\n      revert\n        /* \"#utility.yul\":4239:4356   */\n    tag_162:\n        /* \"#utility.yul\":4348:4349   */\n      0x00\n        /* \"#utility.yul\":4345:4346   */\n      dup1\n        /* \"#utility.yul\":4338:4350   */\n      revert\n        /* \"#utility.yul\":4362:4542   */\n    tag_163:\n        /* \"#utility.yul\":4410:4487   */\n      0x4e487b7100000000000000000000000000000000000000000000000000000000\n        /* \"#utility.yul\":4407:4408   */\n      0x00\n        /* \"#utility.yul\":4400:4488   */\n      mstore\n        /* \"#utility.yul\":4507:4511   */\n      0x41\n        /* \"#utility.yul\":4504:4505   */\n      0x04\n        /* \"#utility.yul\":4497:4512   */\n      mstore\n        /* \"#utility.yul\":4531:4535   */\n      0x24\n        /* \"#utility.yul\":4528:4529   */\n      0x00\n        /* \"#utility.yul\":4521:4536   */\n      revert\n        /* \"#utility.yul\":4548:4829   */\n    tag_164:\n        /* \"#utility.yul\":4631:4658   */\n      tag_255\n        /* \"#utility.yul\":4653:4657   */\n      dup3\n        /* \"#utility.yul\":4631:4658   */\n      tag_159\n      jump\t// in\n    tag_255:\n        /* \"#utility.yul\":4623:4629   */\n      dup2\n        /* \"#utility.yul\":4619:4659   */\n      add\n        /* \"#utility.yul\":4761:4767   */\n      dup2\n        /* \"#utility.yul\":4749:4759   */\n      dup2\n        /* \"#utility.yul\":4746:4768   */\n      lt\n        /* \"#utility.yul\":4725:4743   */\n      0xffffffffffffffff\n        /* \"#utility.yul\":4713:4723   */\n      dup3\n        /* \"#utility.yul\":4710:4744   */\n      gt\n        /* \"#utility.yul\":4707:4769   */\n      or\n        /* \"#utility.yul\":4704:4792   */\n      iszero\n      tag_256\n      jumpi\n        /* \"#utility.yul\":4772:4790   */\n      tag_257\n      tag_163\n      jump\t// in\n    tag_257:\n        /* \"#utility.yul\":4704:4792   */\n    tag_256:\n        /* \"#utility.yul\":4812:4822   */\n      dup1\n        /* \"#utility.yul\":4808:4810   */\n      0x40\n        /* \"#utility.yul\":4801:4823   */\n      mstore\n        /* \"#utility.yul\":4591:4829   */\n      pop\n        /* \"#utility.yul\":4548:4829   */\n      pop\n      pop\n      jump\t// out\n        /* \"#utility.yul\":4835:4964   */\n    tag_165:\n        /* \"#utility.yul\":4869:4875   */\n      0x00\n        /* \"#utility.yul\":4896:4916   */\n      tag_259\n      tag_144\n      jump\t// in\n    tag_259:\n        /* \"#utility.yul\":4886:4916   */\n      swap1\n      pop\n        /* \"#utility.yul\":4925:4958   */\n      tag_260\n        /* \"#utility.yul\":4953:4957   */\n      dup3\n        /* \"#utility.yul\":4945:4951   */\n      dup3\n        /* \"#utility.yul\":4925:4958   */\n      tag_164\n      jump\t// in\n    tag_260:\n        /* \"#utility.yul\":4835:4964   */\n      swap2\n      swap1\n      pop\n      jump\t// out\n        /* \"#utility.yul\":4970:5278   */\n    tag_166:\n        /* \"#utility.yul\":5032:5036   */\n      0x00\n        /* \"#utility.yul\":5122:5140   */\n      0xffffffffffffffff\n        /* \"#utility.yul\":5114:5120   */\n      dup3\n        /* \"#utility.yul\":5111:5141   */\n      gt\n        /* \"#utility.yul\":5108:5164   */\n      iszero\n      tag_262\n      jumpi\n        /* \"#utility.yul\":5144:5162   */\n      tag_263\n      tag_163\n      jump\t// in\n    tag_263:\n        /* \"#utility.yul\":5108:5164   */\n    tag_262:\n        /* \"#utility.yul\":5182:5211   */\n      tag_264\n        /* \"#utility.yul\":5204:5210   */\n      dup3\n        /* \"#utility.yul\":5182:5211   */\n      tag_159\n      jump\t// in\n    tag_264:\n        /* \"#utility.yul\":5174:5211   */\n      swap1\n      pop\n        /* \"#utility.yul\":5266:5270   */\n      0x20\n        /* \"#utility.yul\":5260:5264   */\n      dup2\n        /* \"#utility.yul\":5256:5271   */\n      add\n        /* \"#utility.yul\":5248:5271   */\n      swap1\n      pop\n        /* \"#utility.yul\":4970:5278   */\n      swap2\n      swap1\n      pop\n      jump\t// out\n        /* \"#utility.yul\":5284:5430   */\n    tag_167:\n        /* \"#utility.yul\":5381:5387   */\n      dup3\n        /* \"#utility.yul\":5376:5379   */\n      dup2\n        /* \"#utility.yul\":5371:5374   */\n      dup4\n        /* \"#utility.yul\":5358:5388   */\n      calldatacopy\n        /* \"#utility.yul\":5422:5423   */\n      0x00\n        /* \"#utility.yul\":5413:5419   */\n      dup4\n        /* \"#utility.yul\":5408:5411   */\n      dup4\n        /* \"#utility.yul\":5404:5420   */\n      add\n        /* \"#utility.yul\":5397:5424   */\n      mstore\n        /* \"#utility.yul\":5284:5430   */\n      pop\n      pop\n      pop\n      jump\t// out\n        /* \"#utility.yul\":5436:5861   */\n    tag_168:\n        /* \"#utility.yul\":5514:5519   */\n      0x00\n        /* \"#utility.yul\":5539:5605   */\n      tag_267\n        /* \"#utility.yul\":5555:5604   */\n      tag_268\n        /* \"#utility.yul\":5597:5603   */\n      dup5\n        /* \"#utility.yul\":5555:5604   */\n      tag_166\n      jump\t// in\n    tag_268:\n        /* \"#utility.yul\":5539:5605   */\n      tag_165\n      jump\t// in\n    tag_267:\n        /* \"#utility.yul\":5530:5605   */\n      swap1\n      pop\n        /* \"#utility.yul\":5628:5634   */\n      dup3\n        /* \"#utility.yul\":5621:5626   */\n      dup2\n        /* \"#utility.yul\":5614:5635   */\n      mstore\n        /* \"#utility.yul\":5666:5670   */\n      0x20\n        /* \"#utility.yul\":5659:5664   */\n      dup2\n        /* \"#utility.yul\":5655:5671   */\n      add\n        /* \"#utility.yul\":5704:5707   */\n      dup5\n        /* \"#utility.yul\":5695:5701   */\n      dup5\n        /* \"#utility.yul\":5690:5693   */\n      dup5\n        /* \"#utility.yul\":5686:5702   */\n      add\n        /* \"#utility.yul\":5683:5708   */\n      gt\n        /* \"#utility.yul\":5680:5792   */\n      iszero\n      tag_269\n      jumpi\n        /* \"#utility.yul\":5711:5790   */\n      tag_270\n      tag_162\n      jump\t// in\n    tag_270:\n        /* \"#utility.yul\":5680:5792   */\n    tag_269:\n        /* \"#utility.yul\":5801:5855   */\n      tag_271\n        /* \"#utility.yul\":5848:5854   */\n      dup5\n        /* \"#utility.yul\":5843:5846   */\n      dup3\n        /* \"#utility.yul\":5838:5841   */\n      dup6\n        /* \"#utility.yul\":5801:5855   */\n      tag_167\n      jump\t// in\n    tag_271:\n        /* \"#utility.yul\":5520:5861   */\n      pop\n        /* \"#utility.yul\":5436:5861   */\n      swap4\n      swap3\n      pop\n      pop\n      pop\n      jump\t// out\n        /* \"#utility.yul\":5881:6221   */\n    tag_169:\n        /* \"#utility.yul\":5937:5942   */\n      0x00\n        /* \"#utility.yul\":5986:5989   */\n      dup3\n        /* \"#utility.yul\":5979:5983   */\n      0x1f\n        /* \"#utility.yul\":5971:5977   */\n      dup4\n        /* \"#utility.yul\":5967:5984   */\n      add\n        /* \"#utility.yul\":5963:5990   */\n      slt\n        /* \"#utility.yul\":5953:6075   */\n      tag_273\n      jumpi\n        /* \"#utility.yul\":5994:6073   */\n      tag_274\n      tag_161\n      jump\t// in\n    tag_274:\n        /* \"#utility.yul\":5953:6075   */\n    tag_273:\n        /* \"#utility.yul\":6111:6117   */\n      dup2\n        /* \"#utility.yul\":6098:6118   */\n      calldataload\n        /* \"#utility.yul\":6136:6215   */\n      tag_275\n        /* \"#utility.yul\":6211:6214   */\n      dup5\n        /* \"#utility.yul\":6203:6209   */\n      dup3\n        /* \"#utility.yul\":6196:6200   */\n      0x20\n        /* \"#utility.yul\":6188:6194   */\n      dup7\n        /* \"#utility.yul\":6184:6201   */\n      add\n        /* \"#utility.yul\":6136:6215   */\n      tag_168\n      jump\t// in\n    tag_275:\n        /* \"#utility.yul\":6127:6215   */\n      swap2\n      pop\n        /* \"#utility.yul\":5943:6221   */\n      pop\n        /* \"#utility.yul\":5881:6221   */\n      swap3\n      swap2\n      pop\n      pop\n      jump\t// out\n        /* \"#utility.yul\":6227:7026   */\n    tag_37:\n        /* \"#utility.yul\":6314:6320   */\n      0x00\n        /* \"#utility.yul\":6322:6328   */\n      dup1\n        /* \"#utility.yul\":6330:6336   */\n      0x00\n        /* \"#utility.yul\":6379:6381   */\n      0x60\n        /* \"#utility.yul\":6367:6376   */\n      dup5\n        /* \"#utility.yul\":6358:6365   */\n      dup7\n        /* \"#utility.yul\":6354:6377   */\n      sub\n        /* \"#utility.yul\":6350:6382   */\n      slt\n        /* \"#utility.yul\":6347:6466   */\n      iszero\n      tag_277\n      jumpi\n        /* \"#utility.yul\":6385:6464   */\n      tag_278\n      tag_145\n      jump\t// in\n    tag_278:\n        /* \"#utility.yul\":6347:6466   */\n    tag_277:\n        /* \"#utility.yul\":6533:6534   */\n      0x00\n        /* \"#utility.yul\":6522:6531   */\n      dup5\n        /* \"#utility.yul\":6518:6535   */\n      add\n        /* \"#utility.yul\":6505:6536   */\n      calldataload\n        /* \"#utility.yul\":6563:6581   */\n      0xffffffffffffffff\n        /* \"#utility.yul\":6555:6561   */\n      dup2\n        /* \"#utility.yul\":6552:6582   */\n      gt\n        /* \"#utility.yul\":6549:6666   */\n      iszero\n      tag_279\n      jumpi\n        /* \"#utility.yul\":6585:6664   */\n      tag_280\n      tag_146\n      jump\t// in\n    tag_280:\n        /* \"#utility.yul\":6549:6666   */\n    tag_279:\n        /* \"#utility.yul\":6690:6753   */\n      tag_281\n        /* \"#utility.yul\":6745:6752   */\n      dup7\n        /* \"#utility.yul\":6736:6742   */\n      dup3\n        /* \"#utility.yul\":6725:6734   */\n      dup8\n        /* \"#utility.yul\":6721:6743   */\n      add\n        /* \"#utility.yul\":6690:6753   */\n      tag_169\n      jump\t// in\n    tag_281:\n        /* \"#utility.yul\":6680:6753   */\n      swap4\n      pop\n        /* \"#utility.yul\":6476:6763   */\n      pop\n        /* \"#utility.yul\":6802:6804   */\n      0x20\n        /* \"#utility.yul\":6828:6881   */\n      tag_282\n        /* \"#utility.yul\":6873:6880   */\n      dup7\n        /* \"#utility.yul\":6864:6870   */\n      dup3\n        /* \"#utility.yul\":6853:6862   */\n      dup8\n        /* \"#utility.yul\":6849:6871   */\n      add\n        /* \"#utility.yul\":6828:6881   */\n      tag_155\n      jump\t// in\n    tag_282:\n        /* \"#utility.yul\":6818:6881   */\n      swap3\n      pop\n        /* \"#utility.yul\":6773:6891   */\n      pop\n        /* \"#utility.yul\":6930:6932   */\n      0x40\n        /* \"#utility.yul\":6956:7009   */\n      tag_283\n        /* \"#utility.yul\":7001:7008   */\n      dup7\n        /* \"#utility.yul\":6992:6998   */\n      dup3\n        /* \"#utility.yul\":6981:6990   */\n      dup8\n        /* \"#utility.yul\":6977:6999   */\n      add\n        /* \"#utility.yul\":6956:7009   */\n      tag_155\n      jump\t// in\n    tag_283:\n        /* \"#utility.yul\":6946:7009   */\n      swap2\n      pop\n        /* \"#utility.yul\":6901:7019   */\n      pop\n        /* \"#utility.yul\":6227:7026   */\n      swap3\n      pop\n      swap3\n      pop\n      swap3\n      jump\t// out\n        /* \"#utility.yul\":7032:7541   */\n    tag_41:\n        /* \"#utility.yul\":7101:7107   */\n      0x00\n        /* \"#utility.yul\":7150:7152   */\n      0x20\n        /* \"#utility.yul\":7138:7147   */\n      dup3\n        /* \"#utility.yul\":7129:7136   */\n      dup5\n        /* \"#utility.yul\":7125:7148   */\n      sub\n        /* \"#utility.yul\":7121:7153   */\n      slt\n        /* \"#utility.yul\":7118:7237   */\n      iszero\n      tag_285\n      jumpi\n        /* \"#utility.yul\":7156:7235   */\n      tag_286\n      tag_145\n      jump\t// in\n    tag_286:\n        /* \"#utility.yul\":7118:7237   */\n    tag_285:\n        /* \"#utility.yul\":7304:7305   */\n      0x00\n        /* \"#utility.yul\":7293:7302   */\n      dup3\n        /* \"#utility.yul\":7289:7306   */\n      add\n        /* \"#utility.yul\":7276:7307   */\n      calldataload\n        /* \"#utility.yul\":7334:7352   */\n      0xffffffffffffffff\n        /* \"#utility.yul\":7326:7332   */\n      dup2\n        /* \"#utility.yul\":7323:7353   */\n      gt\n        /* \"#utility.yul\":7320:7437   */\n      iszero\n      tag_287\n      jumpi\n        /* \"#utility.yul\":7356:7435   */\n      tag_288\n      tag_146\n      jump\t// in\n    tag_288:\n        /* \"#utility.yul\":7320:7437   */\n    tag_287:\n        /* \"#utility.yul\":7461:7524   */\n      tag_289\n        /* \"#utility.yul\":7516:7523   */\n      dup5\n        /* \"#utility.yul\":7507:7513   */\n      dup3\n        /* \"#utility.yul\":7496:7505   */\n      dup6\n        /* \"#utility.yul\":7492:7514   */\n      add\n        /* \"#utility.yul\":7461:7524   */\n      tag_169\n      jump\t// in\n    tag_289:\n        /* \"#utility.yul\":7451:7524   */\n      swap2\n      pop\n        /* \"#utility.yul\":7247:7534   */\n      pop\n        /* \"#utility.yul\":7032:7541   */\n      swap3\n      swap2\n      pop\n      pop\n      jump\t// out\n        /* \"#utility.yul\":7547:7665   */\n    tag_170:\n        /* \"#utility.yul\":7634:7658   */\n      tag_291\n        /* \"#utility.yul\":7652:7657   */\n      dup2\n        /* \"#utility.yul\":7634:7658   */\n      tag_153\n      jump\t// in\n    tag_291:\n        /* \"#utility.yul\":7629:7632   */\n      dup3\n        /* \"#utility.yul\":7622:7659   */\n      mstore\n        /* \"#utility.yul\":7547:7665   */\n      pop\n      pop\n      jump\t// out\n        /* \"#utility.yul\":7671:7893   */\n    tag_44:\n        /* \"#utility.yul\":7764:7768   */\n      0x00\n        /* \"#utility.yul\":7802:7804   */\n      0x20\n        /* \"#utility.yul\":7791:7800   */\n      dup3\n        /* \"#utility.yul\":7787:7805   */\n      add\n        /* \"#utility.yul\":7779:7805   */\n      swap1\n      pop\n        /* \"#utility.yul\":7815:7886   */\n      tag_293\n        /* \"#utility.yul\":7883:7884   */\n      0x00\n        /* \"#utility.yul\":7872:7881   */\n      dup4\n        /* \"#utility.yul\":7868:7885   */\n      add\n        /* \"#utility.yul\":7859:7865   */\n      dup5\n        /* \"#utility.yul\":7815:7886   */\n      tag_170\n      jump\t// in\n    tag_293:\n        /* \"#utility.yul\":7671:7893   */\n      swap3\n      swap2\n      pop\n      pop\n      jump\t// out\n        /* \"#utility.yul\":7899:8432   */\n    tag_56:\n        /* \"#utility.yul\":8068:8072   */\n      0x00\n        /* \"#utility.yul\":8106:8108   */\n      0x60\n        /* \"#utility.yul\":8095:8104   */\n      dup3\n        /* \"#utility.yul\":8091:8109   */\n      add\n        /* \"#utility.yul\":8083:8109   */\n      swap1\n      pop\n        /* \"#utility.yul\":8155:8164   */\n      dup2\n        /* \"#utility.yul\":8149:8153   */\n      dup2\n        /* \"#utility.yul\":8145:8165   */\n      sub\n        /* \"#utility.yul\":8141:8142   */\n      0x00\n        /* \"#utility.yul\":8130:8139   */\n      dup4\n        /* \"#utility.yul\":8126:8143   */\n      add\n        /* \"#utility.yul\":8119:8166   */\n      mstore\n        /* \"#utility.yul\":8183:8261   */\n      tag_295\n        /* \"#utility.yul\":8256:8260   */\n      dup2\n        /* \"#utility.yul\":8247:8253   */\n      dup7\n        /* \"#utility.yul\":8183:8261   */\n      tag_160\n      jump\t// in\n    tag_295:\n        /* \"#utility.yul\":8175:8261   */\n      swap1\n      pop\n        /* \"#utility.yul\":8271:8343   */\n      tag_296\n        /* \"#utility.yul\":8339:8341   */\n      0x20\n        /* \"#utility.yul\":8328:8337   */\n      dup4\n        /* \"#utility.yul\":8324:8342   */\n      add\n        /* \"#utility.yul\":8315:8321   */\n      dup6\n        /* \"#utility.yul\":8271:8343   */\n      tag_170\n      jump\t// in\n    tag_296:\n        /* \"#utility.yul\":8353:8425   */\n      tag_297\n        /* \"#utility.yul\":8421:8423   */\n      0x40\n        /* \"#utility.yul\":8410:8419   */\n      dup4\n        /* \"#utility.yul\":8406:8424   */\n      add\n        /* \"#utility.yul\":8397:8403   */\n      dup5\n        /* \"#utility.yul\":8353:8425   */\n      tag_170\n      jump\t// in\n    tag_297:\n        /* \"#utility.yul\":7899:8432   */\n      swap5\n      swap4\n      pop\n      pop\n      pop\n      pop\n      jump\t// out\n        /* \"#utility.yul\":8438:8618   */\n    tag_171:\n        /* \"#utility.yul\":8486:8563   */\n      0x4e487b7100000000000000000000000000000000000000000000000000000000\n        /* \"#utility.yul\":8483:8484   */\n      0x00\n        /* \"#utility.yul\":8476:8564   */\n      mstore\n        /* \"#utility.yul\":8583:8587   */\n      0x22\n        /* \"#utility.yul\":8580:8581   */\n      0x04\n        /* \"#utility.yul\":8573:8588   */\n      mstore\n        /* \"#utility.yul\":8607:8611   */\n      0x24\n        /* \"#utility.yul\":8604:8605   */\n      0x00\n        /* \"#utility.yul\":8597:8612   */\n      revert\n        /* \"#utility.yul\":8624:8944   */\n    tag_65:\n        /* \"#utility.yul\":8668:8674   */\n      0x00\n        /* \"#utility.yul\":8705:8706   */\n      0x02\n        /* \"#utility.yul\":8699:8703   */\n      dup3\n        /* \"#utility.yul\":8695:8707   */\n      div\n        /* \"#utility.yul\":8685:8707   */\n      swap1\n      pop\n        /* \"#utility.yul\":8752:8753   */\n      0x01\n        /* \"#utility.yul\":8746:8750   */\n      dup3\n        /* \"#utility.yul\":8742:8754   */\n      and\n        /* \"#utility.yul\":8773:8791   */\n      dup1\n        /* \"#utility.yul\":8763:8844   */\n      tag_300\n      jumpi\n        /* \"#utility.yul\":8829:8833   */\n      0x7f\n        /* \"#utility.yul\":8821:8827   */\n      dup3\n        /* \"#utility.yul\":8817:8834   */\n      and\n        /* \"#utility.yul\":8807:8834   */\n      swap2\n      pop\n        /* \"#utility.yul\":8763:8844   */\n    tag_300:\n        /* \"#utility.yul\":8891:8893   */\n      0x20\n        /* \"#utility.yul\":8883:8889   */\n      dup3\n        /* \"#utility.yul\":8880:8894   */\n      lt\n        /* \"#utility.yul\":8860:8878   */\n      dup2\n        /* \"#utility.yul\":8857:8895   */\n      sub\n        /* \"#utility.yul\":8854:8938   */\n      tag_301\n      jumpi\n        /* \"#utility.yul\":8910:8928   */\n      tag_302\n      tag_171\n      jump\t// in\n    tag_302:\n        /* \"#utility.yul\":8854:8938   */\n    tag_301:\n        /* \"#utility.yul\":8675:8944   */\n      pop\n        /* \"#utility.yul\":8624:8944   */\n      swap2\n      swap1\n      pop\n      jump\t// out\n        /* \"#utility.yul\":8950:9091   */\n    tag_172:\n        /* \"#utility.yul\":8999:9003   */\n      0x00\n        /* \"#utility.yul\":9022:9025   */\n      dup2\n        /* \"#utility.yul\":9014:9025   */\n      swap1\n      pop\n        /* \"#utility.yul\":9045:9048   */\n      dup2\n        /* \"#utility.yul\":9042:9043   */\n      0x00\n        /* \"#utility.yul\":9035:9049   */\n      mstore\n        /* \"#utility.yul\":9079:9083   */\n      0x20\n        /* \"#utility.yul\":9076:9077   */\n      0x00\n        /* \"#utility.yul\":9066:9084   */\n      keccak256\n        /* \"#utility.yul\":9058:9084   */\n      swap1\n      pop\n        /* \"#utility.yul\":8950:9091   */\n      swap2\n      swap1\n      pop\n      jump\t// out\n        /* \"#utility.yul\":9097:9190   */\n    tag_173:\n        /* \"#utility.yul\":9134:9140   */\n      0x00\n        /* \"#utility.yul\":9181:9183   */\n      0x20\n        /* \"#utility.yul\":9176:9178   */\n      0x1f\n        /* \"#utility.yul\":9169:9174   */\n      dup4\n        /* \"#utility.yul\":9165:9179   */\n      add\n        /* \"#utility.yul\":9161:9184   */\n      div\n        /* \"#utility.yul\":9151:9184   */\n      swap1\n      pop\n        /* \"#utility.yul\":9097:9190   */\n      swap2\n      swap1\n      pop\n      jump\t// out\n        /* \"#utility.yul\":9196:9303   */\n    tag_174:\n        /* \"#utility.yul\":9240:9248   */\n      0x00\n        /* \"#utility.yul\":9290:9295   */\n      dup3\n        /* \"#utility.yul\":9284:9288   */\n      dup3\n        /* \"#utility.yul\":9280:9296   */\n      shl\n        /* \"#utility.yul\":9259:9296   */\n      swap1\n      pop\n        /* \"#utility.yul\":9196:9303   */\n      swap3\n      swap2\n      pop\n      pop\n      jump\t// out\n        /* \"#utility.yul\":9309:9702   */\n    tag_175:\n        /* \"#utility.yul\":9378:9384   */\n      0x00\n        /* \"#utility.yul\":9428:9429   */\n      0x08\n        /* \"#utility.yul\":9416:9426   */\n      dup4\n        /* \"#utility.yul\":9412:9430   */\n      mul\n        /* \"#utility.yul\":9451:9548   */\n      tag_307\n        /* \"#utility.yul\":9481:9547   */\n      0xffffffffffffffffffffffffffffffffffffffffffffffffffffffffffffffff\n        /* \"#utility.yul\":9470:9479   */\n      dup3\n        /* \"#utility.yul\":9451:9548   */\n      tag_174\n      jump\t// in\n    tag_307:\n        /* \"#utility.yul\":9569:9608   */\n      tag_308\n        /* \"#utility.yul\":9599:9607   */\n      dup7\n        /* \"#utility.yul\":9588:9597   */\n      dup4\n        /* \"#utility.yul\":9569:9608   */\n      tag_174\n      jump\t// in\n    tag_308:\n        /* \"#utility.yul\":9557:9608   */\n      swap6\n      pop\n        /* \"#utility.yul\":9641:9645   */\n      dup1\n        /* \"#utility.yul\":9637:9646   */\n      not\n        /* \"#utility.yul\":9630:9635   */\n      dup5\n        /* \"#utility.yul\":9626:9647   */\n      and\n        /* \"#utility.yul\":9617:9647   */\n      swap4\n      pop\n        /* \"#utility.yul\":9690:9694   */\n      dup1\n        /* \"#utility.yul\":9680:9688   */\n      dup7\n        /* \"#utility.yul\":9676:9695   */\n      and\n        /* \"#utility.yul\":9669:9674   */\n      dup5\n        /* \"#utility.yul\":9666:9696   */\n      or\n        /* \"#utility.yul\":9656:9696   */\n      swap3\n      pop\n        /* \"#utility.yul\":9385:9702   */\n      pop\n      pop\n        /* \"#utility.yul\":9309:9702   */\n      swap4\n      swap3\n      pop\n      pop\n      pop\n      jump\t// out\n        /* \"#utility.yul\":9708:9768   */\n    tag_176:\n        /* \"#utility.yul\":9736:9739   */\n      0x00\n        /* \"#utility.yul\":9757:9762   */\n      dup2\n        /* \"#utility.yul\":9750:9762   */\n      swap1\n      pop\n        /* \"#utility.yul\":9708:9768   */\n      swap2\n      swap1\n      pop\n      jump\t// out\n        /* \"#utility.yul\":9774:9916   */\n    tag_177:\n        /* \"#utility.yul\":9824:9833   */\n      0x00\n        /* \"#utility.yul\":9857:9910   */\n      tag_311\n        /* \"#utility.yul\":9875:9909   */\n      tag_312\n        /* \"#utility.yul\":9884:9908   */\n      tag_313\n        /* \"#utility.yul\":9902:9907   */\n      dup5\n        /* \"#utility.yul\":9884:9908   */\n      tag_153\n      jump\t// in\n    tag_313:\n        /* \"#utility.yul\":9875:9909   */\n      tag_176\n      jump\t// in\n    tag_312:\n        /* \"#utility.yul\":9857:9910   */\n      tag_153\n      jump\t// in\n    tag_311:\n        /* \"#utility.yul\":9844:9910   */\n      swap1\n      pop\n        /* \"#utility.yul\":9774:9916   */\n      swap2\n      swap1\n      pop\n      jump\t// out\n        /* \"#utility.yul\":9922:9997   */\n    tag_178:\n        /* \"#utility.yul\":9965:9968   */\n      0x00\n        /* \"#utility.yul\":9986:9991   */\n      dup2\n        /* \"#utility.yul\":9979:9991   */\n      swap1\n      pop\n        /* \"#utility.yul\":9922:9997   */\n      swap2\n      swap1\n      pop\n      jump\t// out\n        /* \"#utility.yul\":10003:10272   */\n    tag_179:\n        /* \"#utility.yul\":10113:10152   */\n      tag_316\n        /* \"#utility.yul\":10144:10151   */\n      dup4\n        /* \"#utility.yul\":10113:10152   */\n      tag_177\n      jump\t// in\n    tag_316:\n        /* \"#utility.yul\":10174:10265   */\n      tag_317\n        /* \"#utility.yul\":10223:10264   */\n      tag_318\n        /* \"#utility.yul\":10247:10263   */\n      dup3\n        /* \"#utility.yul\":10223:10264   */\n      tag_178\n      jump\t// in\n    tag_318:\n        /* \"#utility.yul\":10215:10221   */\n      dup5\n        /* \"#utility.yul\":10208:10212   */\n      dup5\n        /* \"#utility.yul\":10202:10213   */\n      sload\n        /* \"#utility.yul\":10174:10265   */\n      tag_175\n      jump\t// in\n    tag_317:\n        /* \"#utility.yul\":10168:10172   */\n      dup3\n        /* \"#utility.yul\":10161:10266   */\n      sstore\n        /* \"#utility.yul\":10079:10272   */\n      pop\n        /* \"#utility.yul\":10003:10272   */\n      pop\n      pop\n      pop\n      jump\t// out\n        /* \"#utility.yul\":10278:10351   */\n    tag_180:\n        /* \"#utility.yul\":10323:10326   */\n      0x00\n        /* \"#utility.yul\":10278:10351   */\n      swap1\n      jump\t// out\n        /* \"#utility.yul\":10357:10546   */\n    tag_181:\n        /* \"#utility.yul\":10434:10466   */\n      tag_321\n      tag_180\n      jump\t// in\n    tag_321:\n        /* \"#utility.yul\":10475:10540   */\n      tag_322\n        /* \"#utility.yul\":10533:10539   */\n      dup2\n        /* \"#utility.yul\":10525:10531   */\n      dup5\n        /* \"#utility.yul\":10519:10523   */\n      dup5\n        /* \"#utility.yul\":10475:10540   */\n      tag_179\n      jump\t// in\n    tag_322:\n        /* \"#utility.yul\":10410:10546   */\n      pop\n        /* \"#utility.yul\":10357:10546   */\n      pop\n      pop\n      jump\t// out\n        /* \"#utility.yul\":10552:10738   */\n    tag_182:\n        /* \"#utility.yul\":10612:10732   */\n    tag_324:\n        /* \"#utility.yul\":10629:10632   */\n      dup2\n        /* \"#utility.yul\":10622:10627   */\n      dup2\n        /* \"#utility.yul\":10619:10633   */\n      lt\n        /* \"#utility.yul\":10612:10732   */\n      iszero\n      tag_326\n      jumpi\n        /* \"#utility.yul\":10683:10722   */\n      tag_327\n        /* \"#utility.yul\":10720:10721   */\n      0x00\n        /* \"#utility.yul\":10713:10718   */\n      dup3\n        /* \"#utility.yul\":10683:10722   */\n      tag_181\n      jump\t// in\n    tag_327:\n        /* \"#utility.yul\":10656:10657   */\n      0x01\n        /* \"#utility.yul\":10649:10654   */\n      dup2\n        /* \"#utility.yul\":10645:10658   */\n      add\n        /* \"#utility.yul\":10636:10658   */\n      swap1\n      pop\n        /* \"#utility.yul\":10612:10732   */\n      jump(tag_324)\n    tag_326:\n        /* \"#utility.yul\":10552:10738   */\n      pop\n      pop\n      jump\t// out\n        /* \"#utility.yul\":10744:11287   */\n    tag_183:\n        /* \"#utility.yul\":10845:10847   */\n      0x1f\n        /* \"#utility.yul\":10840:10843   */\n      dup3\n        /* \"#utility.yul\":10837:10848   */\n      gt\n        /* \"#utility.yul\":10834:11280   */\n      iszero\n      tag_329\n      jumpi\n        /* \"#utility.yul\":10879:10917   */\n      tag_330\n        /* \"#utility.yul\":10911:10916   */\n      dup2\n        /* \"#utility.yul\":10879:10917   */\n      tag_172\n      jump\t// in\n    tag_330:\n        /* \"#utility.yul\":10963:10992   */\n      tag_331\n        /* \"#utility.yul\":10981:10991   */\n      dup5\n        /* \"#utility.yul\":10963:10992   */\n      tag_173\n      jump\t// in\n    tag_331:\n        /* \"#utility.yul\":10953:10961   */\n      dup2\n        /* \"#utility.yul\":10949:10993   */\n      add\n        /* \"#utility.yul\":11146:11148   */\n      0x20\n        /* \"#utility.yul\":11134:11144   */\n      dup6\n        /* \"#utility.yul\":11131:11149   */\n      lt\n        /* \"#utility.yul\":11128:11177   */\n      iszero\n      tag_332\n      jumpi\n        /* \"#utility.yul\":11167:11175   */\n      dup2\n        /* \"#utility.yul\":11152:11175   */\n      swap1\n      pop\n        /* \"#utility.yul\":11128:11177   */\n    tag_332:\n        /* \"#utility.yul\":11190:11270   */\n      tag_333\n        /* \"#utility.yul\":11246:11268   */\n      tag_334\n        /* \"#utility.yul\":11264:11267   */\n      dup6\n        /* \"#utility.yul\":11246:11268   */\n      tag_173\n      jump\t// in\n    tag_334:\n        /* \"#utility.yul\":11236:11244   */\n      dup4\n        /* \"#utility.yul\":11232:11269   */\n      add\n        /* \"#utility.yul\":11219:11230   */\n      dup3\n        /* \"#utility.yul\":11190:11270   */\n      tag_182\n      jump\t// in\n    tag_333:\n        /* \"#utility.yul\":10849:11280   */\n      pop\n      pop\n        /* \"#utility.yul\":10834:11280   */\n    tag_329:\n        /* \"#utility.yul\":10744:11287   */\n      pop\n      pop\n      pop\n      jump\t// out\n        /* \"#utility.yul\":11293:11410   */\n    tag_184:\n        /* \"#utility.yul\":11347:11355   */\n      0x00\n        /* \"#utility.yul\":11397:11402   */\n      dup3\n        /* \"#utility.yul\":11391:11395   */\n      dup3\n        /* \"#utility.yul\":11387:11403   */\n      shr\n        /* \"#utility.yul\":11366:11403   */\n      swap1\n      pop\n        /* \"#utility.yul\":11293:11410   */\n      swap3\n      swap2\n      pop\n      pop\n      jump\t// out\n        /* \"#utility.yul\":11416:11585   */\n    tag_185:\n        /* \"#utility.yul\":11460:11466   */\n      0x00\n        /* \"#utility.yul\":11493:11544   */\n      tag_337\n        /* \"#utility.yul\":11541:11542   */\n      0x00\n        /* \"#utility.yul\":11537:11543   */\n      not\n        /* \"#utility.yul\":11529:11534   */\n      dup5\n        /* \"#utility.yul\":11526:11527   */\n      0x08\n        /* \"#utility.yul\":11522:11535   */\n      mul\n        /* \"#utility.yul\":11493:11544   */\n      tag_184\n      jump\t// in\n    tag_337:\n        /* \"#utility.yul\":11489:11545   */\n      not\n        /* \"#utility.yul\":11574:11578   */\n      dup1\n        /* \"#utility.yul\":11568:11572   */\n      dup4\n        /* \"#utility.yul\":11564:11579   */\n      and\n        /* \"#utility.yul\":11554:11579   */\n      swap2\n      pop\n        /* \"#utility.yul\":11467:11585   */\n      pop\n        /* \"#utility.yul\":11416:11585   */\n      swap3\n      swap2\n      pop\n      pop\n      jump\t// out\n        /* \"#utility.yul\":11590:11885   */\n    tag_186:\n        /* \"#utility.yul\":11666:11670   */\n      0x00\n        /* \"#utility.yul\":11812:11841   */\n      tag_339\n        /* \"#utility.yul\":11837:11840   */\n      dup4\n        /* \"#utility.yul\":11831:11835   */\n      dup4\n        /* \"#utility.yul\":11812:11841   */\n      tag_185\n      jump\t// in\n    tag_339:\n        /* \"#utility.yul\":11804:11841   */\n      swap2\n      pop\n        /* \"#utility.yul\":11874:11877   */\n      dup3\n        /* \"#utility.yul\":11871:11872   */\n      0x02\n        /* \"#utility.yul\":11867:11878   */\n      mul\n        /* \"#utility.yul\":11861:11865   */\n      dup3\n        /* \"#utility.yul\":11858:11879   */\n      or\n        /* \"#utility.yul\":11850:11879   */\n      swap1\n      pop\n        /* \"#utility.yul\":11590:11885   */\n      swap3\n      swap2\n      pop\n      pop\n      jump\t// out\n        /* \"#utility.yul\":11890:13285   */\n    tag_79:\n        /* \"#utility.yul\":12007:12044   */\n      tag_341\n        /* \"#utility.yul\":12040:12043   */\n      dup3\n        /* \"#utility.yul\":12007:12044   */\n      tag_156\n      jump\t// in\n    tag_341:\n        /* \"#utility.yul\":12109:12127   */\n      0xffffffffffffffff\n        /* \"#utility.yul\":12101:12107   */\n      dup2\n        /* \"#utility.yul\":12098:12128   */\n      gt\n        /* \"#utility.yul\":12095:12151   */\n      iszero\n      tag_342\n      jumpi\n        /* \"#utility.yul\":12131:12149   */\n      tag_343\n      tag_163\n      jump\t// in\n    tag_343:\n        /* \"#utility.yul\":12095:12151   */\n    tag_342:\n        /* \"#utility.yul\":12175:12213   */\n      tag_344\n        /* \"#utility.yul\":12207:12211   */\n      dup3\n        /* \"#utility.yul\":12201:12212   */\n      sload\n        /* \"#utility.yul\":12175:12213   */\n      tag_65\n      jump\t// in\n    tag_344:\n        /* \"#utility.yul\":12260:12327   */\n      tag_345\n        /* \"#utility.yul\":12320:12326   */\n      dup3\n        /* \"#utility.yul\":12312:12318   */\n      dup3\n        /* \"#utility.yul\":12306:12310   */\n      dup6\n        /* \"#utility.yul\":12260:12327   */\n      tag_183\n      jump\t// in\n    tag_345:\n        /* \"#utility.yul\":12354:12355   */\n      0x00\n        /* \"#utility.yul\":12378:12382   */\n      0x20\n        /* \"#utility.yul\":12365:12382   */\n      swap1\n      pop\n        /* \"#utility.yul\":12410:12412   */\n      0x1f\n        /* \"#utility.yul\":12402:12408   */\n      dup4\n        /* \"#utility.yul\":12399:12413   */\n      gt\n        /* \"#utility.yul\":12427:12428   */\n      0x01\n        /* \"#utility.yul\":12422:13040   */\n      dup2\n      eq\n      tag_347\n      jumpi\n        /* \"#utility.yul\":13084:13085   */\n      0x00\n        /* \"#utility.yul\":13101:13107   */\n      dup5\n        /* \"#utility.yul\":13098:13175   */\n      iszero\n      tag_348\n      jumpi\n        /* \"#utility.yul\":13150:13159   */\n      dup3\n        /* \"#utility.yul\":13145:13148   */\n      dup8\n        /* \"#utility.yul\":13141:13160   */\n      add\n        /* \"#utility.yul\":13135:13161   */\n      mload\n        /* \"#utility.yul\":13126:13161   */\n      swap1\n      pop\n        /* \"#utility.yul\":13098:13175   */\n    tag_348:\n        /* \"#utility.yul\":13201:13268   */\n      tag_349\n        /* \"#utility.yul\":13261:13267   */\n      dup6\n        /* \"#utility.yul\":13254:13259   */\n      dup3\n        /* \"#utility.yul\":13201:13268   */\n      tag_186\n      jump\t// in\n    tag_349:\n        /* \"#utility.yul\":13195:13199   */\n      dup7\n        /* \"#utility.yul\":13188:13269   */\n      sstore\n        /* \"#utility.yul\":13057:13279   */\n      pop\n        /* \"#utility.yul\":12392:13279   */\n      jump(tag_346)\n        /* \"#utility.yul\":12422:13040   */\n    tag_347:\n        /* \"#utility.yul\":12474:12478   */\n      0x1f\n        /* \"#utility.yul\":12470:12479   */\n      not\n        /* \"#utility.yul\":12462:12468   */\n      dup5\n        /* \"#utility.yul\":12458:12480   */\n      and\n        /* \"#utility.yul\":12508:12545   */\n      tag_350\n        /* \"#utility.yul\":12540:12544   */\n      dup7\n        /* \"#utility.yul\":12508:12545   */\n      tag_172\n      jump\t// in\n    tag_350:\n        /* \"#utility.yul\":12567:12568   */\n      0x00\n        /* \"#utility.yul\":12581:12789   */\n    tag_351:\n        /* \"#utility.yul\":12595:12602   */\n      dup3\n        /* \"#utility.yul\":12592:12593   */\n      dup2\n        /* \"#utility.yul\":12589:12603   */\n      lt\n        /* \"#utility.yul\":12581:12789   */\n      iszero\n      tag_353\n      jumpi\n        /* \"#utility.yul\":12674:12683   */\n      dup5\n        /* \"#utility.yul\":12669:12672   */\n      dup10\n        /* \"#utility.yul\":12665:12684   */\n      add\n        /* \"#utility.yul\":12659:12685   */\n      mload\n        /* \"#utility.yul\":12651:12657   */\n      dup3\n        /* \"#utility.yul\":12644:12686   */\n      sstore\n        /* \"#utility.yul\":12725:12726   */\n      0x01\n        /* \"#utility.yul\":12717:12723   */\n      dup3\n        /* \"#utility.yul\":12713:12727   */\n      add\n        /* \"#utility.yul\":12703:12727   */\n      swap2\n      pop\n        /* \"#utility.yul\":12772:12774   */\n      0x20\n        /* \"#utility.yul\":12761:12770   */\n      dup6\n        /* \"#utility.yul\":12757:12775   */\n      add\n        /* \"#utility.yul\":12744:12775   */\n      swap5\n      pop\n        /* \"#utility.yul\":12618:12622   */\n      0x20\n        /* \"#utility.yul\":12615:12616   */\n      dup2\n        /* \"#utility.yul\":12611:12623   */\n      add\n        /* \"#utility.yul\":12606:12623   */\n      swap1\n      pop\n        /* \"#utility.yul\":12581:12789   */\n      jump(tag_351)\n    tag_353:\n        /* \"#utility.yul\":12817:12823   */\n      dup7\n        /* \"#utility.yul\":12808:12815   */\n      dup4\n        /* \"#utility.yul\":12805:12824   */\n      lt\n        /* \"#utility.yul\":12802:12981   */\n      iszero\n      tag_354\n      jumpi\n        /* \"#utility.yul\":12875:12884   */\n      dup5\n        /* \"#utility.yul\":12870:12873   */\n      dup10\n        /* \"#utility.yul\":12866:12885   */\n      add\n        /* \"#utility.yul\":12860:12886   */\n      mload\n        /* \"#utility.yul\":12918:12966   */\n      tag_355\n        /* \"#utility.yul\":12960:12964   */\n      0x1f\n        /* \"#utility.yul\":12952:12958   */\n      dup10\n        /* \"#utility.yul\":12948:12965   */\n      and\n        /* \"#utility.yul\":12937:12946   */\n      dup3\n        /* \"#utility.yul\":12918:12966   */\n      tag_185\n      jump\t// in\n    tag_355:\n        /* \"#utility.yul\":12910:12916   */\n      dup4\n        /* \"#utility.yul\":12903:12967   */\n      sstore\n        /* \"#utility.yul\":12825:12981   */\n      pop\n        /* \"#utility.yul\":12802:12981   */\n    tag_354:\n        /* \"#utility.yul\":13027:13028   */\n      0x01\n        /* \"#utility.yul\":13023:13024   */\n      0x02\n        /* \"#utility.yul\":13015:13021   */\n      dup9\n        /* \"#utility.yul\":13011:13025   */\n      mul\n        /* \"#utility.yul\":13007:13029   */\n      add\n        /* \"#utility.yul\":13001:13005   */\n      dup9\n        /* \"#utility.yul\":12994:13030   */\n      sstore\n        /* \"#utility.yul\":12429:13040   */\n      pop\n      pop\n      pop\n        /* \"#utility.yul\":12392:13279   */\n    tag_346:\n      pop\n        /* \"#utility.yul\":11982:13285   */\n      pop\n      pop\n      pop\n        /* \"#utility.yul\":11890:13285   */\n      pop\n      pop\n      jump\t// out\n        /* \"#utility.yul\":13291:13439   */\n    tag_187:\n        /* \"#utility.yul\":13393:13404   */\n      0x00\n        /* \"#utility.yul\":13430:13433   */\n      dup2\n        /* \"#utility.yul\":13415:13433   */\n      swap1\n      pop\n        /* \"#utility.yul\":13291:13439   */\n      swap3\n      swap2\n      pop\n      pop\n      jump\t// out\n        /* \"#utility.yul\":13445:13835   */\n    tag_188:\n        /* \"#utility.yul\":13551:13554   */\n      0x00\n        /* \"#utility.yul\":13579:13618   */\n      tag_358\n        /* \"#utility.yul\":13612:13617   */\n      dup3\n        /* \"#utility.yul\":13579:13618   */\n      tag_156\n      jump\t// in\n    tag_358:\n        /* \"#utility.yul\":13634:13723   */\n      tag_359\n        /* \"#utility.yul\":13716:13722   */\n      dup2\n        /* \"#utility.yul\":13711:13714   */\n      dup6\n        /* \"#utility.yul\":13634:13723   */\n      tag_187\n      jump\t// in\n    tag_359:\n        /* \"#utility.yul\":13627:13723   */\n      swap4\n      pop\n        /* \"#utility.yul\":13732:13797   */\n      tag_360\n        /* \"#utility.yul\":13790:13796   */\n      dup2\n        /* \"#utility.yul\":13785:13788   */\n      dup6\n        /* \"#utility.yul\":13778:13782   */\n      0x20\n        /* \"#utility.yul\":13771:13776   */\n      dup7\n        /* \"#utility.yul\":13767:13783   */\n      add\n        /* \"#utility.yul\":13732:13797   */\n      tag_158\n      jump\t// in\n    tag_360:\n        /* \"#utility.yul\":13822:13828   */\n      dup1\n        /* \"#utility.yul\":13817:13820   */\n      dup5\n        /* \"#utility.yul\":13813:13829   */\n      add\n        /* \"#utility.yul\":13806:13829   */\n      swap2\n      pop\n        /* \"#utility.yul\":13555:13835   */\n      pop\n        /* \"#utility.yul\":13445:13835   */\n      swap3\n      swap2\n      pop\n      pop\n      jump\t// out\n        /* \"#utility.yul\":13841:14116   */\n    tag_82:\n        /* \"#utility.yul\":13973:13976   */\n      0x00\n        /* \"#utility.yul\":13995:14090   */\n      tag_362\n        /* \"#utility.yul\":14086:14089   */\n      dup3\n        /* \"#utility.yul\":14077:14083   */\n      dup5\n        /* \"#utility.yul\":13995:14090   */\n      tag_188\n      jump\t// in\n    tag_362:\n        /* \"#utility.yul\":13988:14090   */\n      swap2\n      pop\n        /* \"#utility.yul\":14107:14110   */\n      dup2\n        /* \"#utility.yul\":14100:14110   */\n      swap1\n      pop\n        /* \"#utility.yul\":13841:14116   */\n      swap3\n      swap2\n      pop\n      pop\n      jump\t// out\n        /* \"#utility.yul\":14122:14297   */\n    tag_189:\n        /* \"#utility.yul\":14262:14289   */\n      0x566f74696e67206973206e6f7420636c6f736564207965742e00000000000000\n        /* \"#utility.yul\":14258:14259   */\n      0x00\n        /* \"#utility.yul\":14250:14256   */\n      dup3\n        /* \"#utility.yul\":14246:14260   */\n      add\n        /* \"#utility.yul\":14239:14290   */\n      mstore\n        /* \"#utility.yul\":14122:14297   */\n      pop\n      jump\t// out\n        /* \"#utility.yul\":14303:14669   */\n    tag_190:\n        /* \"#utility.yul\":14445:14448   */\n      0x00\n        /* \"#utility.yul\":14466:14533   */\n      tag_365\n        /* \"#utility.yul\":14530:14532   */\n      0x19\n        /* \"#utility.yul\":14525:14528   */\n      dup4\n        /* \"#utility.yul\":14466:14533   */\n      tag_157\n      jump\t// in\n    tag_365:\n        /* \"#utility.yul\":14459:14533   */\n      swap2\n      pop\n        /* \"#utility.yul\":14542:14635   */\n      tag_366\n        /* \"#utility.yul\":14631:14634   */\n      dup3\n        /* \"#utility.yul\":14542:14635   */\n      tag_189\n      jump\t// in\n    tag_366:\n        /* \"#utility.yul\":14660:14662   */\n      0x20\n        /* \"#utility.yul\":14655:14658   */\n      dup3\n        /* \"#utility.yul\":14651:14663   */\n      add\n        /* \"#utility.yul\":14644:14663   */\n      swap1\n      pop\n        /* \"#utility.yul\":14303:14669   */\n      swap2\n      swap1\n      pop\n      jump\t// out\n        /* \"#utility.yul\":14675:15094   */\n    tag_86:\n        /* \"#utility.yul\":14841:14845   */\n      0x00\n        /* \"#utility.yul\":14879:14881   */\n      0x20\n        /* \"#utility.yul\":14868:14877   */\n      dup3\n        /* \"#utility.yul\":14864:14882   */\n      add\n        /* \"#utility.yul\":14856:14882   */\n      swap1\n      pop\n        /* \"#utility.yul\":14928:14937   */\n      dup2\n        /* \"#utility.yul\":14922:14926   */\n      dup2\n        /* \"#utility.yul\":14918:14938   */\n      sub\n        /* \"#utility.yul\":14914:14915   */\n      0x00\n        /* \"#utility.yul\":14903:14912   */\n      dup4\n        /* \"#utility.yul\":14899:14916   */\n      add\n        /* \"#utility.yul\":14892:14939   */\n      mstore\n        /* \"#utility.yul\":14956:15087   */\n      tag_368\n        /* \"#utility.yul\":15082:15086   */\n      dup2\n        /* \"#utility.yul\":14956:15087   */\n      tag_190\n      jump\t// in\n    tag_368:\n        /* \"#utility.yul\":14948:15087   */\n      swap1\n      pop\n        /* \"#utility.yul\":14675:15094   */\n      swap2\n      swap1\n      pop\n      jump\t// out\n        /* \"#utility.yul\":15100:15280   */\n    tag_92:\n        /* \"#utility.yul\":15148:15225   */\n      0x4e487b7100000000000000000000000000000000000000000000000000000000\n        /* \"#utility.yul\":15145:15146   */\n      0x00\n        /* \"#utility.yul\":15138:15226   */\n      mstore\n        /* \"#utility.yul\":15245:15249   */\n      0x32\n        /* \"#utility.yul\":15242:15243   */\n      0x04\n        /* \"#utility.yul\":15235:15250   */\n      mstore\n        /* \"#utility.yul\":15269:15273   */\n      0x24\n        /* \"#utility.yul\":15266:15267   */\n      0x00\n        /* \"#utility.yul\":15259:15274   */\n      revert\n        /* \"#utility.yul\":15310:16184   */\n    tag_191:\n        /* \"#utility.yul\":15413:15416   */\n      0x00\n        /* \"#utility.yul\":15450:15455   */\n      dup2\n        /* \"#utility.yul\":15444:15456   */\n      sload\n        /* \"#utility.yul\":15479:15515   */\n      tag_371\n        /* \"#utility.yul\":15505:15514   */\n      dup2\n        /* \"#utility.yul\":15479:15515   */\n      tag_65\n      jump\t// in\n    tag_371:\n        /* \"#utility.yul\":15531:15620   */\n      tag_372\n        /* \"#utility.yul\":15613:15619   */\n      dup2\n        /* \"#utility.yul\":15608:15611   */\n      dup7\n        /* \"#utility.yul\":15531:15620   */\n      tag_187\n      jump\t// in\n    tag_372:\n        /* \"#utility.yul\":15524:15620   */\n      swap5\n      pop\n        /* \"#utility.yul\":15651:15652   */\n      0x01\n        /* \"#utility.yul\":15640:15649   */\n      dup3\n        /* \"#utility.yul\":15636:15653   */\n      and\n        /* \"#utility.yul\":15667:15668   */\n      0x00\n        /* \"#utility.yul\":15662:15828   */\n      dup2\n      eq\n      tag_374\n      jumpi\n        /* \"#utility.yul\":15842:15843   */\n      0x01\n        /* \"#utility.yul\":15837:16178   */\n      dup2\n      eq\n      tag_375\n      jumpi\n        /* \"#utility.yul\":15629:16178   */\n      jump(tag_373)\n        /* \"#utility.yul\":15662:15828   */\n    tag_374:\n        /* \"#utility.yul\":15746:15750   */\n      0xff\n        /* \"#utility.yul\":15742:15751   */\n      not\n        /* \"#utility.yul\":15731:15740   */\n      dup4\n        /* \"#utility.yul\":15727:15752   */\n      and\n        /* \"#utility.yul\":15722:15725   */\n      dup7\n        /* \"#utility.yul\":15715:15753   */\n      mstore\n        /* \"#utility.yul\":15808:15814   */\n      dup2\n        /* \"#utility.yul\":15801:15815   */\n      iszero\n        /* \"#utility.yul\":15794:15816   */\n      iszero\n        /* \"#utility.yul\":15786:15792   */\n      dup3\n        /* \"#utility.yul\":15782:15817   */\n      mul\n        /* \"#utility.yul\":15777:15780   */\n      dup7\n        /* \"#utility.yul\":15773:15818   */\n      add\n        /* \"#utility.yul\":15766:15818   */\n      swap4\n      pop\n        /* \"#utility.yul\":15662:15828   */\n      jump(tag_373)\n        /* \"#utility.yul\":15837:16178   */\n    tag_375:\n        /* \"#utility.yul\":15904:15942   */\n      tag_376\n        /* \"#utility.yul\":15936:15941   */\n      dup6\n        /* \"#utility.yul\":15904:15942   */\n      tag_172\n      jump\t// in\n    tag_376:\n        /* \"#utility.yul\":15964:15965   */\n      0x00\n        /* \"#utility.yul\":15978:16132   */\n    tag_377:\n        /* \"#utility.yul\":15992:15998   */\n      dup4\n        /* \"#utility.yul\":15989:15990   */\n      dup2\n        /* \"#utility.yul\":15986:15999   */\n      lt\n        /* \"#utility.yul\":15978:16132   */\n      iszero\n      tag_379\n      jumpi\n        /* \"#utility.yul\":16066:16073   */\n      dup2\n        /* \"#utility.yul\":16060:16074   */\n      sload\n        /* \"#utility.yul\":16056:16057   */\n      dup2\n        /* \"#utility.yul\":16051:16054   */\n      dup10\n        /* \"#utility.yul\":16047:16058   */\n      add\n        /* \"#utility.yul\":16040:16075   */\n      mstore\n        /* \"#utility.yul\":16116:16117   */\n      0x01\n        /* \"#utility.yul\":16107:16114   */\n      dup3\n        /* \"#utility.yul\":16103:16118   */\n      add\n        /* \"#utility.yul\":16092:16118   */\n      swap2\n      pop\n        /* \"#utility.yul\":16014:16018   */\n      0x20\n        /* \"#utility.yul\":16011:16012   */\n      dup2\n        /* \"#utility.yul\":16007:16019   */\n      add\n        /* \"#utility.yul\":16002:16019   */\n      swap1\n      pop\n        /* \"#utility.yul\":15978:16132   */\n      jump(tag_377)\n    tag_379:\n        /* \"#utility.yul\":16161:16167   */\n      dup4\n        /* \"#utility.yul\":16156:16159   */\n      dup9\n        /* \"#utility.yul\":16152:16168   */\n      add\n        /* \"#utility.yul\":16145:16168   */\n      swap6\n      pop\n        /* \"#utility.yul\":15844:16178   */\n      pop\n      pop\n        /* \"#utility.yul\":15629:16178   */\n    tag_373:\n      pop\n        /* \"#utility.yul\":15417:16184   */\n      pop\n      pop\n        /* \"#utility.yul\":15310:16184   */\n      swap3\n      swap2\n      pop\n      pop\n      jump\t// out\n        /* \"#utility.yul\":16190:16459   */\n    tag_95:\n        /* \"#utility.yul\":16319:16322   */\n      0x00\n        /* \"#utility.yul\":16341:16433   */\n      tag_381\n        /* \"#utility.yul\":16429:16432   */\n      dup3\n        /* \"#utility.yul\":16420:16426   */\n      dup5\n        /* \"#utility.yul\":16341:16433   */\n      tag_191\n      jump\t// in\n    tag_381:\n        /* \"#utility.yul\":16334:16433   */\n      swap2\n      pop\n        /* \"#utility.yul\":16450:16453   */\n      dup2\n        /* \"#utility.yul\":16443:16453   */\n      swap1\n      pop\n        /* \"#utility.yul\":16190:16459   */\n      swap3\n      swap2\n      pop\n      pop\n      jump\t// out\n        /* \"#utility.yul\":16465:16638   */\n    tag_192:\n        /* \"#utility.yul\":16605:16630   */\n      0x596f75206861766520616c726561647920766f7465642e000000000000000000\n        /* \"#utility.yul\":16601:16602   */\n      0x00\n        /* \"#utility.yul\":16593:16599   */\n      dup3\n        /* \"#utility.yul\":16589:16603   */\n      add\n        /* \"#utility.yul\":16582:16631   */\n      mstore\n        /* \"#utility.yul\":16465:16638   */\n      pop\n      jump\t// out\n        /* \"#utility.yul\":16644:17010   */\n    tag_193:\n        /* \"#utility.yul\":16786:16789   */\n      0x00\n        /* \"#utility.yul\":16807:16874   */\n      tag_384\n        /* \"#utility.yul\":16871:16873   */\n      0x17\n        /* \"#utility.yul\":16866:16869   */\n      dup4\n        /* \"#utility.yul\":16807:16874   */\n      tag_157\n      jump\t// in\n    tag_384:\n        /* \"#utility.yul\":16800:16874   */\n      swap2\n      pop\n        /* \"#utility.yul\":16883:16976   */\n      tag_385\n        /* \"#utility.yul\":16972:16975   */\n      dup3\n        /* \"#utility.yul\":16883:16976   */\n      tag_192\n      jump\t// in\n    tag_385:\n        /* \"#utility.yul\":17001:17003   */\n      0x20\n        /* \"#utility.yul\":16996:16999   */\n      dup3\n        /* \"#utility.yul\":16992:17004   */\n      add\n        /* \"#utility.yul\":16985:17004   */\n      swap1\n      pop\n        /* \"#utility.yul\":16644:17010   */\n      swap2\n      swap1\n      pop\n      jump\t// out\n        /* \"#utility.yul\":17016:17435   */\n    tag_118:\n        /* \"#utility.yul\":17182:17186   */\n      0x00\n        /* \"#utility.yul\":17220:17222   */\n      0x20\n        /* \"#utility.yul\":17209:17218   */\n      dup3\n        /* \"#utility.yul\":17205:17223   */\n      add\n        /* \"#utility.yul\":17197:17223   */\n      swap1\n      pop\n        /* \"#utility.yul\":17269:17278   */\n      dup2\n        /* \"#utility.yul\":17263:17267   */\n      dup2\n        /* \"#utility.yul\":17259:17279   */\n      sub\n        /* \"#utility.yul\":17255:17256   */\n      0x00\n        /* \"#utility.yul\":17244:17253   */\n      dup4\n        /* \"#utility.yul\":17240:17257   */\n      add\n        /* \"#utility.yul\":17233:17280   */\n      mstore\n        /* \"#utility.yul\":17297:17428   */\n      tag_387\n        /* \"#utility.yul\":17423:17427   */\n      dup2\n        /* \"#utility.yul\":17297:17428   */\n      tag_193\n      jump\t// in\n    tag_387:\n        /* \"#utility.yul\":17289:17428   */\n      swap1\n      pop\n        /* \"#utility.yul\":17016:17435   */\n      swap2\n      swap1\n      pop\n      jump\t// out\n        /* \"#utility.yul\":17441:17616   */\n    tag_194:\n        /* \"#utility.yul\":17581:17608   */\n      0x596f75206e65656420746f206c6f6720696e2066697273742e00000000000000\n        /* \"#utility.yul\":17577:17578   */\n      0x00\n        /* \"#utility.yul\":17569:17575   */\n      dup3\n        /* \"#utility.yul\":17565:17579   */\n      add\n        /* \"#utility.yul\":17558:17609   */\n      mstore\n        /* \"#utility.yul\":17441:17616   */\n      pop\n      jump\t// out\n        /* \"#utility.yul\":17622:17988   */\n    tag_195:\n        /* \"#utility.yul\":17764:17767   */\n      0x00\n        /* \"#utility.yul\":17785:17852   */\n      tag_390\n        /* \"#utility.yul\":17849:17851   */\n      0x19\n        /* \"#utility.yul\":17844:17847   */\n      dup4\n        /* \"#utility.yul\":17785:17852   */\n      tag_157\n      jump\t// in\n    tag_390:\n        /* \"#utility.yul\":17778:17852   */\n      swap2\n      pop\n        /* \"#utility.yul\":17861:17954   */\n      tag_391\n        /* \"#utility.yul\":17950:17953   */\n      dup3\n        /* \"#utility.yul\":17861:17954   */\n      tag_194\n      jump\t// in\n    tag_391:\n        /* \"#utility.yul\":17979:17981   */\n      0x20\n        /* \"#utility.yul\":17974:17977   */\n      dup3\n        /* \"#utility.yul\":17970:17982   */\n      add\n        /* \"#utility.yul\":17963:17982   */\n      swap1\n      pop\n        /* \"#utility.yul\":17622:17988   */\n      swap2\n      swap1\n      pop\n      jump\t// out\n        /* \"#utility.yul\":17994:18413   */\n    tag_122:\n        /* \"#utility.yul\":18160:18164   */\n      0x00\n        /* \"#utility.yul\":18198:18200   */\n      0x20\n        /* \"#utility.yul\":18187:18196   */\n      dup3\n        /* \"#utility.yul\":18183:18201   */\n      add\n        /* \"#utility.yul\":18175:18201   */\n      swap1\n      pop\n        /* \"#utility.yul\":18247:18256   */\n      dup2\n        /* \"#utility.yul\":18241:18245   */\n      dup2\n        /* \"#utility.yul\":18237:18257   */\n      sub\n        /* \"#utility.yul\":18233:18234   */\n      0x00\n        /* \"#utility.yul\":18222:18231   */\n      dup4\n        /* \"#utility.yul\":18218:18235   */\n      add\n        /* \"#utility.yul\":18211:18258   */\n      mstore\n        /* \"#utility.yul\":18275:18406   */\n      tag_393\n        /* \"#utility.yul\":18401:18405   */\n      dup2\n        /* \"#utility.yul\":18275:18406   */\n      tag_195\n      jump\t// in\n    tag_393:\n        /* \"#utility.yul\":18267:18406   */\n      swap1\n      pop\n        /* \"#utility.yul\":17994:18413   */\n      swap2\n      swap1\n      pop\n      jump\t// out\n        /* \"#utility.yul\":18419:18587   */\n    tag_196:\n        /* \"#utility.yul\":18559:18579   */\n      0x496e76616c69642063616e6469646174652e0000000000000000000000000000\n        /* \"#utility.yul\":18555:18556   */\n      0x00\n        /* \"#utility.yul\":18547:18553   */\n      dup3\n        /* \"#utility.yul\":18543:18557   */\n      add\n        /* \"#utility.yul\":18536:18580   */\n      mstore\n        /* \"#utility.yul\":18419:18587   */\n      pop\n      jump\t// out\n        /* \"#utility.yul\":18593:18959   */\n    tag_197:\n        /* \"#utility.yul\":18735:18738   */\n      0x00\n        /* \"#utility.yul\":18756:18823   */\n      tag_396\n        /* \"#utility.yul\":18820:18822   */\n      0x12\n        /* \"#utility.yul\":18815:18818   */\n      dup4\n        /* \"#utility.yul\":18756:18823   */\n      tag_157\n      jump\t// in\n    tag_396:\n        /* \"#utility.yul\":18749:18823   */\n      swap2\n      pop\n        /* \"#utility.yul\":18832:18925   */\n      tag_397\n        /* \"#utility.yul\":18921:18924   */\n      dup3\n        /* \"#utility.yul\":18832:18925   */\n      tag_196\n      jump\t// in\n    tag_397:\n        /* \"#utility.yul\":18950:18952   */\n      0x20\n        /* \"#utility.yul\":18945:18948   */\n      dup3\n        /* \"#utility.yul\":18941:18953   */\n      add\n        /* \"#utility.yul\":18934:18953   */\n      swap1\n      pop\n        /* \"#utility.yul\":18593:18959   */\n      swap2\n      swap1\n      pop\n      jump\t// out\n        /* \"#utility.yul\":18965:19384   */\n    tag_127:\n        /* \"#utility.yul\":19131:19135   */\n      0x00\n        /* \"#utility.yul\":19169:19171   */\n      0x20\n        /* \"#utility.yul\":19158:19167   */\n      dup3\n        /* \"#utility.yul\":19154:19172   */\n      add\n        /* \"#utility.yul\":19146:19172   */\n      swap1\n      pop\n        /* \"#utility.yul\":19218:19227   */\n      dup2\n        /* \"#utility.yul\":19212:19216   */\n      dup2\n        /* \"#utility.yul\":19208:19228   */\n      sub\n        /* \"#utility.yul\":19204:19205   */\n      0x00\n        /* \"#utility.yul\":19193:19202   */\n      dup4\n        /* \"#utility.yul\":19189:19206   */\n      add\n        /* \"#utility.yul\":19182:19229   */\n      mstore\n        /* \"#utility.yul\":19246:19377   */\n      tag_399\n        /* \"#utility.yul\":19372:19376   */\n      dup2\n        /* \"#utility.yul\":19246:19377   */\n      tag_197\n      jump\t// in\n    tag_399:\n        /* \"#utility.yul\":19238:19377   */\n      swap1\n      pop\n        /* \"#utility.yul\":18965:19384   */\n      swap2\n      swap1\n      pop\n      jump\t// out\n        /* \"#utility.yul\":19390:19557   */\n    tag_198:\n        /* \"#utility.yul\":19530:19549   */\n      0x566f74696e6720697320636c6f7365642e000000000000000000000000000000\n        /* \"#utility.yul\":19526:19527   */\n      0x00\n        /* \"#utility.yul\":19518:19524   */\n      dup3\n        /* \"#utility.yul\":19514:19528   */\n      add\n        /* \"#utility.yul\":19507:19550   */\n      mstore\n        /* \"#utility.yul\":19390:19557   */\n      pop\n      jump\t// out\n        /* \"#utility.yul\":19563:19929   */\n    tag_199:\n        /* \"#utility.yul\":19705:19708   */\n      0x00\n        /* \"#utility.yul\":19726:19793   */\n      tag_402\n        /* \"#utility.yul\":19790:19792   */\n      0x11\n        /* \"#utility.yul\":19785:19788   */\n      dup4\n        /* \"#utility.yul\":19726:19793   */\n      tag_157\n      jump\t// in\n    tag_402:\n        /* \"#utility.yul\":19719:19793   */\n      swap2\n      pop\n        /* \"#utility.yul\":19802:19895   */\n      tag_403\n        /* \"#utility.yul\":19891:19894   */\n      dup3\n        /* \"#utility.yul\":19802:19895   */\n      tag_198\n      jump\t// in\n    tag_403:\n        /* \"#utility.yul\":19920:19922   */\n      0x20\n        /* \"#utility.yul\":19915:19918   */\n      dup3\n        /* \"#utility.yul\":19911:19923   */\n      add\n        /* \"#utility.yul\":19904:19923   */\n      swap1\n      pop\n        /* \"#utility.yul\":19563:19929   */\n      swap2\n      swap1\n      pop\n      jump\t// out\n        /* \"#utility.yul\":19935:20354   */\n    tag_130:\n        /* \"#utility.yul\":20101:20105   */\n      0x00\n        /* \"#utility.yul\":20139:20141   */\n      0x20\n        /* \"#utility.yul\":20128:20137   */\n      dup3\n        /* \"#utility.yul\":20124:20142   */\n      add\n        /* \"#utility.yul\":20116:20142   */\n      swap1\n      pop\n        /* \"#utility.yul\":20188:20197   */\n      dup2\n        /* \"#utility.yul\":20182:20186   */\n      dup2\n        /* \"#utility.yul\":20178:20198   */\n      sub\n        /* \"#utility.yul\":20174:20175   */\n      0x00\n        /* \"#utility.yul\":20163:20172   */\n      dup4\n        /* \"#utility.yul\":20159:20176   */\n      add\n        /* \"#utility.yul\":20152:20199   */\n      mstore\n        /* \"#utility.yul\":20216:20347   */\n      tag_405\n        /* \"#utility.yul\":20342:20346   */\n      dup2\n        /* \"#utility.yul\":20216:20347   */\n      tag_199\n      jump\t// in\n    tag_405:\n        /* \"#utility.yul\":20208:20347   */\n      swap1\n      pop\n        /* \"#utility.yul\":19935:20354   */\n      swap2\n      swap1\n      pop\n      jump\t// out\n        /* \"#utility.yul\":20360:20540   */\n    tag_200:\n        /* \"#utility.yul\":20408:20485   */\n      0x4e487b7100000000000000000000000000000000000000000000000000000000\n        /* \"#utility.yul\":20405:20406   */\n      0x00\n        /* \"#utility.yul\":20398:20486   */\n      mstore\n        /* \"#utility.yul\":20505:20509   */\n      0x11\n        /* \"#utility.yul\":20502:20503   */\n      0x04\n        /* \"#utility.yul\":20495:20510   */\n      mstore\n        /* \"#utility.yul\":20529:20533   */\n      0x24\n        /* \"#utility.yul\":20526:20527   */\n      0x00\n        /* \"#utility.yul\":20519:20534   */\n      revert\n        /* \"#utility.yul\":20546:20779   */\n    tag_133:\n        /* \"#utility.yul\":20585:20588   */\n      0x00\n        /* \"#utility.yul\":20608:20632   */\n      tag_408\n        /* \"#utility.yul\":20626:20631   */\n      dup3\n        /* \"#utility.yul\":20608:20632   */\n      tag_153\n      jump\t// in\n    tag_408:\n        /* \"#utility.yul\":20599:20632   */\n      swap2\n      pop\n        /* \"#utility.yul\":20654:20720   */\n      0xffffffffffffffffffffffffffffffffffffffffffffffffffffffffffffffff\n        /* \"#utility.yul\":20647:20652   */\n      dup3\n        /* \"#utility.yul\":20644:20721   */\n      sub\n        /* \"#utility.yul\":20641:20744   */\n      tag_409\n      jumpi\n        /* \"#utility.yul\":20724:20742   */\n      tag_410\n      tag_200\n      jump\t// in\n    tag_410:\n        /* \"#utility.yul\":20641:20744   */\n    tag_409:\n        /* \"#utility.yul\":20771:20772   */\n      0x01\n        /* \"#utility.yul\":20764:20769   */\n      dup3\n        /* \"#utility.yul\":20760:20773   */\n      add\n        /* \"#utility.yul\":20753:20773   */\n      swap1\n      pop\n        /* \"#utility.yul\":20546:20779   */\n      swap2\n      swap1\n      pop\n      jump\t// out\n\n    auxdata: 0xa2646970667358221220ab141ca3e8e065a0d806615ce44a0398d4255a7f1875e58752394d6313b7b65164736f6c63430008160033\n}\n",
				"bytecode": {
					"linkReferences": {},
					"object": "608060405260405180606001604052806040518060400160405280600481526020017f4d6172790000000000000000000000000000000000000000000000000000000081525081526020016040518060400160405280600481526020017f4a616e650000000000000000000000000000000000000000000000000000000081525081526020016040518060400160405280600581526020017f4a6f7963650000000000000000000000000000000000000000000000000000008152508152506002906003620000d0929190620000fd565b505f60045f6101000a81548160ff021916908315150217905550348015620000f6575f80fd5b506200052a565b828054828255905f5260205f2090810192821562000148579160200282015b828111156200014757825182908162000136919062000446565b50916020019190600101906200011c565b5b5090506200015791906200015b565b5090565b5b808211156200017e575f818162000174919062000182565b506001016200015c565b5090565b508054620001909062000246565b5f825580601f10620001a35750620001c2565b601f0160209004905f5260205f2090810190620001c19190620001c5565b5b50565b5b80821115620001de575f815f905550600101620001c6565b5090565b5f81519050919050565b7f4e487b71000000000000000000000000000000000000000000000000000000005f52604160045260245ffd5b7f4e487b71000000000000000000000000000000000000000000000000000000005f52602260045260245ffd5b5f60028204905060018216806200025e57607f821691505b60208210810362000274576200027362000219565b5b50919050565b5f819050815f5260205f209050919050565b5f6020601f8301049050919050565b5f82821b905092915050565b5f60088302620002d87fffffffffffffffffffffffffffffffffffffffffffffffffffffffffffffffff826200029b565b620002e486836200029b565b95508019841693508086168417925050509392505050565b5f819050919050565b5f819050919050565b5f6200032e620003286200032284620002fc565b62000305565b620002fc565b9050919050565b5f819050919050565b62000349836200030e565b62000361620003588262000335565b848454620002a7565b825550505050565b5f90565b6200037762000369565b620003848184846200033e565b505050565b5b81811015620003ab576200039f5f826200036d565b6001810190506200038a565b5050565b601f821115620003fa57620003c4816200027a565b620003cf846200028c565b81016020851015620003df578190505b620003f7620003ee856200028c565b83018262000389565b50505b505050565b5f82821c905092915050565b5f6200041c5f1984600802620003ff565b1980831691505092915050565b5f6200043683836200040b565b9150826002028217905092915050565b6200045182620001e2565b67ffffffffffffffff8111156200046d576200046c620001ec565b5b62000479825462000246565b62000486828285620003af565b5f60209050601f831160018114620004bc575f8415620004a7578287015190505b620004b3858262000429565b86555062000522565b601f198416620004cc866200027a565b5f5b82811015620004f557848901518255600182019150602085019450602081019050620004ce565b8683101562000515578489015162000511601f8916826200040b565b8355505b6001600288020188555050505b505050505050565b61155e80620005385f395ff3fe608060405234801561000f575f80fd5b50600436106100a7575f3560e01c8063805265e51161006f578063805265e5146101755780638e7ea5b2146101a5578063b99ef1fa146101c3578063bbe15627146101f3578063c631b29214610225578063fc36e15b1461022f576100a7565b806309eef43e146100ab5780632479ecb8146100db5780633477ee2e146100f9578063441441d3146101295780636fbfbb9b14610159575b5f80fd5b6100c560048036038101906100c09190610ae9565b61024b565b6040516100d29190610b2e565b60405180910390f35b6100e3610268565b6040516100f09190610b2e565b60405180910390f35b610113600480360381019061010e9190610b7a565b61027a565b6040516101209190610c2f565b60405180910390f35b610143600480360381019061013e9190610c4f565b610320565b6040516101509190610b2e565b60405180910390f35b610173600480360381019061016e9190610db9565b61042d565b005b61018f600480360381019061018a9190610e25565b6104b4565b60405161019c9190610e7b565b60405180910390f35b6101ad6104db565b6040516101ba9190610c2f565b60405180910390f35b6101dd60048036038101906101d89190610e25565b610676565b6040516101ea9190610e7b565b60405180910390f35b61020d60048036038101906102089190610ae9565b6106a3565b60405161021c93929190610e94565b60405180910390f35b61022d61074e565b005b61024960048036038101906102449190610e25565b61076a565b005b6001602052805f5260405f205f915054906101000a900460ff1681565b60045f9054906101000a900460ff1681565b60028181548110610289575f80fd5b905f5260205f20015f9150905080546102a190610efd565b80601f01602080910402602001604051908101604052809291908181526020018280546102cd90610efd565b80156103185780601f106102ef57610100808354040283529160200191610318565b820191905f5260205f20905b8154815290600101906020018083116102fb57829003601f168201915b505050505081565b5f805f803373ffffffffffffffffffffffffffffffffffffffff1673ffffffffffffffffffffffffffffffffffffffff1681526020019081526020015f206040518060600160405290815f8201805461037890610efd565b80601f01602080910402602001604051908101604052809291908181526020018280546103a490610efd565b80156103ef5780601f106103c6576101008083540402835291602001916103ef565b820191905f5260205f20905b8154815290600101906020018083116103d257829003601f168201915b505050505081526020016001820154815260200160028201548152505090508381602001511480156104245750828160400151145b91505092915050565b6040518060600160405280848152602001838152602001828152505f803373ffffffffffffffffffffffffffffffffffffffff1673ffffffffffffffffffffffffffffffffffffffff1681526020019081526020015f205f820151815f01908161049791906110ca565b506020820151816001015560408201518160020155905050505050565b5f6003826040516104c591906111d3565b9081526020016040518091039020549050919050565b606060045f9054906101000a900460ff1661052b576040517f08c379a000000000000000000000000000000000000000000000000000000000815260040161052290611233565b60405180910390fd5b60605f805b60028054905081101561066d578160036002838154811061055457610553611251565b5b905f5260205f200160405161056991906112fe565b90815260200160405180910390205411156106605760036002828154811061059457610593611251565b5b905f5260205f20016040516105a991906112fe565b9081526020016040518091039020549150600281815481106105ce576105cd611251565b5b905f5260205f200180546105e190610efd565b80601f016020809104026020016040519081016040528092919081815260200182805461060d90610efd565b80156106585780601f1061062f57610100808354040283529160200191610658565b820191905f5260205f20905b81548152906001019060200180831161063b57829003601f168201915b505050505092505b8080600101915050610530565b50819250505090565b6003818051602081018201805184825260208301602085012081835280955050505050505f915090505481565b5f602052805f5260405f205f91509050805f0180546106c190610efd565b80601f01602080910402602001604051908101604052809291908181526020018280546106ed90610efd565b80156107385780601f1061070f57610100808354040283529160200191610738565b820191905f5260205f20905b81548152906001019060200180831161071b57829003601f168201915b5050505050908060010154908060020154905083565b600160045f6101000a81548160ff021916908315150217905550565b60015f3373ffffffffffffffffffffffffffffffffffffffff1673ffffffffffffffffffffffffffffffffffffffff1681526020019081526020015f205f9054906101000a900460ff16156107f4576040517f08c379a00000000000000000000000000000000000000000000000000000000081526004016107eb9061135e565b60405180910390fd5b61087c5f803373ffffffffffffffffffffffffffffffffffffffff1673ffffffffffffffffffffffffffffffffffffffff1681526020019081526020015f20600101545f803373ffffffffffffffffffffffffffffffffffffffff1673ffffffffffffffffffffffffffffffffffffffff1681526020019081526020015f2060020154610320565b6108bb576040517f08c379a00000000000000000000000000000000000000000000000000000000081526004016108b2906113c6565b60405180910390fd5b6108c4816109dc565b610903576040517f08c379a00000000000000000000000000000000000000000000000000000000081526004016108fa9061142e565b60405180910390fd5b60045f9054906101000a900460ff1615610952576040517f08c379a000000000000000000000000000000000000000000000000000000000815260040161094990611496565b60405180910390fd5b60038160405161096291906111d3565b90815260200160405180910390205f815480929190610980906114e1565b91905055506001805f3373ffffffffffffffffffffffffffffffffffffffff1673ffffffffffffffffffffffffffffffffffffffff1681526020019081526020015f205f6101000a81548160ff02191690831515021790555050565b5f805f90505b600280549050811015610a745782604051602001610a0091906111d3565b6040516020818303038152906040528051906020012060028281548110610a2a57610a29611251565b5b905f5260205f2001604051602001610a4291906112fe565b6040516020818303038152906040528051906020012003610a67576001915050610a79565b80806001019150506109e2565b505f90505b919050565b5f604051905090565b5f80fd5b5f80fd5b5f73ffffffffffffffffffffffffffffffffffffffff82169050919050565b5f610ab882610a8f565b9050919050565b610ac881610aae565b8114610ad2575f80fd5b50565b5f81359050610ae381610abf565b92915050565b5f60208284031215610afe57610afd610a87565b5b5f610b0b84828501610ad5565b91505092915050565b5f8115159050919050565b610b2881610b14565b82525050565b5f602082019050610b415f830184610b1f565b92915050565b5f819050919050565b610b5981610b47565b8114610b63575f80fd5b50565b5f81359050610b7481610b50565b92915050565b5f60208284031215610b8f57610b8e610a87565b5b5f610b9c84828501610b66565b91505092915050565b5f81519050919050565b5f82825260208201905092915050565b5f5b83811015610bdc578082015181840152602081019050610bc1565b5f8484015250505050565b5f601f19601f8301169050919050565b5f610c0182610ba5565b610c0b8185610baf565b9350610c1b818560208601610bbf565b610c2481610be7565b840191505092915050565b5f6020820190508181035f830152610c478184610bf7565b905092915050565b5f8060408385031215610c6557610c64610a87565b5b5f610c7285828601610b66565b9250506020610c8385828601610b66565b9150509250929050565b5f80fd5b5f80fd5b7f4e487b71000000000000000000000000000000000000000000000000000000005f52604160045260245ffd5b610ccb82610be7565b810181811067ffffffffffffffff82111715610cea57610ce9610c95565b5b80604052505050565b5f610cfc610a7e565b9050610d088282610cc2565b919050565b5f67ffffffffffffffff821115610d2757610d26610c95565b5b610d3082610be7565b9050602081019050919050565b828183375f83830152505050565b5f610d5d610d5884610d0d565b610cf3565b905082815260208101848484011115610d7957610d78610c91565b5b610d84848285610d3d565b509392505050565b5f82601f830112610da057610d9f610c8d565b5b8135610db0848260208601610d4b565b91505092915050565b5f805f60608486031215610dd057610dcf610a87565b5b5f84013567ffffffffffffffff811115610ded57610dec610a8b565b5b610df986828701610d8c565b9350506020610e0a86828701610b66565b9250506040610e1b86828701610b66565b9150509250925092565b5f60208284031215610e3a57610e39610a87565b5b5f82013567ffffffffffffffff811115610e5757610e56610a8b565b5b610e6384828501610d8c565b91505092915050565b610e7581610b47565b82525050565b5f602082019050610e8e5f830184610e6c565b92915050565b5f6060820190508181035f830152610eac8186610bf7565b9050610ebb6020830185610e6c565b610ec86040830184610e6c565b949350505050565b7f4e487b71000000000000000000000000000000000000000000000000000000005f52602260045260245ffd5b5f6002820490506001821680610f1457607f821691505b602082108103610f2757610f26610ed0565b5b50919050565b5f819050815f5260205f209050919050565b5f6020601f8301049050919050565b5f82821b905092915050565b5f60088302610f897fffffffffffffffffffffffffffffffffffffffffffffffffffffffffffffffff82610f4e565b610f938683610f4e565b95508019841693508086168417925050509392505050565b5f819050919050565b5f610fce610fc9610fc484610b47565b610fab565b610b47565b9050919050565b5f819050919050565b610fe783610fb4565b610ffb610ff382610fd5565b848454610f5a565b825550505050565b5f90565b61100f611003565b61101a818484610fde565b505050565b5b8181101561103d576110325f82611007565b600181019050611020565b5050565b601f8211156110825761105381610f2d565b61105c84610f3f565b8101602085101561106b578190505b61107f61107785610f3f565b83018261101f565b50505b505050565b5f82821c905092915050565b5f6110a25f1984600802611087565b1980831691505092915050565b5f6110ba8383611093565b9150826002028217905092915050565b6110d382610ba5565b67ffffffffffffffff8111156110ec576110eb610c95565b5b6110f68254610efd565b611101828285611041565b5f60209050601f831160018114611132575f8415611120578287015190505b61112a85826110af565b865550611191565b601f19841661114086610f2d565b5f5b8281101561116757848901518255600182019150602085019450602081019050611142565b868310156111845784890151611180601f891682611093565b8355505b6001600288020188555050505b505050505050565b5f81905092915050565b5f6111ad82610ba5565b6111b78185611199565b93506111c7818560208601610bbf565b80840191505092915050565b5f6111de82846111a3565b915081905092915050565b7f566f74696e67206973206e6f7420636c6f736564207965742e000000000000005f82015250565b5f61121d601983610baf565b9150611228826111e9565b602082019050919050565b5f6020820190508181035f83015261124a81611211565b9050919050565b7f4e487b71000000000000000000000000000000000000000000000000000000005f52603260045260245ffd5b5f815461128a81610efd565b6112948186611199565b9450600182165f81146112ae57600181146112c3576112f5565b60ff19831686528115158202860193506112f5565b6112cc85610f2d565b5f5b838110156112ed578154818901526001820191506020810190506112ce565b838801955050505b50505092915050565b5f611309828461127e565b915081905092915050565b7f596f75206861766520616c726561647920766f7465642e0000000000000000005f82015250565b5f611348601783610baf565b915061135382611314565b602082019050919050565b5f6020820190508181035f8301526113758161133c565b9050919050565b7f596f75206e65656420746f206c6f6720696e2066697273742e000000000000005f82015250565b5f6113b0601983610baf565b91506113bb8261137c565b602082019050919050565b5f6020820190508181035f8301526113dd816113a4565b9050919050565b7f496e76616c69642063616e6469646174652e00000000000000000000000000005f82015250565b5f611418601283610baf565b9150611423826113e4565b602082019050919050565b5f6020820190508181035f8301526114458161140c565b9050919050565b7f566f74696e6720697320636c6f7365642e0000000000000000000000000000005f82015250565b5f611480601183610baf565b915061148b8261144c565b602082019050919050565b5f6020820190508181035f8301526114ad81611474565b9050919050565b7f4e487b71000000000000000000000000000000000000000000000000000000005f52601160045260245ffd5b5f6114eb82610b47565b91507fffffffffffffffffffffffffffffffffffffffffffffffffffffffffffffffff820361151d5761151c6114b4565b5b60018201905091905056fea2646970667358221220ab141ca3e8e065a0d806615ce44a0398d4255a7f1875e58752394d6313b7b65164736f6c63430008160033",
					"opcodes": "PUSH1 0x80 PUSH1 0x40 MSTORE PUSH1 0x40 MLOAD DUP1 PUSH1 0x60 ADD PUSH1 0x40 MSTORE DUP1 PUSH1 0x40 MLOAD DUP1 PUSH1 0x40 ADD PUSH1 0x40 MSTORE DUP1 PUSH1 0x4 DUP2 MSTORE PUSH1 0x20 ADD PUSH32 0x4D61727900000000000000000000000000000000000000000000000000000000 DUP2 MSTORE POP DUP2 MSTORE PUSH1 0x20 ADD PUSH1 0x40 MLOAD DUP1 PUSH1 0x40 ADD PUSH1 0x40 MSTORE DUP1 PUSH1 0x4 DUP2 MSTORE PUSH1 0x20 ADD PUSH32 0x4A616E6500000000000000000000000000000000000000000000000000000000 DUP2 MSTORE POP DUP2 MSTORE PUSH1 0x20 ADD PUSH1 0x40 MLOAD DUP1 PUSH1 0x40 ADD PUSH1 0x40 MSTORE DUP1 PUSH1 0x5 DUP2 MSTORE PUSH1 0x20 ADD PUSH32 0x4A6F796365000000000000000000000000000000000000000000000000000000 DUP2 MSTORE POP DUP2 MSTORE POP PUSH1 0x2 SWAP1 PUSH1 0x3 PUSH3 0xD0 SWAP3 SWAP2 SWAP1 PUSH3 0xFD JUMP JUMPDEST POP PUSH0 PUSH1 0x4 PUSH0 PUSH2 0x100 EXP DUP2 SLOAD DUP2 PUSH1 0xFF MUL NOT AND SWAP1 DUP4 ISZERO ISZERO MUL OR SWAP1 SSTORE POP CALLVALUE DUP1 ISZERO PUSH3 0xF6 JUMPI PUSH0 DUP1 REVERT JUMPDEST POP PUSH3 0x52A JUMP JUMPDEST DUP3 DUP1 SLOAD DUP3 DUP3 SSTORE SWAP1 PUSH0 MSTORE PUSH1 0x20 PUSH0 KECCAK256 SWAP1 DUP2 ADD SWAP3 DUP3 ISZERO PUSH3 0x148 JUMPI SWAP2 PUSH1 0x20 MUL DUP3 ADD JUMPDEST DUP3 DUP2 GT ISZERO PUSH3 0x147 JUMPI DUP3 MLOAD DUP3 SWAP1 DUP2 PUSH3 0x136 SWAP2 SWAP1 PUSH3 0x446 JUMP JUMPDEST POP SWAP2 PUSH1 0x20 ADD SWAP2 SWAP1 PUSH1 0x1 ADD SWAP1 PUSH3 0x11C JUMP JUMPDEST JUMPDEST POP SWAP1 POP PUSH3 0x157 SWAP2 SWAP1 PUSH3 0x15B JUMP JUMPDEST POP SWAP1 JUMP JUMPDEST JUMPDEST DUP1 DUP3 GT ISZERO PUSH3 0x17E JUMPI PUSH0 DUP2 DUP2 PUSH3 0x174 SWAP2 SWAP1 PUSH3 0x182 JUMP JUMPDEST POP PUSH1 0x1 ADD PUSH3 0x15C JUMP JUMPDEST POP SWAP1 JUMP JUMPDEST POP DUP1 SLOAD PUSH3 0x190 SWAP1 PUSH3 0x246 JUMP JUMPDEST PUSH0 DUP3 SSTORE DUP1 PUSH1 0x1F LT PUSH3 0x1A3 JUMPI POP PUSH3 0x1C2 JUMP JUMPDEST PUSH1 0x1F ADD PUSH1 0x20 SWAP1 DIV SWAP1 PUSH0 MSTORE PUSH1 0x20 PUSH0 KECCAK256 SWAP1 DUP2 ADD SWAP1 PUSH3 0x1C1 SWAP2 SWAP1 PUSH3 0x1C5 JUMP JUMPDEST JUMPDEST POP JUMP JUMPDEST JUMPDEST DUP1 DUP3 GT ISZERO PUSH3 0x1DE JUMPI PUSH0 DUP2 PUSH0 SWAP1 SSTORE POP PUSH1 0x1 ADD PUSH3 0x1C6 JUMP JUMPDEST POP SWAP1 JUMP JUMPDEST PUSH0 DUP2 MLOAD SWAP1 POP SWAP2 SWAP1 POP JUMP JUMPDEST PUSH32 0x4E487B7100000000000000000000000000000000000000000000000000000000 PUSH0 MSTORE PUSH1 0x41 PUSH1 0x4 MSTORE PUSH1 0x24 PUSH0 REVERT JUMPDEST PUSH32 0x4E487B7100000000000000000000000000000000000000000000000000000000 PUSH0 MSTORE PUSH1 0x22 PUSH1 0x4 MSTORE PUSH1 0x24 PUSH0 REVERT JUMPDEST PUSH0 PUSH1 0x2 DUP3 DIV SWAP1 POP PUSH1 0x1 DUP3 AND DUP1 PUSH3 0x25E JUMPI PUSH1 0x7F DUP3 AND SWAP2 POP JUMPDEST PUSH1 0x20 DUP3 LT DUP2 SUB PUSH3 0x274 JUMPI PUSH3 0x273 PUSH3 0x219 JUMP JUMPDEST JUMPDEST POP SWAP2 SWAP1 POP JUMP JUMPDEST PUSH0 DUP2 SWAP1 POP DUP2 PUSH0 MSTORE PUSH1 0x20 PUSH0 KECCAK256 SWAP1 POP SWAP2 SWAP1 POP JUMP JUMPDEST PUSH0 PUSH1 0x20 PUSH1 0x1F DUP4 ADD DIV SWAP1 POP SWAP2 SWAP1 POP JUMP JUMPDEST PUSH0 DUP3 DUP3 SHL SWAP1 POP SWAP3 SWAP2 POP POP JUMP JUMPDEST PUSH0 PUSH1 0x8 DUP4 MUL PUSH3 0x2D8 PUSH32 0xFFFFFFFFFFFFFFFFFFFFFFFFFFFFFFFFFFFFFFFFFFFFFFFFFFFFFFFFFFFFFFFF DUP3 PUSH3 0x29B JUMP JUMPDEST PUSH3 0x2E4 DUP7 DUP4 PUSH3 0x29B JUMP JUMPDEST SWAP6 POP DUP1 NOT DUP5 AND SWAP4 POP DUP1 DUP7 AND DUP5 OR SWAP3 POP POP POP SWAP4 SWAP3 POP POP POP JUMP JUMPDEST PUSH0 DUP2 SWAP1 POP SWAP2 SWAP1 POP JUMP JUMPDEST PUSH0 DUP2 SWAP1 POP SWAP2 SWAP1 POP JUMP JUMPDEST PUSH0 PUSH3 0x32E PUSH3 0x328 PUSH3 0x322 DUP5 PUSH3 0x2FC JUMP JUMPDEST PUSH3 0x305 JUMP JUMPDEST PUSH3 0x2FC JUMP JUMPDEST SWAP1 POP SWAP2 SWAP1 POP JUMP JUMPDEST PUSH0 DUP2 SWAP1 POP SWAP2 SWAP1 POP JUMP JUMPDEST PUSH3 0x349 DUP4 PUSH3 0x30E JUMP JUMPDEST PUSH3 0x361 PUSH3 0x358 DUP3 PUSH3 0x335 JUMP JUMPDEST DUP5 DUP5 SLOAD PUSH3 0x2A7 JUMP JUMPDEST DUP3 SSTORE POP POP POP POP JUMP JUMPDEST PUSH0 SWAP1 JUMP JUMPDEST PUSH3 0x377 PUSH3 0x369 JUMP JUMPDEST PUSH3 0x384 DUP2 DUP5 DUP5 PUSH3 0x33E JUMP JUMPDEST POP POP POP JUMP JUMPDEST JUMPDEST DUP2 DUP2 LT ISZERO PUSH3 0x3AB JUMPI PUSH3 0x39F PUSH0 DUP3 PUSH3 0x36D JUMP JUMPDEST PUSH1 0x1 DUP2 ADD SWAP1 POP PUSH3 0x38A JUMP JUMPDEST POP POP JUMP JUMPDEST PUSH1 0x1F DUP3 GT ISZERO PUSH3 0x3FA JUMPI PUSH3 0x3C4 DUP2 PUSH3 0x27A JUMP JUMPDEST PUSH3 0x3CF DUP5 PUSH3 0x28C JUMP JUMPDEST DUP2 ADD PUSH1 0x20 DUP6 LT ISZERO PUSH3 0x3DF JUMPI DUP2 SWAP1 POP JUMPDEST PUSH3 0x3F7 PUSH3 0x3EE DUP6 PUSH3 0x28C JUMP JUMPDEST DUP4 ADD DUP3 PUSH3 0x389 JUMP JUMPDEST POP POP JUMPDEST POP POP POP JUMP JUMPDEST PUSH0 DUP3 DUP3 SHR SWAP1 POP SWAP3 SWAP2 POP POP JUMP JUMPDEST PUSH0 PUSH3 0x41C PUSH0 NOT DUP5 PUSH1 0x8 MUL PUSH3 0x3FF JUMP JUMPDEST NOT DUP1 DUP4 AND SWAP2 POP POP SWAP3 SWAP2 POP POP JUMP JUMPDEST PUSH0 PUSH3 0x436 DUP4 DUP4 PUSH3 0x40B JUMP JUMPDEST SWAP2 POP DUP3 PUSH1 0x2 MUL DUP3 OR SWAP1 POP SWAP3 SWAP2 POP POP JUMP JUMPDEST PUSH3 0x451 DUP3 PUSH3 0x1E2 JUMP JUMPDEST PUSH8 0xFFFFFFFFFFFFFFFF DUP2 GT ISZERO PUSH3 0x46D JUMPI PUSH3 0x46C PUSH3 0x1EC JUMP JUMPDEST JUMPDEST PUSH3 0x479 DUP3 SLOAD PUSH3 0x246 JUMP JUMPDEST PUSH3 0x486 DUP3 DUP3 DUP6 PUSH3 0x3AF JUMP JUMPDEST PUSH0 PUSH1 0x20 SWAP1 POP PUSH1 0x1F DUP4 GT PUSH1 0x1 DUP2 EQ PUSH3 0x4BC JUMPI PUSH0 DUP5 ISZERO PUSH3 0x4A7 JUMPI DUP3 DUP8 ADD MLOAD SWAP1 POP JUMPDEST PUSH3 0x4B3 DUP6 DUP3 PUSH3 0x429 JUMP JUMPDEST DUP7 SSTORE POP PUSH3 0x522 JUMP JUMPDEST PUSH1 0x1F NOT DUP5 AND PUSH3 0x4CC DUP7 PUSH3 0x27A JUMP JUMPDEST PUSH0 JUMPDEST DUP3 DUP2 LT ISZERO PUSH3 0x4F5 JUMPI DUP5 DUP10 ADD MLOAD DUP3 SSTORE PUSH1 0x1 DUP3 ADD SWAP2 POP PUSH1 0x20 DUP6 ADD SWAP5 POP PUSH1 0x20 DUP2 ADD SWAP1 POP PUSH3 0x4CE JUMP JUMPDEST DUP7 DUP4 LT ISZERO PUSH3 0x515 JUMPI DUP5 DUP10 ADD MLOAD PUSH3 0x511 PUSH1 0x1F DUP10 AND DUP3 PUSH3 0x40B JUMP JUMPDEST DUP4 SSTORE POP JUMPDEST PUSH1 0x1 PUSH1 0x2 DUP9 MUL ADD DUP9 SSTORE POP POP POP JUMPDEST POP POP POP POP POP POP JUMP JUMPDEST PUSH2 0x155E DUP1 PUSH3 0x538 PUSH0 CODECOPY PUSH0 RETURN INVALID PUSH1 0x80 PUSH1 0x40 MSTORE CALLVALUE DUP1 ISZERO PUSH2 0xF JUMPI PUSH0 DUP1 REVERT JUMPDEST POP PUSH1 0x4 CALLDATASIZE LT PUSH2 0xA7 JUMPI PUSH0 CALLDATALOAD PUSH1 0xE0 SHR DUP1 PUSH4 0x805265E5 GT PUSH2 0x6F JUMPI DUP1 PUSH4 0x805265E5 EQ PUSH2 0x175 JUMPI DUP1 PUSH4 0x8E7EA5B2 EQ PUSH2 0x1A5 JUMPI DUP1 PUSH4 0xB99EF1FA EQ PUSH2 0x1C3 JUMPI DUP1 PUSH4 0xBBE15627 EQ PUSH2 0x1F3 JUMPI DUP1 PUSH4 0xC631B292 EQ PUSH2 0x225 JUMPI DUP1 PUSH4 0xFC36E15B EQ PUSH2 0x22F JUMPI PUSH2 0xA7 JUMP JUMPDEST DUP1 PUSH4 0x9EEF43E EQ PUSH2 0xAB JUMPI DUP1 PUSH4 0x2479ECB8 EQ PUSH2 0xDB JUMPI DUP1 PUSH4 0x3477EE2E EQ PUSH2 0xF9 JUMPI DUP1 PUSH4 0x441441D3 EQ PUSH2 0x129 JUMPI DUP1 PUSH4 0x6FBFBB9B EQ PUSH2 0x159 JUMPI JUMPDEST PUSH0 DUP1 REVERT JUMPDEST PUSH2 0xC5 PUSH1 0x4 DUP1 CALLDATASIZE SUB DUP2 ADD SWAP1 PUSH2 0xC0 SWAP2 SWAP1 PUSH2 0xAE9 JUMP JUMPDEST PUSH2 0x24B JUMP JUMPDEST PUSH1 0x40 MLOAD PUSH2 0xD2 SWAP2 SWAP1 PUSH2 0xB2E JUMP JUMPDEST PUSH1 0x40 MLOAD DUP1 SWAP2 SUB SWAP1 RETURN JUMPDEST PUSH2 0xE3 PUSH2 0x268 JUMP JUMPDEST PUSH1 0x40 MLOAD PUSH2 0xF0 SWAP2 SWAP1 PUSH2 0xB2E JUMP JUMPDEST PUSH1 0x40 MLOAD DUP1 SWAP2 SUB SWAP1 RETURN JUMPDEST PUSH2 0x113 PUSH1 0x4 DUP1 CALLDATASIZE SUB DUP2 ADD SWAP1 PUSH2 0x10E SWAP2 SWAP1 PUSH2 0xB7A JUMP JUMPDEST PUSH2 0x27A JUMP JUMPDEST PUSH1 0x40 MLOAD PUSH2 0x120 SWAP2 SWAP1 PUSH2 0xC2F JUMP JUMPDEST PUSH1 0x40 MLOAD DUP1 SWAP2 SUB SWAP1 RETURN JUMPDEST PUSH2 0x143 PUSH1 0x4 DUP1 CALLDATASIZE SUB DUP2 ADD SWAP1 PUSH2 0x13E SWAP2 SWAP1 PUSH2 0xC4F JUMP JUMPDEST PUSH2 0x320 JUMP JUMPDEST PUSH1 0x40 MLOAD PUSH2 0x150 SWAP2 SWAP1 PUSH2 0xB2E JUMP JUMPDEST PUSH1 0x40 MLOAD DUP1 SWAP2 SUB SWAP1 RETURN JUMPDEST PUSH2 0x173 PUSH1 0x4 DUP1 CALLDATASIZE SUB DUP2 ADD SWAP1 PUSH2 0x16E SWAP2 SWAP1 PUSH2 0xDB9 JUMP JUMPDEST PUSH2 0x42D JUMP JUMPDEST STOP JUMPDEST PUSH2 0x18F PUSH1 0x4 DUP1 CALLDATASIZE SUB DUP2 ADD SWAP1 PUSH2 0x18A SWAP2 SWAP1 PUSH2 0xE25 JUMP JUMPDEST PUSH2 0x4B4 JUMP JUMPDEST PUSH1 0x40 MLOAD PUSH2 0x19C SWAP2 SWAP1 PUSH2 0xE7B JUMP JUMPDEST PUSH1 0x40 MLOAD DUP1 SWAP2 SUB SWAP1 RETURN JUMPDEST PUSH2 0x1AD PUSH2 0x4DB JUMP JUMPDEST PUSH1 0x40 MLOAD PUSH2 0x1BA SWAP2 SWAP1 PUSH2 0xC2F JUMP JUMPDEST PUSH1 0x40 MLOAD DUP1 SWAP2 SUB SWAP1 RETURN JUMPDEST PUSH2 0x1DD PUSH1 0x4 DUP1 CALLDATASIZE SUB DUP2 ADD SWAP1 PUSH2 0x1D8 SWAP2 SWAP1 PUSH2 0xE25 JUMP JUMPDEST PUSH2 0x676 JUMP JUMPDEST PUSH1 0x40 MLOAD PUSH2 0x1EA SWAP2 SWAP1 PUSH2 0xE7B JUMP JUMPDEST PUSH1 0x40 MLOAD DUP1 SWAP2 SUB SWAP1 RETURN JUMPDEST PUSH2 0x20D PUSH1 0x4 DUP1 CALLDATASIZE SUB DUP2 ADD SWAP1 PUSH2 0x208 SWAP2 SWAP1 PUSH2 0xAE9 JUMP JUMPDEST PUSH2 0x6A3 JUMP JUMPDEST PUSH1 0x40 MLOAD PUSH2 0x21C SWAP4 SWAP3 SWAP2 SWAP1 PUSH2 0xE94 JUMP JUMPDEST PUSH1 0x40 MLOAD DUP1 SWAP2 SUB SWAP1 RETURN JUMPDEST PUSH2 0x22D PUSH2 0x74E JUMP JUMPDEST STOP JUMPDEST PUSH2 0x249 PUSH1 0x4 DUP1 CALLDATASIZE SUB DUP2 ADD SWAP1 PUSH2 0x244 SWAP2 SWAP1 PUSH2 0xE25 JUMP JUMPDEST PUSH2 0x76A JUMP JUMPDEST STOP JUMPDEST PUSH1 0x1 PUSH1 0x20 MSTORE DUP1 PUSH0 MSTORE PUSH1 0x40 PUSH0 KECCAK256 PUSH0 SWAP2 POP SLOAD SWAP1 PUSH2 0x100 EXP SWAP1 DIV PUSH1 0xFF AND DUP2 JUMP JUMPDEST PUSH1 0x4 PUSH0 SWAP1 SLOAD SWAP1 PUSH2 0x100 EXP SWAP1 DIV PUSH1 0xFF AND DUP2 JUMP JUMPDEST PUSH1 0x2 DUP2 DUP2 SLOAD DUP2 LT PUSH2 0x289 JUMPI PUSH0 DUP1 REVERT JUMPDEST SWAP1 PUSH0 MSTORE PUSH1 0x20 PUSH0 KECCAK256 ADD PUSH0 SWAP2 POP SWAP1 POP DUP1 SLOAD PUSH2 0x2A1 SWAP1 PUSH2 0xEFD JUMP JUMPDEST DUP1 PUSH1 0x1F ADD PUSH1 0x20 DUP1 SWAP2 DIV MUL PUSH1 0x20 ADD PUSH1 0x40 MLOAD SWAP1 DUP2 ADD PUSH1 0x40 MSTORE DUP1 SWAP3 SWAP2 SWAP1 DUP2 DUP2 MSTORE PUSH1 0x20 ADD DUP3 DUP1 SLOAD PUSH2 0x2CD SWAP1 PUSH2 0xEFD JUMP JUMPDEST DUP1 ISZERO PUSH2 0x318 JUMPI DUP1 PUSH1 0x1F LT PUSH2 0x2EF JUMPI PUSH2 0x100 DUP1 DUP4 SLOAD DIV MUL DUP4 MSTORE SWAP2 PUSH1 0x20 ADD SWAP2 PUSH2 0x318 JUMP JUMPDEST DUP3 ADD SWAP2 SWAP1 PUSH0 MSTORE PUSH1 0x20 PUSH0 KECCAK256 SWAP1 JUMPDEST DUP2 SLOAD DUP2 MSTORE SWAP1 PUSH1 0x1 ADD SWAP1 PUSH1 0x20 ADD DUP1 DUP4 GT PUSH2 0x2FB JUMPI DUP3 SWAP1 SUB PUSH1 0x1F AND DUP3 ADD SWAP2 JUMPDEST POP POP POP POP POP DUP2 JUMP JUMPDEST PUSH0 DUP1 PUSH0 DUP1 CALLER PUSH20 0xFFFFFFFFFFFFFFFFFFFFFFFFFFFFFFFFFFFFFFFF AND PUSH20 0xFFFFFFFFFFFFFFFFFFFFFFFFFFFFFFFFFFFFFFFF AND DUP2 MSTORE PUSH1 0x20 ADD SWAP1 DUP2 MSTORE PUSH1 0x20 ADD PUSH0 KECCAK256 PUSH1 0x40 MLOAD DUP1 PUSH1 0x60 ADD PUSH1 0x40 MSTORE SWAP1 DUP2 PUSH0 DUP3 ADD DUP1 SLOAD PUSH2 0x378 SWAP1 PUSH2 0xEFD JUMP JUMPDEST DUP1 PUSH1 0x1F ADD PUSH1 0x20 DUP1 SWAP2 DIV MUL PUSH1 0x20 ADD PUSH1 0x40 MLOAD SWAP1 DUP2 ADD PUSH1 0x40 MSTORE DUP1 SWAP3 SWAP2 SWAP1 DUP2 DUP2 MSTORE PUSH1 0x20 ADD DUP3 DUP1 SLOAD PUSH2 0x3A4 SWAP1 PUSH2 0xEFD JUMP JUMPDEST DUP1 ISZERO PUSH2 0x3EF JUMPI DUP1 PUSH1 0x1F LT PUSH2 0x3C6 JUMPI PUSH2 0x100 DUP1 DUP4 SLOAD DIV MUL DUP4 MSTORE SWAP2 PUSH1 0x20 ADD SWAP2 PUSH2 0x3EF JUMP JUMPDEST DUP3 ADD SWAP2 SWAP1 PUSH0 MSTORE PUSH1 0x20 PUSH0 KECCAK256 SWAP1 JUMPDEST DUP2 SLOAD DUP2 MSTORE SWAP1 PUSH1 0x1 ADD SWAP1 PUSH1 0x20 ADD DUP1 DUP4 GT PUSH2 0x3D2 JUMPI DUP3 SWAP1 SUB PUSH1 0x1F AND DUP3 ADD SWAP2 JUMPDEST POP POP POP POP POP DUP2 MSTORE PUSH1 0x20 ADD PUSH1 0x1 DUP3 ADD SLOAD DUP2 MSTORE PUSH1 0x20 ADD PUSH1 0x2 DUP3 ADD SLOAD DUP2 MSTORE POP POP SWAP1 POP DUP4 DUP2 PUSH1 0x20 ADD MLOAD EQ DUP1 ISZERO PUSH2 0x424 JUMPI POP DUP3 DUP2 PUSH1 0x40 ADD MLOAD EQ JUMPDEST SWAP2 POP POP SWAP3 SWAP2 POP POP JUMP JUMPDEST PUSH1 0x40 MLOAD DUP1 PUSH1 0x60 ADD PUSH1 0x40 MSTORE DUP1 DUP5 DUP2 MSTORE PUSH1 0x20 ADD DUP4 DUP2 MSTORE PUSH1 0x20 ADD DUP3 DUP2 MSTORE POP PUSH0 DUP1 CALLER PUSH20 0xFFFFFFFFFFFFFFFFFFFFFFFFFFFFFFFFFFFFFFFF AND PUSH20 0xFFFFFFFFFFFFFFFFFFFFFFFFFFFFFFFFFFFFFFFF AND DUP2 MSTORE PUSH1 0x20 ADD SWAP1 DUP2 MSTORE PUSH1 0x20 ADD PUSH0 KECCAK256 PUSH0 DUP3 ADD MLOAD DUP2 PUSH0 ADD SWAP1 DUP2 PUSH2 0x497 SWAP2 SWAP1 PUSH2 0x10CA JUMP JUMPDEST POP PUSH1 0x20 DUP3 ADD MLOAD DUP2 PUSH1 0x1 ADD SSTORE PUSH1 0x40 DUP3 ADD MLOAD DUP2 PUSH1 0x2 ADD SSTORE SWAP1 POP POP POP POP POP JUMP JUMPDEST PUSH0 PUSH1 0x3 DUP3 PUSH1 0x40 MLOAD PUSH2 0x4C5 SWAP2 SWAP1 PUSH2 0x11D3 JUMP JUMPDEST SWAP1 DUP2 MSTORE PUSH1 0x20 ADD PUSH1 0x40 MLOAD DUP1 SWAP2 SUB SWAP1 KECCAK256 SLOAD SWAP1 POP SWAP2 SWAP1 POP JUMP JUMPDEST PUSH1 0x60 PUSH1 0x4 PUSH0 SWAP1 SLOAD SWAP1 PUSH2 0x100 EXP SWAP1 DIV PUSH1 0xFF AND PUSH2 0x52B JUMPI PUSH1 0x40 MLOAD PUSH32 0x8C379A000000000000000000000000000000000000000000000000000000000 DUP2 MSTORE PUSH1 0x4 ADD PUSH2 0x522 SWAP1 PUSH2 0x1233 JUMP JUMPDEST PUSH1 0x40 MLOAD DUP1 SWAP2 SUB SWAP1 REVERT JUMPDEST PUSH1 0x60 PUSH0 DUP1 JUMPDEST PUSH1 0x2 DUP1 SLOAD SWAP1 POP DUP2 LT ISZERO PUSH2 0x66D JUMPI DUP2 PUSH1 0x3 PUSH1 0x2 DUP4 DUP2 SLOAD DUP2 LT PUSH2 0x554 JUMPI PUSH2 0x553 PUSH2 0x1251 JUMP JUMPDEST JUMPDEST SWAP1 PUSH0 MSTORE PUSH1 0x20 PUSH0 KECCAK256 ADD PUSH1 0x40 MLOAD PUSH2 0x569 SWAP2 SWAP1 PUSH2 0x12FE JUMP JUMPDEST SWAP1 DUP2 MSTORE PUSH1 0x20 ADD PUSH1 0x40 MLOAD DUP1 SWAP2 SUB SWAP1 KECCAK256 SLOAD GT ISZERO PUSH2 0x660 JUMPI PUSH1 0x3 PUSH1 0x2 DUP3 DUP2 SLOAD DUP2 LT PUSH2 0x594 JUMPI PUSH2 0x593 PUSH2 0x1251 JUMP JUMPDEST JUMPDEST SWAP1 PUSH0 MSTORE PUSH1 0x20 PUSH0 KECCAK256 ADD PUSH1 0x40 MLOAD PUSH2 0x5A9 SWAP2 SWAP1 PUSH2 0x12FE JUMP JUMPDEST SWAP1 DUP2 MSTORE PUSH1 0x20 ADD PUSH1 0x40 MLOAD DUP1 SWAP2 SUB SWAP1 KECCAK256 SLOAD SWAP2 POP PUSH1 0x2 DUP2 DUP2 SLOAD DUP2 LT PUSH2 0x5CE JUMPI PUSH2 0x5CD PUSH2 0x1251 JUMP JUMPDEST JUMPDEST SWAP1 PUSH0 MSTORE PUSH1 0x20 PUSH0 KECCAK256 ADD DUP1 SLOAD PUSH2 0x5E1 SWAP1 PUSH2 0xEFD JUMP JUMPDEST DUP1 PUSH1 0x1F ADD PUSH1 0x20 DUP1 SWAP2 DIV MUL PUSH1 0x20 ADD PUSH1 0x40 MLOAD SWAP1 DUP2 ADD PUSH1 0x40 MSTORE DUP1 SWAP3 SWAP2 SWAP1 DUP2 DUP2 MSTORE PUSH1 0x20 ADD DUP3 DUP1 SLOAD PUSH2 0x60D SWAP1 PUSH2 0xEFD JUMP JUMPDEST DUP1 ISZERO PUSH2 0x658 JUMPI DUP1 PUSH1 0x1F LT PUSH2 0x62F JUMPI PUSH2 0x100 DUP1 DUP4 SLOAD DIV MUL DUP4 MSTORE SWAP2 PUSH1 0x20 ADD SWAP2 PUSH2 0x658 JUMP JUMPDEST DUP3 ADD SWAP2 SWAP1 PUSH0 MSTORE PUSH1 0x20 PUSH0 KECCAK256 SWAP1 JUMPDEST DUP2 SLOAD DUP2 MSTORE SWAP1 PUSH1 0x1 ADD SWAP1 PUSH1 0x20 ADD DUP1 DUP4 GT PUSH2 0x63B JUMPI DUP3 SWAP1 SUB PUSH1 0x1F AND DUP3 ADD SWAP2 JUMPDEST POP POP POP POP POP SWAP3 POP JUMPDEST DUP1 DUP1 PUSH1 0x1 ADD SWAP2 POP POP PUSH2 0x530 JUMP JUMPDEST POP DUP2 SWAP3 POP POP POP SWAP1 JUMP JUMPDEST PUSH1 0x3 DUP2 DUP1 MLOAD PUSH1 0x20 DUP2 ADD DUP3 ADD DUP1 MLOAD DUP5 DUP3 MSTORE PUSH1 0x20 DUP4 ADD PUSH1 0x20 DUP6 ADD KECCAK256 DUP2 DUP4 MSTORE DUP1 SWAP6 POP POP POP POP POP POP PUSH0 SWAP2 POP SWAP1 POP SLOAD DUP2 JUMP JUMPDEST PUSH0 PUSH1 0x20 MSTORE DUP1 PUSH0 MSTORE PUSH1 0x40 PUSH0 KECCAK256 PUSH0 SWAP2 POP SWAP1 POP DUP1 PUSH0 ADD DUP1 SLOAD PUSH2 0x6C1 SWAP1 PUSH2 0xEFD JUMP JUMPDEST DUP1 PUSH1 0x1F ADD PUSH1 0x20 DUP1 SWAP2 DIV MUL PUSH1 0x20 ADD PUSH1 0x40 MLOAD SWAP1 DUP2 ADD PUSH1 0x40 MSTORE DUP1 SWAP3 SWAP2 SWAP1 DUP2 DUP2 MSTORE PUSH1 0x20 ADD DUP3 DUP1 SLOAD PUSH2 0x6ED SWAP1 PUSH2 0xEFD JUMP JUMPDEST DUP1 ISZERO PUSH2 0x738 JUMPI DUP1 PUSH1 0x1F LT PUSH2 0x70F JUMPI PUSH2 0x100 DUP1 DUP4 SLOAD DIV MUL DUP4 MSTORE SWAP2 PUSH1 0x20 ADD SWAP2 PUSH2 0x738 JUMP JUMPDEST DUP3 ADD SWAP2 SWAP1 PUSH0 MSTORE PUSH1 0x20 PUSH0 KECCAK256 SWAP1 JUMPDEST DUP2 SLOAD DUP2 MSTORE SWAP1 PUSH1 0x1 ADD SWAP1 PUSH1 0x20 ADD DUP1 DUP4 GT PUSH2 0x71B JUMPI DUP3 SWAP1 SUB PUSH1 0x1F AND DUP3 ADD SWAP2 JUMPDEST POP POP POP POP POP SWAP1 DUP1 PUSH1 0x1 ADD SLOAD SWAP1 DUP1 PUSH1 0x2 ADD SLOAD SWAP1 POP DUP4 JUMP JUMPDEST PUSH1 0x1 PUSH1 0x4 PUSH0 PUSH2 0x100 EXP DUP2 SLOAD DUP2 PUSH1 0xFF MUL NOT AND SWAP1 DUP4 ISZERO ISZERO MUL OR SWAP1 SSTORE POP JUMP JUMPDEST PUSH1 0x1 PUSH0 CALLER PUSH20 0xFFFFFFFFFFFFFFFFFFFFFFFFFFFFFFFFFFFFFFFF AND PUSH20 0xFFFFFFFFFFFFFFFFFFFFFFFFFFFFFFFFFFFFFFFF AND DUP2 MSTORE PUSH1 0x20 ADD SWAP1 DUP2 MSTORE PUSH1 0x20 ADD PUSH0 KECCAK256 PUSH0 SWAP1 SLOAD SWAP1 PUSH2 0x100 EXP SWAP1 DIV PUSH1 0xFF AND ISZERO PUSH2 0x7F4 JUMPI PUSH1 0x40 MLOAD PUSH32 0x8C379A000000000000000000000000000000000000000000000000000000000 DUP2 MSTORE PUSH1 0x4 ADD PUSH2 0x7EB SWAP1 PUSH2 0x135E JUMP JUMPDEST PUSH1 0x40 MLOAD DUP1 SWAP2 SUB SWAP1 REVERT JUMPDEST PUSH2 0x87C PUSH0 DUP1 CALLER PUSH20 0xFFFFFFFFFFFFFFFFFFFFFFFFFFFFFFFFFFFFFFFF AND PUSH20 0xFFFFFFFFFFFFFFFFFFFFFFFFFFFFFFFFFFFFFFFF AND DUP2 MSTORE PUSH1 0x20 ADD SWAP1 DUP2 MSTORE PUSH1 0x20 ADD PUSH0 KECCAK256 PUSH1 0x1 ADD SLOAD PUSH0 DUP1 CALLER PUSH20 0xFFFFFFFFFFFFFFFFFFFFFFFFFFFFFFFFFFFFFFFF AND PUSH20 0xFFFFFFFFFFFFFFFFFFFFFFFFFFFFFFFFFFFFFFFF AND DUP2 MSTORE PUSH1 0x20 ADD SWAP1 DUP2 MSTORE PUSH1 0x20 ADD PUSH0 KECCAK256 PUSH1 0x2 ADD SLOAD PUSH2 0x320 JUMP JUMPDEST PUSH2 0x8BB JUMPI PUSH1 0x40 MLOAD PUSH32 0x8C379A000000000000000000000000000000000000000000000000000000000 DUP2 MSTORE PUSH1 0x4 ADD PUSH2 0x8B2 SWAP1 PUSH2 0x13C6 JUMP JUMPDEST PUSH1 0x40 MLOAD DUP1 SWAP2 SUB SWAP1 REVERT JUMPDEST PUSH2 0x8C4 DUP2 PUSH2 0x9DC JUMP JUMPDEST PUSH2 0x903 JUMPI PUSH1 0x40 MLOAD PUSH32 0x8C379A000000000000000000000000000000000000000000000000000000000 DUP2 MSTORE PUSH1 0x4 ADD PUSH2 0x8FA SWAP1 PUSH2 0x142E JUMP JUMPDEST PUSH1 0x40 MLOAD DUP1 SWAP2 SUB SWAP1 REVERT JUMPDEST PUSH1 0x4 PUSH0 SWAP1 SLOAD SWAP1 PUSH2 0x100 EXP SWAP1 DIV PUSH1 0xFF AND ISZERO PUSH2 0x952 JUMPI PUSH1 0x40 MLOAD PUSH32 0x8C379A000000000000000000000000000000000000000000000000000000000 DUP2 MSTORE PUSH1 0x4 ADD PUSH2 0x949 SWAP1 PUSH2 0x1496 JUMP JUMPDEST PUSH1 0x40 MLOAD DUP1 SWAP2 SUB SWAP1 REVERT JUMPDEST PUSH1 0x3 DUP2 PUSH1 0x40 MLOAD PUSH2 0x962 SWAP2 SWAP1 PUSH2 0x11D3 JUMP JUMPDEST SWAP1 DUP2 MSTORE PUSH1 0x20 ADD PUSH1 0x40 MLOAD DUP1 SWAP2 SUB SWAP1 KECCAK256 PUSH0 DUP2 SLOAD DUP1 SWAP3 SWAP2 SWAP1 PUSH2 0x980 SWAP1 PUSH2 0x14E1 JUMP JUMPDEST SWAP2 SWAP1 POP SSTORE POP PUSH1 0x1 DUP1 PUSH0 CALLER PUSH20 0xFFFFFFFFFFFFFFFFFFFFFFFFFFFFFFFFFFFFFFFF AND PUSH20 0xFFFFFFFFFFFFFFFFFFFFFFFFFFFFFFFFFFFFFFFF AND DUP2 MSTORE PUSH1 0x20 ADD SWAP1 DUP2 MSTORE PUSH1 0x20 ADD PUSH0 KECCAK256 PUSH0 PUSH2 0x100 EXP DUP2 SLOAD DUP2 PUSH1 0xFF MUL NOT AND SWAP1 DUP4 ISZERO ISZERO MUL OR SWAP1 SSTORE POP POP JUMP JUMPDEST PUSH0 DUP1 PUSH0 SWAP1 POP JUMPDEST PUSH1 0x2 DUP1 SLOAD SWAP1 POP DUP2 LT ISZERO PUSH2 0xA74 JUMPI DUP3 PUSH1 0x40 MLOAD PUSH1 0x20 ADD PUSH2 0xA00 SWAP2 SWAP1 PUSH2 0x11D3 JUMP JUMPDEST PUSH1 0x40 MLOAD PUSH1 0x20 DUP2 DUP4 SUB SUB DUP2 MSTORE SWAP1 PUSH1 0x40 MSTORE DUP1 MLOAD SWAP1 PUSH1 0x20 ADD KECCAK256 PUSH1 0x2 DUP3 DUP2 SLOAD DUP2 LT PUSH2 0xA2A JUMPI PUSH2 0xA29 PUSH2 0x1251 JUMP JUMPDEST JUMPDEST SWAP1 PUSH0 MSTORE PUSH1 0x20 PUSH0 KECCAK256 ADD PUSH1 0x40 MLOAD PUSH1 0x20 ADD PUSH2 0xA42 SWAP2 SWAP1 PUSH2 0x12FE JUMP JUMPDEST PUSH1 0x40 MLOAD PUSH1 0x20 DUP2 DUP4 SUB SUB DUP2 MSTORE SWAP1 PUSH1 0x40 MSTORE DUP1 MLOAD SWAP1 PUSH1 0x20 ADD KECCAK256 SUB PUSH2 0xA67 JUMPI PUSH1 0x1 SWAP2 POP POP PUSH2 0xA79 JUMP JUMPDEST DUP1 DUP1 PUSH1 0x1 ADD SWAP2 POP POP PUSH2 0x9E2 JUMP JUMPDEST POP PUSH0 SWAP1 POP JUMPDEST SWAP2 SWAP1 POP JUMP JUMPDEST PUSH0 PUSH1 0x40 MLOAD SWAP1 POP SWAP1 JUMP JUMPDEST PUSH0 DUP1 REVERT JUMPDEST PUSH0 DUP1 REVERT JUMPDEST PUSH0 PUSH20 0xFFFFFFFFFFFFFFFFFFFFFFFFFFFFFFFFFFFFFFFF DUP3 AND SWAP1 POP SWAP2 SWAP1 POP JUMP JUMPDEST PUSH0 PUSH2 0xAB8 DUP3 PUSH2 0xA8F JUMP JUMPDEST SWAP1 POP SWAP2 SWAP1 POP JUMP JUMPDEST PUSH2 0xAC8 DUP2 PUSH2 0xAAE JUMP JUMPDEST DUP2 EQ PUSH2 0xAD2 JUMPI PUSH0 DUP1 REVERT JUMPDEST POP JUMP JUMPDEST PUSH0 DUP2 CALLDATALOAD SWAP1 POP PUSH2 0xAE3 DUP2 PUSH2 0xABF JUMP JUMPDEST SWAP3 SWAP2 POP POP JUMP JUMPDEST PUSH0 PUSH1 0x20 DUP3 DUP5 SUB SLT ISZERO PUSH2 0xAFE JUMPI PUSH2 0xAFD PUSH2 0xA87 JUMP JUMPDEST JUMPDEST PUSH0 PUSH2 0xB0B DUP5 DUP3 DUP6 ADD PUSH2 0xAD5 JUMP JUMPDEST SWAP2 POP POP SWAP3 SWAP2 POP POP JUMP JUMPDEST PUSH0 DUP2 ISZERO ISZERO SWAP1 POP SWAP2 SWAP1 POP JUMP JUMPDEST PUSH2 0xB28 DUP2 PUSH2 0xB14 JUMP JUMPDEST DUP3 MSTORE POP POP JUMP JUMPDEST PUSH0 PUSH1 0x20 DUP3 ADD SWAP1 POP PUSH2 0xB41 PUSH0 DUP4 ADD DUP5 PUSH2 0xB1F JUMP JUMPDEST SWAP3 SWAP2 POP POP JUMP JUMPDEST PUSH0 DUP2 SWAP1 POP SWAP2 SWAP1 POP JUMP JUMPDEST PUSH2 0xB59 DUP2 PUSH2 0xB47 JUMP JUMPDEST DUP2 EQ PUSH2 0xB63 JUMPI PUSH0 DUP1 REVERT JUMPDEST POP JUMP JUMPDEST PUSH0 DUP2 CALLDATALOAD SWAP1 POP PUSH2 0xB74 DUP2 PUSH2 0xB50 JUMP JUMPDEST SWAP3 SWAP2 POP POP JUMP JUMPDEST PUSH0 PUSH1 0x20 DUP3 DUP5 SUB SLT ISZERO PUSH2 0xB8F JUMPI PUSH2 0xB8E PUSH2 0xA87 JUMP JUMPDEST JUMPDEST PUSH0 PUSH2 0xB9C DUP5 DUP3 DUP6 ADD PUSH2 0xB66 JUMP JUMPDEST SWAP2 POP POP SWAP3 SWAP2 POP POP JUMP JUMPDEST PUSH0 DUP2 MLOAD SWAP1 POP SWAP2 SWAP1 POP JUMP JUMPDEST PUSH0 DUP3 DUP3 MSTORE PUSH1 0x20 DUP3 ADD SWAP1 POP SWAP3 SWAP2 POP POP JUMP JUMPDEST PUSH0 JUMPDEST DUP4 DUP2 LT ISZERO PUSH2 0xBDC JUMPI DUP1 DUP3 ADD MLOAD DUP2 DUP5 ADD MSTORE PUSH1 0x20 DUP2 ADD SWAP1 POP PUSH2 0xBC1 JUMP JUMPDEST PUSH0 DUP5 DUP5 ADD MSTORE POP POP POP POP JUMP JUMPDEST PUSH0 PUSH1 0x1F NOT PUSH1 0x1F DUP4 ADD AND SWAP1 POP SWAP2 SWAP1 POP JUMP JUMPDEST PUSH0 PUSH2 0xC01 DUP3 PUSH2 0xBA5 JUMP JUMPDEST PUSH2 0xC0B DUP2 DUP6 PUSH2 0xBAF JUMP JUMPDEST SWAP4 POP PUSH2 0xC1B DUP2 DUP6 PUSH1 0x20 DUP7 ADD PUSH2 0xBBF JUMP JUMPDEST PUSH2 0xC24 DUP2 PUSH2 0xBE7 JUMP JUMPDEST DUP5 ADD SWAP2 POP POP SWAP3 SWAP2 POP POP JUMP JUMPDEST PUSH0 PUSH1 0x20 DUP3 ADD SWAP1 POP DUP2 DUP2 SUB PUSH0 DUP4 ADD MSTORE PUSH2 0xC47 DUP2 DUP5 PUSH2 0xBF7 JUMP JUMPDEST SWAP1 POP SWAP3 SWAP2 POP POP JUMP JUMPDEST PUSH0 DUP1 PUSH1 0x40 DUP4 DUP6 SUB SLT ISZERO PUSH2 0xC65 JUMPI PUSH2 0xC64 PUSH2 0xA87 JUMP JUMPDEST JUMPDEST PUSH0 PUSH2 0xC72 DUP6 DUP3 DUP7 ADD PUSH2 0xB66 JUMP JUMPDEST SWAP3 POP POP PUSH1 0x20 PUSH2 0xC83 DUP6 DUP3 DUP7 ADD PUSH2 0xB66 JUMP JUMPDEST SWAP2 POP POP SWAP3 POP SWAP3 SWAP1 POP JUMP JUMPDEST PUSH0 DUP1 REVERT JUMPDEST PUSH0 DUP1 REVERT JUMPDEST PUSH32 0x4E487B7100000000000000000000000000000000000000000000000000000000 PUSH0 MSTORE PUSH1 0x41 PUSH1 0x4 MSTORE PUSH1 0x24 PUSH0 REVERT JUMPDEST PUSH2 0xCCB DUP3 PUSH2 0xBE7 JUMP JUMPDEST DUP2 ADD DUP2 DUP2 LT PUSH8 0xFFFFFFFFFFFFFFFF DUP3 GT OR ISZERO PUSH2 0xCEA JUMPI PUSH2 0xCE9 PUSH2 0xC95 JUMP JUMPDEST JUMPDEST DUP1 PUSH1 0x40 MSTORE POP POP POP JUMP JUMPDEST PUSH0 PUSH2 0xCFC PUSH2 0xA7E JUMP JUMPDEST SWAP1 POP PUSH2 0xD08 DUP3 DUP3 PUSH2 0xCC2 JUMP JUMPDEST SWAP2 SWAP1 POP JUMP JUMPDEST PUSH0 PUSH8 0xFFFFFFFFFFFFFFFF DUP3 GT ISZERO PUSH2 0xD27 JUMPI PUSH2 0xD26 PUSH2 0xC95 JUMP JUMPDEST JUMPDEST PUSH2 0xD30 DUP3 PUSH2 0xBE7 JUMP JUMPDEST SWAP1 POP PUSH1 0x20 DUP2 ADD SWAP1 POP SWAP2 SWAP1 POP JUMP JUMPDEST DUP3 DUP2 DUP4 CALLDATACOPY PUSH0 DUP4 DUP4 ADD MSTORE POP POP POP JUMP JUMPDEST PUSH0 PUSH2 0xD5D PUSH2 0xD58 DUP5 PUSH2 0xD0D JUMP JUMPDEST PUSH2 0xCF3 JUMP JUMPDEST SWAP1 POP DUP3 DUP2 MSTORE PUSH1 0x20 DUP2 ADD DUP5 DUP5 DUP5 ADD GT ISZERO PUSH2 0xD79 JUMPI PUSH2 0xD78 PUSH2 0xC91 JUMP JUMPDEST JUMPDEST PUSH2 0xD84 DUP5 DUP3 DUP6 PUSH2 0xD3D JUMP JUMPDEST POP SWAP4 SWAP3 POP POP POP JUMP JUMPDEST PUSH0 DUP3 PUSH1 0x1F DUP4 ADD SLT PUSH2 0xDA0 JUMPI PUSH2 0xD9F PUSH2 0xC8D JUMP JUMPDEST JUMPDEST DUP2 CALLDATALOAD PUSH2 0xDB0 DUP5 DUP3 PUSH1 0x20 DUP7 ADD PUSH2 0xD4B JUMP JUMPDEST SWAP2 POP POP SWAP3 SWAP2 POP POP JUMP JUMPDEST PUSH0 DUP1 PUSH0 PUSH1 0x60 DUP5 DUP7 SUB SLT ISZERO PUSH2 0xDD0 JUMPI PUSH2 0xDCF PUSH2 0xA87 JUMP JUMPDEST JUMPDEST PUSH0 DUP5 ADD CALLDATALOAD PUSH8 0xFFFFFFFFFFFFFFFF DUP2 GT ISZERO PUSH2 0xDED JUMPI PUSH2 0xDEC PUSH2 0xA8B JUMP JUMPDEST JUMPDEST PUSH2 0xDF9 DUP7 DUP3 DUP8 ADD PUSH2 0xD8C JUMP JUMPDEST SWAP4 POP POP PUSH1 0x20 PUSH2 0xE0A DUP7 DUP3 DUP8 ADD PUSH2 0xB66 JUMP JUMPDEST SWAP3 POP POP PUSH1 0x40 PUSH2 0xE1B DUP7 DUP3 DUP8 ADD PUSH2 0xB66 JUMP JUMPDEST SWAP2 POP POP SWAP3 POP SWAP3 POP SWAP3 JUMP JUMPDEST PUSH0 PUSH1 0x20 DUP3 DUP5 SUB SLT ISZERO PUSH2 0xE3A JUMPI PUSH2 0xE39 PUSH2 0xA87 JUMP JUMPDEST JUMPDEST PUSH0 DUP3 ADD CALLDATALOAD PUSH8 0xFFFFFFFFFFFFFFFF DUP2 GT ISZERO PUSH2 0xE57 JUMPI PUSH2 0xE56 PUSH2 0xA8B JUMP JUMPDEST JUMPDEST PUSH2 0xE63 DUP5 DUP3 DUP6 ADD PUSH2 0xD8C JUMP JUMPDEST SWAP2 POP POP SWAP3 SWAP2 POP POP JUMP JUMPDEST PUSH2 0xE75 DUP2 PUSH2 0xB47 JUMP JUMPDEST DUP3 MSTORE POP POP JUMP JUMPDEST PUSH0 PUSH1 0x20 DUP3 ADD SWAP1 POP PUSH2 0xE8E PUSH0 DUP4 ADD DUP5 PUSH2 0xE6C JUMP JUMPDEST SWAP3 SWAP2 POP POP JUMP JUMPDEST PUSH0 PUSH1 0x60 DUP3 ADD SWAP1 POP DUP2 DUP2 SUB PUSH0 DUP4 ADD MSTORE PUSH2 0xEAC DUP2 DUP7 PUSH2 0xBF7 JUMP JUMPDEST SWAP1 POP PUSH2 0xEBB PUSH1 0x20 DUP4 ADD DUP6 PUSH2 0xE6C JUMP JUMPDEST PUSH2 0xEC8 PUSH1 0x40 DUP4 ADD DUP5 PUSH2 0xE6C JUMP JUMPDEST SWAP5 SWAP4 POP POP POP POP JUMP JUMPDEST PUSH32 0x4E487B7100000000000000000000000000000000000000000000000000000000 PUSH0 MSTORE PUSH1 0x22 PUSH1 0x4 MSTORE PUSH1 0x24 PUSH0 REVERT JUMPDEST PUSH0 PUSH1 0x2 DUP3 DIV SWAP1 POP PUSH1 0x1 DUP3 AND DUP1 PUSH2 0xF14 JUMPI PUSH1 0x7F DUP3 AND SWAP2 POP JUMPDEST PUSH1 0x20 DUP3 LT DUP2 SUB PUSH2 0xF27 JUMPI PUSH2 0xF26 PUSH2 0xED0 JUMP JUMPDEST JUMPDEST POP SWAP2 SWAP1 POP JUMP JUMPDEST PUSH0 DUP2 SWAP1 POP DUP2 PUSH0 MSTORE PUSH1 0x20 PUSH0 KECCAK256 SWAP1 POP SWAP2 SWAP1 POP JUMP JUMPDEST PUSH0 PUSH1 0x20 PUSH1 0x1F DUP4 ADD DIV SWAP1 POP SWAP2 SWAP1 POP JUMP JUMPDEST PUSH0 DUP3 DUP3 SHL SWAP1 POP SWAP3 SWAP2 POP POP JUMP JUMPDEST PUSH0 PUSH1 0x8 DUP4 MUL PUSH2 0xF89 PUSH32 0xFFFFFFFFFFFFFFFFFFFFFFFFFFFFFFFFFFFFFFFFFFFFFFFFFFFFFFFFFFFFFFFF DUP3 PUSH2 0xF4E JUMP JUMPDEST PUSH2 0xF93 DUP7 DUP4 PUSH2 0xF4E JUMP JUMPDEST SWAP6 POP DUP1 NOT DUP5 AND SWAP4 POP DUP1 DUP7 AND DUP5 OR SWAP3 POP POP POP SWAP4 SWAP3 POP POP POP JUMP JUMPDEST PUSH0 DUP2 SWAP1 POP SWAP2 SWAP1 POP JUMP JUMPDEST PUSH0 PUSH2 0xFCE PUSH2 0xFC9 PUSH2 0xFC4 DUP5 PUSH2 0xB47 JUMP JUMPDEST PUSH2 0xFAB JUMP JUMPDEST PUSH2 0xB47 JUMP JUMPDEST SWAP1 POP SWAP2 SWAP1 POP JUMP JUMPDEST PUSH0 DUP2 SWAP1 POP SWAP2 SWAP1 POP JUMP JUMPDEST PUSH2 0xFE7 DUP4 PUSH2 0xFB4 JUMP JUMPDEST PUSH2 0xFFB PUSH2 0xFF3 DUP3 PUSH2 0xFD5 JUMP JUMPDEST DUP5 DUP5 SLOAD PUSH2 0xF5A JUMP JUMPDEST DUP3 SSTORE POP POP POP POP JUMP JUMPDEST PUSH0 SWAP1 JUMP JUMPDEST PUSH2 0x100F PUSH2 0x1003 JUMP JUMPDEST PUSH2 0x101A DUP2 DUP5 DUP5 PUSH2 0xFDE JUMP JUMPDEST POP POP POP JUMP JUMPDEST JUMPDEST DUP2 DUP2 LT ISZERO PUSH2 0x103D JUMPI PUSH2 0x1032 PUSH0 DUP3 PUSH2 0x1007 JUMP JUMPDEST PUSH1 0x1 DUP2 ADD SWAP1 POP PUSH2 0x1020 JUMP JUMPDEST POP POP JUMP JUMPDEST PUSH1 0x1F DUP3 GT ISZERO PUSH2 0x1082 JUMPI PUSH2 0x1053 DUP2 PUSH2 0xF2D JUMP JUMPDEST PUSH2 0x105C DUP5 PUSH2 0xF3F JUMP JUMPDEST DUP2 ADD PUSH1 0x20 DUP6 LT ISZERO PUSH2 0x106B JUMPI DUP2 SWAP1 POP JUMPDEST PUSH2 0x107F PUSH2 0x1077 DUP6 PUSH2 0xF3F JUMP JUMPDEST DUP4 ADD DUP3 PUSH2 0x101F JUMP JUMPDEST POP POP JUMPDEST POP POP POP JUMP JUMPDEST PUSH0 DUP3 DUP3 SHR SWAP1 POP SWAP3 SWAP2 POP POP JUMP JUMPDEST PUSH0 PUSH2 0x10A2 PUSH0 NOT DUP5 PUSH1 0x8 MUL PUSH2 0x1087 JUMP JUMPDEST NOT DUP1 DUP4 AND SWAP2 POP POP SWAP3 SWAP2 POP POP JUMP JUMPDEST PUSH0 PUSH2 0x10BA DUP4 DUP4 PUSH2 0x1093 JUMP JUMPDEST SWAP2 POP DUP3 PUSH1 0x2 MUL DUP3 OR SWAP1 POP SWAP3 SWAP2 POP POP JUMP JUMPDEST PUSH2 0x10D3 DUP3 PUSH2 0xBA5 JUMP JUMPDEST PUSH8 0xFFFFFFFFFFFFFFFF DUP2 GT ISZERO PUSH2 0x10EC JUMPI PUSH2 0x10EB PUSH2 0xC95 JUMP JUMPDEST JUMPDEST PUSH2 0x10F6 DUP3 SLOAD PUSH2 0xEFD JUMP JUMPDEST PUSH2 0x1101 DUP3 DUP3 DUP6 PUSH2 0x1041 JUMP JUMPDEST PUSH0 PUSH1 0x20 SWAP1 POP PUSH1 0x1F DUP4 GT PUSH1 0x1 DUP2 EQ PUSH2 0x1132 JUMPI PUSH0 DUP5 ISZERO PUSH2 0x1120 JUMPI DUP3 DUP8 ADD MLOAD SWAP1 POP JUMPDEST PUSH2 0x112A DUP6 DUP3 PUSH2 0x10AF JUMP JUMPDEST DUP7 SSTORE POP PUSH2 0x1191 JUMP JUMPDEST PUSH1 0x1F NOT DUP5 AND PUSH2 0x1140 DUP7 PUSH2 0xF2D JUMP JUMPDEST PUSH0 JUMPDEST DUP3 DUP2 LT ISZERO PUSH2 0x1167 JUMPI DUP5 DUP10 ADD MLOAD DUP3 SSTORE PUSH1 0x1 DUP3 ADD SWAP2 POP PUSH1 0x20 DUP6 ADD SWAP5 POP PUSH1 0x20 DUP2 ADD SWAP1 POP PUSH2 0x1142 JUMP JUMPDEST DUP7 DUP4 LT ISZERO PUSH2 0x1184 JUMPI DUP5 DUP10 ADD MLOAD PUSH2 0x1180 PUSH1 0x1F DUP10 AND DUP3 PUSH2 0x1093 JUMP JUMPDEST DUP4 SSTORE POP JUMPDEST PUSH1 0x1 PUSH1 0x2 DUP9 MUL ADD DUP9 SSTORE POP POP POP JUMPDEST POP POP POP POP POP POP JUMP JUMPDEST PUSH0 DUP2 SWAP1 POP SWAP3 SWAP2 POP POP JUMP JUMPDEST PUSH0 PUSH2 0x11AD DUP3 PUSH2 0xBA5 JUMP JUMPDEST PUSH2 0x11B7 DUP2 DUP6 PUSH2 0x1199 JUMP JUMPDEST SWAP4 POP PUSH2 0x11C7 DUP2 DUP6 PUSH1 0x20 DUP7 ADD PUSH2 0xBBF JUMP JUMPDEST DUP1 DUP5 ADD SWAP2 POP POP SWAP3 SWAP2 POP POP JUMP JUMPDEST PUSH0 PUSH2 0x11DE DUP3 DUP5 PUSH2 0x11A3 JUMP JUMPDEST SWAP2 POP DUP2 SWAP1 POP SWAP3 SWAP2 POP POP JUMP JUMPDEST PUSH32 0x566F74696E67206973206E6F7420636C6F736564207965742E00000000000000 PUSH0 DUP3 ADD MSTORE POP JUMP JUMPDEST PUSH0 PUSH2 0x121D PUSH1 0x19 DUP4 PUSH2 0xBAF JUMP JUMPDEST SWAP2 POP PUSH2 0x1228 DUP3 PUSH2 0x11E9 JUMP JUMPDEST PUSH1 0x20 DUP3 ADD SWAP1 POP SWAP2 SWAP1 POP JUMP JUMPDEST PUSH0 PUSH1 0x20 DUP3 ADD SWAP1 POP DUP2 DUP2 SUB PUSH0 DUP4 ADD MSTORE PUSH2 0x124A DUP2 PUSH2 0x1211 JUMP JUMPDEST SWAP1 POP SWAP2 SWAP1 POP JUMP JUMPDEST PUSH32 0x4E487B7100000000000000000000000000000000000000000000000000000000 PUSH0 MSTORE PUSH1 0x32 PUSH1 0x4 MSTORE PUSH1 0x24 PUSH0 REVERT JUMPDEST PUSH0 DUP2 SLOAD PUSH2 0x128A DUP2 PUSH2 0xEFD JUMP JUMPDEST PUSH2 0x1294 DUP2 DUP7 PUSH2 0x1199 JUMP JUMPDEST SWAP5 POP PUSH1 0x1 DUP3 AND PUSH0 DUP2 EQ PUSH2 0x12AE JUMPI PUSH1 0x1 DUP2 EQ PUSH2 0x12C3 JUMPI PUSH2 0x12F5 JUMP JUMPDEST PUSH1 0xFF NOT DUP4 AND DUP7 MSTORE DUP2 ISZERO ISZERO DUP3 MUL DUP7 ADD SWAP4 POP PUSH2 0x12F5 JUMP JUMPDEST PUSH2 0x12CC DUP6 PUSH2 0xF2D JUMP JUMPDEST PUSH0 JUMPDEST DUP4 DUP2 LT ISZERO PUSH2 0x12ED JUMPI DUP2 SLOAD DUP2 DUP10 ADD MSTORE PUSH1 0x1 DUP3 ADD SWAP2 POP PUSH1 0x20 DUP2 ADD SWAP1 POP PUSH2 0x12CE JUMP JUMPDEST DUP4 DUP9 ADD SWAP6 POP POP POP JUMPDEST POP POP POP SWAP3 SWAP2 POP POP JUMP JUMPDEST PUSH0 PUSH2 0x1309 DUP3 DUP5 PUSH2 0x127E JUMP JUMPDEST SWAP2 POP DUP2 SWAP1 POP SWAP3 SWAP2 POP POP JUMP JUMPDEST PUSH32 0x596F75206861766520616C726561647920766F7465642E000000000000000000 PUSH0 DUP3 ADD MSTORE POP JUMP JUMPDEST PUSH0 PUSH2 0x1348 PUSH1 0x17 DUP4 PUSH2 0xBAF JUMP JUMPDEST SWAP2 POP PUSH2 0x1353 DUP3 PUSH2 0x1314 JUMP JUMPDEST PUSH1 0x20 DUP3 ADD SWAP1 POP SWAP2 SWAP1 POP JUMP JUMPDEST PUSH0 PUSH1 0x20 DUP3 ADD SWAP1 POP DUP2 DUP2 SUB PUSH0 DUP4 ADD MSTORE PUSH2 0x1375 DUP2 PUSH2 0x133C JUMP JUMPDEST SWAP1 POP SWAP2 SWAP1 POP JUMP JUMPDEST PUSH32 0x596F75206E65656420746F206C6F6720696E2066697273742E00000000000000 PUSH0 DUP3 ADD MSTORE POP JUMP JUMPDEST PUSH0 PUSH2 0x13B0 PUSH1 0x19 DUP4 PUSH2 0xBAF JUMP JUMPDEST SWAP2 POP PUSH2 0x13BB DUP3 PUSH2 0x137C JUMP JUMPDEST PUSH1 0x20 DUP3 ADD SWAP1 POP SWAP2 SWAP1 POP JUMP JUMPDEST PUSH0 PUSH1 0x20 DUP3 ADD SWAP1 POP DUP2 DUP2 SUB PUSH0 DUP4 ADD MSTORE PUSH2 0x13DD DUP2 PUSH2 0x13A4 JUMP JUMPDEST SWAP1 POP SWAP2 SWAP1 POP JUMP JUMPDEST PUSH32 0x496E76616C69642063616E6469646174652E0000000000000000000000000000 PUSH0 DUP3 ADD MSTORE POP JUMP JUMPDEST PUSH0 PUSH2 0x1418 PUSH1 0x12 DUP4 PUSH2 0xBAF JUMP JUMPDEST SWAP2 POP PUSH2 0x1423 DUP3 PUSH2 0x13E4 JUMP JUMPDEST PUSH1 0x20 DUP3 ADD SWAP1 POP SWAP2 SWAP1 POP JUMP JUMPDEST PUSH0 PUSH1 0x20 DUP3 ADD SWAP1 POP DUP2 DUP2 SUB PUSH0 DUP4 ADD MSTORE PUSH2 0x1445 DUP2 PUSH2 0x140C JUMP JUMPDEST SWAP1 POP SWAP2 SWAP1 POP JUMP JUMPDEST PUSH32 0x566F74696E6720697320636C6F7365642E000000000000000000000000000000 PUSH0 DUP3 ADD MSTORE POP JUMP JUMPDEST PUSH0 PUSH2 0x1480 PUSH1 0x11 DUP4 PUSH2 0xBAF JUMP JUMPDEST SWAP2 POP PUSH2 0x148B DUP3 PUSH2 0x144C JUMP JUMPDEST PUSH1 0x20 DUP3 ADD SWAP1 POP SWAP2 SWAP1 POP JUMP JUMPDEST PUSH0 PUSH1 0x20 DUP3 ADD SWAP1 POP DUP2 DUP2 SUB PUSH0 DUP4 ADD MSTORE PUSH2 0x14AD DUP2 PUSH2 0x1474 JUMP JUMPDEST SWAP1 POP SWAP2 SWAP1 POP JUMP JUMPDEST PUSH32 0x4E487B7100000000000000000000000000000000000000000000000000000000 PUSH0 MSTORE PUSH1 0x11 PUSH1 0x4 MSTORE PUSH1 0x24 PUSH0 REVERT JUMPDEST PUSH0 PUSH2 0x14EB DUP3 PUSH2 0xB47 JUMP JUMPDEST SWAP2 POP PUSH32 0xFFFFFFFFFFFFFFFFFFFFFFFFFFFFFFFFFFFFFFFFFFFFFFFFFFFFFFFFFFFFFFFF DUP3 SUB PUSH2 0x151D JUMPI PUSH2 0x151C PUSH2 0x14B4 JUMP JUMPDEST JUMPDEST PUSH1 0x1 DUP3 ADD SWAP1 POP SWAP2 SWAP1 POP JUMP INVALID LOG2 PUSH5 0x6970667358 0x22 SLT KECCAK256 0xAB EQ SHR LOG3 0xE8 0xE0 PUSH6 0xA0D806615CE4 0x4A SUB SWAP9 0xD4 0x25 GAS PUSH32 0x1875E58752394D6313B7B65164736F6C63430008160033000000000000000000 "
				},
				"gasEstimates": {
					"creation": {
						"codeDepositCost": "1094000",
						"executionCost": "infinite",
						"totalCost": "infinite"
					},
					"external": {
						"candidates(uint256)": "infinite",
						"closeVoting()": "24497",
						"createProfile(string,uint256,uint256)": "infinite",
						"getVotes(string)": "infinite",
						"getWinner()": "infinite",
						"hasVoted(address)": "2834",
						"login(uint256,uint256)": "infinite",
						"profiles(address)": "infinite",
						"vote(string)": "infinite",
						"votes(string)": "infinite",
						"votingClosed()": "2489"
					},
					"internal": {
						"validCandidate(string memory)": "infinite"
					}
				},
				"methodIdentifiers": {
					"candidates(uint256)": "3477ee2e",
					"closeVoting()": "c631b292",
					"createProfile(string,uint256,uint256)": "6fbfbb9b",
					"getVotes(string)": "805265e5",
					"getWinner()": "8e7ea5b2",
					"hasVoted(address)": "09eef43e",
					"login(uint256,uint256)": "441441d3",
					"profiles(address)": "bbe15627",
					"vote(string)": "fc36e15b",
					"votes(string)": "b99ef1fa",
					"votingClosed()": "2479ecb8"
				}
			},
			"storageLayout": {
				"storage": [
					{
						"astId": 13,
						"contract": "contracts/duara.sol:DuaraVoting",
						"label": "profiles",
						"offset": 0,
						"slot": "0",
						"type": "t_mapping(t_address,t_struct(Profile)8_storage)"
					},
					{
						"astId": 17,
						"contract": "contracts/duara.sol:DuaraVoting",
						"label": "hasVoted",
						"offset": 0,
						"slot": "1",
						"type": "t_mapping(t_address,t_bool)"
					},
					{
						"astId": 24,
						"contract": "contracts/duara.sol:DuaraVoting",
						"label": "candidates",
						"offset": 0,
						"slot": "2",
						"type": "t_array(t_string_storage)dyn_storage"
					},
					{
						"astId": 28,
						"contract": "contracts/duara.sol:DuaraVoting",
						"label": "votes",
						"offset": 0,
						"slot": "3",
						"type": "t_mapping(t_string_memory_ptr,t_uint256)"
					},
					{
						"astId": 31,
						"contract": "contracts/duara.sol:DuaraVoting",
						"label": "votingClosed",
						"offset": 0,
						"slot": "4",
						"type": "t_bool"
					}
				],
				"types": {
					"t_address": {
						"encoding": "inplace",
						"label": "address",
						"numberOfBytes": "20"
					},
					"t_array(t_string_storage)dyn_storage": {
						"base": "t_string_storage",
						"encoding": "dynamic_array",
						"label": "string[]",
						"numberOfBytes": "32"
					},
					"t_bool": {
						"encoding": "inplace",
						"label": "bool",
						"numberOfBytes": "1"
					},
					"t_mapping(t_address,t_bool)": {
						"encoding": "mapping",
						"key": "t_address",
						"label": "mapping(address => bool)",
						"numberOfBytes": "32",
						"value": "t_bool"
					},
					"t_mapping(t_address,t_struct(Profile)8_storage)": {
						"encoding": "mapping",
						"key": "t_address",
						"label": "mapping(address => struct DuaraVoting.Profile)",
						"numberOfBytes": "32",
						"value": "t_struct(Profile)8_storage"
					},
					"t_mapping(t_string_memory_ptr,t_uint256)": {
						"encoding": "mapping",
						"key": "t_string_memory_ptr",
						"label": "mapping(string => uint256)",
						"numberOfBytes": "32",
						"value": "t_uint256"
					},
					"t_string_memory_ptr": {
						"encoding": "bytes",
						"label": "string",
						"numberOfBytes": "32"
					},
					"t_string_storage": {
						"encoding": "bytes",
						"label": "string",
						"numberOfBytes": "32"
					},
					"t_struct(Profile)8_storage": {
						"encoding": "inplace",
						"label": "struct DuaraVoting.Profile",
						"members": [
							{
								"astId": 3,
								"contract": "contracts/duara.sol:DuaraVoting",
								"label": "name",
								"offset": 0,
								"slot": "0",
								"type": "t_string_storage"
							},
							{
								"astId": 5,
								"contract": "contracts/duara.sol:DuaraVoting",
								"label": "idNumber",
								"offset": 0,
								"slot": "1",
								"type": "t_uint256"
							},
							{
								"astId": 7,
								"contract": "contracts/duara.sol:DuaraVoting",
								"label": "voterNumber",
								"offset": 0,
								"slot": "2",
								"type": "t_uint256"
							}
						],
						"numberOfBytes": "96"
					},
					"t_uint256": {
						"encoding": "inplace",
						"label": "uint256",
						"numberOfBytes": "32"
					}
				}
			},
			"userdoc": {
				"kind": "user",
				"methods": {},
				"version": 1
			}
		}
	}
}